{"abi":[{"type":"constructor","inputs":[{"name":"_electionFactory","type":"address","internalType":"address"}],"stateMutability":"nonpayable"},{"type":"receive","stateMutability":"payable"},{"type":"function","name":"authorizeElection","inputs":[{"name":"_election","type":"address","internalType":"address"},{"name":"_voteLimit","type":"uint256","internalType":"uint256"}],"outputs":[],"stateMutability":"nonpayable"},{"type":"function","name":"authorizedElections","inputs":[{"name":"","type":"address","internalType":"address"}],"outputs":[{"name":"","type":"bool","internalType":"bool"}],"stateMutability":"view"},{"type":"function","name":"electionFactory","inputs":[],"outputs":[{"name":"","type":"address","internalType":"address"}],"stateMutability":"view"},{"type":"function","name":"electionVoteLimits","inputs":[{"name":"","type":"address","internalType":"address"}],"outputs":[{"name":"","type":"uint256","internalType":"uint256"}],"stateMutability":"view"},{"type":"function","name":"electionVotesProcessed","inputs":[{"name":"","type":"address","internalType":"address"}],"outputs":[{"name":"","type":"uint256","internalType":"uint256"}],"stateMutability":"view"},{"type":"function","name":"executeVote","inputs":[{"name":"_election","type":"address","internalType":"address"},{"name":"_voterId","type":"string","internalType":"string"},{"name":"_voterKeyHash","type":"bytes32","internalType":"bytes32"},{"name":"_choices","type":"bytes32[]","internalType":"bytes32[]"},{"name":"_ipfsCid","type":"string","internalType":"string"},{"name":"_nonce","type":"bytes32","internalType":"bytes32"}],"outputs":[],"stateMutability":"nonpayable"},{"type":"function","name":"owner","inputs":[],"outputs":[{"name":"","type":"address","internalType":"address"}],"stateMutability":"view"},{"type":"function","name":"pause","inputs":[],"outputs":[],"stateMutability":"nonpayable"},{"type":"function","name":"paused","inputs":[],"outputs":[{"name":"","type":"bool","internalType":"bool"}],"stateMutability":"view"},{"type":"function","name":"renounceOwnership","inputs":[],"outputs":[],"stateMutability":"nonpayable"},{"type":"function","name":"totalVotesProcessed","inputs":[],"outputs":[{"name":"","type":"uint256","internalType":"uint256"}],"stateMutability":"view"},{"type":"function","name":"transferOwnership","inputs":[{"name":"newOwner","type":"address","internalType":"address"}],"outputs":[],"stateMutability":"nonpayable"},{"type":"function","name":"unauthorizeElection","inputs":[{"name":"_election","type":"address","internalType":"address"}],"outputs":[],"stateMutability":"nonpayable"},{"type":"function","name":"unpause","inputs":[],"outputs":[],"stateMutability":"nonpayable"},{"type":"function","name":"updateFactory","inputs":[{"name":"_newFactory","type":"address","internalType":"address"}],"outputs":[],"stateMutability":"nonpayable"},{"type":"function","name":"updateVoteLimit","inputs":[{"name":"_election","type":"address","internalType":"address"},{"name":"_newLimit","type":"uint256","internalType":"uint256"}],"outputs":[],"stateMutability":"nonpayable"},{"type":"function","name":"usedNonces","inputs":[{"name":"","type":"bytes32","internalType":"bytes32"}],"outputs":[{"name":"","type":"bool","internalType":"bool"}],"stateMutability":"view"},{"type":"function","name":"withdraw","inputs":[{"name":"_to","type":"address","internalType":"address payable"},{"name":"_amount","type":"uint256","internalType":"uint256"}],"outputs":[],"stateMutability":"nonpayable"},{"type":"event","name":"ElectionAuthorized","inputs":[{"name":"election","type":"address","indexed":true,"internalType":"address"},{"name":"voteLimit","type":"uint256","indexed":false,"internalType":"uint256"}],"anonymous":false},{"type":"event","name":"ElectionUnauthorized","inputs":[{"name":"election","type":"address","indexed":true,"internalType":"address"}],"anonymous":false},{"type":"event","name":"FactoryUpdated","inputs":[{"name":"newFactory","type":"address","indexed":true,"internalType":"address"}],"anonymous":false},{"type":"event","name":"OwnershipTransferred","inputs":[{"name":"previousOwner","type":"address","indexed":true,"internalType":"address"},{"name":"newOwner","type":"address","indexed":true,"internalType":"address"}],"anonymous":false},{"type":"event","name":"Paused","inputs":[{"name":"account","type":"address","indexed":false,"internalType":"address"}],"anonymous":false},{"type":"event","name":"Unpaused","inputs":[{"name":"account","type":"address","indexed":false,"internalType":"address"}],"anonymous":false},{"type":"event","name":"VoteLimitUpdated","inputs":[{"name":"election","type":"address","indexed":true,"internalType":"address"},{"name":"newLimit","type":"uint256","indexed":false,"internalType":"uint256"}],"anonymous":false},{"type":"event","name":"VoteProcessed","inputs":[{"name":"election","type":"address","indexed":true,"internalType":"address"},{"name":"voterId","type":"string","indexed":false,"internalType":"string"},{"name":"timestamp","type":"uint256","indexed":false,"internalType":"uint256"}],"anonymous":false},{"type":"error","name":"EnforcedPause","inputs":[]},{"type":"error","name":"ExpectedPause","inputs":[]},{"type":"error","name":"OwnableInvalidOwner","inputs":[{"name":"owner","type":"address","internalType":"address"}]},{"type":"error","name":"OwnableUnauthorizedAccount","inputs":[{"name":"account","type":"address","internalType":"address"}]},{"type":"error","name":"ReentrancyGuardReentrantCall","inputs":[]}],"bytecode":{"object":"0x6080346100df57601f610e0738819003918201601f19168301916001600160401b038311848410176100e3578084926020946040528339810103126100df57516001600160a01b039081811681036100df5733156100c7575f543360018060a01b03198216175f55604051923391167f8be0079c531659141344cd1fd0a4f28419497f9722a3daafe3b4186f6b6457e05f80a36001805560028054610100600160a81b03191660089290921b610100600160a81b0316919091179055610d0f90816100f88239f35b604051631e4fbdf760e01b81525f6004820152602490fd5b5f80fd5b634e487b7160e01b5f52604160045260245ffdfe60806040818152600480361015610020575b505050361561001e575f80fd5b005b5f925f3560e01c9081630dd0186714610b4f575080631f12227714610b235780633f4ba83a14610abb5780634af184a7146109e95780634d1199e3146106e55780635c975abb146106c15780635d79bf8f14610641578063645aca3514610511578063715018a6146104b55780638456cb591461045a5780638da5cb5b14610432578063b745c6a214610415578063d0c90909146103d7578063d9f165dc146102ff578063f18567a6146102c3578063f2fde38b14610236578063f3fef3a31461011d5763feb61724036100115734610119576020366003190112610119578160209360ff923581526007855220541690519015158152f35b8280fd5b503461011957816003193601126101195780356001600160a01b03811690819003610232576024359161014e610c90565b81156101da57478311610187575083808093819382821561017e575bf115610174575080f35b51903d90823e3d90fd5b506108fc61016a565b608490602085519162461bcd60e51b8352820152602760248201527f456c656374696f6e5061796d61737465723a20496e73756666696369656e742060448201526662616c616e636560c81b6064820152fd5b608490602085519162461bcd60e51b8352820152602c60248201527f456c656374696f6e5061796d61737465723a20496e76616c696420726563697060448201526b69656e74206164647265737360a01b6064820152fd5b8380fd5b503461011957602036600319011261011957610250610b83565b90610259610c90565b6001600160a01b039182169283156102ad5750505f54826bffffffffffffffffffffffff60a01b8216175f55167f8be0079c531659141344cd1fd0a4f28419497f9722a3daafe3b4186f6b6457e05f80a380f35b51631e4fbdf760e01b8152908101849052602490fd5b5050346102fb5760203660031901126102fb5760209181906001600160a01b036102eb610b83565b1681526006845220549051908152f35b5080fd5b503461011957602036600319011261011957610319610b83565b90610322610c90565b6001600160a01b03821692831561038157505060028054610100600160a81b03191660089290921b610100600160a81b03169190911790557f24cd1310c8883cbeaf5b805ab13586ce018b79c022827158ff3e8df14d3449368280a280f35b906020608492519162461bcd60e51b8352820152602a60248201527f456c656374696f6e5061796d61737465723a20496e76616c696420666163746f6044820152697279206164647265737360b01b6064820152fd5b5050346102fb5760203660031901126102fb5760209160ff9082906001600160a01b03610402610b83565b1681526003855220541690519015158152f35b503461011957826003193601126101195760209250549051908152f35b5050346102fb57816003193601126102fb57905490516001600160a01b039091168152602090f35b5050346102fb57816003193601126102fb5760207f62e78cea01bee320cd4e420270b5ea74000d11b0c9f74754ebdbfc544b05a25891610498610c90565b6104a0610cbb565b600160ff19600254161760025551338152a180f35b833461050e578060031936011261050e576104ce610c90565b5f80546001600160a01b0319811682556001600160a01b03167f8be0079c531659141344cd1fd0a4f28419497f9722a3daafe3b4186f6b6457e08280a380f35b80fd5b50903461011957806003193601126101195761052b610b83565b9060243591610538610c90565b6001600160a01b03169283156105eb5784908482526003602052828220600160ff1982541617905560056020528383832055843b156102fb578251906302ae7ed160e31b8252309082015260016024820152818160448183895af180156105e1576105cd575b50507fecd45f8c8d81cfd09141fe23c9201a387e0dcce740f118fbf7c59e724eddbfe19160209151908152a280f35b6105d690610c26565b61023257835f61059e565b83513d84823e3d90fd5b6020608492519162461bcd60e51b8352820152602b60248201527f456c656374696f6e5061796d61737465723a20496e76616c696420656c65637460448201526a696f6e206164647265737360a81b6064820152fd5b5050346102fb57806003193601126102fb577f78b8e8abea05d045c608177aaf80611089c969190ccbc1759eac45a1314110b4602061067e610b83565b6024359061068a610c90565b6001600160a01b031680865260038352848620549094906106ad9060ff16610bc7565b84865260058352818187205551908152a280f35b5050346102fb57816003193601126102fb5760209060ff6002541690519015158152f35b508290346102fb576003199260c03685011261011957610703610b83565b9360249182359367ffffffffffffffff94858111610903576107289036908301610b99565b939094606435968088116109e557366023890112156109e55787840135928184116109e1578360051b913684848c0101116109dd576084359081116109dd576107749036908701610b99565b999060a4359a6002600154146109cd578c9d600260019e9a9b9c9d9e55610799610cbb565b600160a01b60019003169c898e809b5260209a60038c528c82205460ff166107c090610bc7565b815260068b528b808220549160058d522054111561096557808f5260078a528a8f205460ff16610915578e5260078952898e20805460ff191660011790558d969594939291908d3b15610911578b966108308e8d51996377cbf09360e11b8b5260808d8c015260848b0191610c4e565b94604435888a015288860301604489015280855260018060fb1b031061091157898588969587968b9961087597018483013701601c8682030160648701520191610c4e565b0381838c5af18015610907576108ef575b50946108df91877fe09b7e4ed4faaedd2534eb8139bd6b6513a37b0b4a9e6ca5a57f51de35c358439752600684528489206108c18154610c6e565b90556108cd8154610c6e565b90558351948486958652850191610c4e565b9042908301520390a26001805580f35b6108f890610c26565b610903578688610886565b8680fd5b85513d84823e3d90fd5b8780fd5b8a5162461bcd60e51b8152808a018b90526025818901527f456c656374696f6e5061796d61737465723a204e6f6e636520616c7265616479604482015264081d5cd95960da1b6064820152608490fd5b8a5162461bcd60e51b8152808a018b90526038818901527f456c656374696f6e5061796d61737465723a20566f7465206c696d697420657860448201527f63656564656420666f72207468697320656c656374696f6e00000000000000006064820152608490fd5b8851633ee5aeb560e01b81528890fd5b8a80fd5b8980fd5b8880fd5b5034610ab7576020366003190112610ab757610a03610b83565b610a0b610c90565b60018060a01b031691825f526003602052610a2b60ff825f205416610bc7565b825f526003602052805f2060ff198154169055823b15610ab7578051916302ae7ed160e31b835230908301525f60248301525f8260448183875af1908115610aae5750610a9b575b507f20cbb29e69d2158a0dcb70b5023a181cdbb1af3d13ca1cb7c2f98e6d6fb9d0048280a280f35b610aa6919250610c26565b5f905f610a73565b513d5f823e3d90fd5b5f80fd5b509034610ab7575f366003190112610ab757610ad5610c90565b6002549160ff831615610b15577f5db9ee0a495bf2e6ff9c91a7834c1ba4fdd244a5e8aa4e537bd38aeae4b073aa6020838560ff191660025551338152a1005b9051638dfc202b60e01b8152fd5b8234610ab7575f366003190112610ab757600254905160089190911c6001600160a01b03168152602090f35b839034610ab7576020366003190112610ab7576020916001600160a01b03610b75610b83565b165f52600583525f20548152f35b600435906001600160a01b0382168203610ab757565b9181601f84011215610ab75782359167ffffffffffffffff8311610ab75760208381860195010111610ab757565b15610bce57565b60405162461bcd60e51b815260206004820152602a60248201527f456c656374696f6e5061796d61737465723a20456c656374696f6e206e6f7420604482015269185d5d1a1bdc9a5e995960b21b6064820152608490fd5b67ffffffffffffffff8111610c3a57604052565b634e487b7160e01b5f52604160045260245ffd5b908060209392818452848401375f828201840152601f01601f1916010190565b5f198114610c7c5760010190565b634e487b7160e01b5f52601160045260245ffd5b5f546001600160a01b03163303610ca357565b60405163118cdaa760e01b8152336004820152602490fd5b60ff60025416610cc757565b60405163d93c066560e01b8152600490fdfea2646970667358221220ea536bd0376d403191118e61a2acb3d8bf050b21d4c52bd0e15bc0678122fa8964736f6c63430008170033","linkReferences":{}},"methodIdentifiers":{"authorizeElection(address,uint256)":"645aca35","authorizedElections(address)":"d0c90909","electionFactory()":"1f122277","electionVoteLimits(address)":"0dd01867","electionVotesProcessed(address)":"f18567a6","executeVote(address,string,bytes32,bytes32[],string,bytes32)":"4d1199e3","owner()":"8da5cb5b","pause()":"8456cb59","paused()":"5c975abb","renounceOwnership()":"715018a6","totalVotesProcessed()":"b745c6a2","transferOwnership(address)":"f2fde38b","unauthorizeElection(address)":"4af184a7","unpause()":"3f4ba83a","updateFactory(address)":"d9f165dc","updateVoteLimit(address,uint256)":"5d79bf8f","usedNonces(bytes32)":"feb61724","withdraw(address,uint256)":"f3fef3a3"},"id":29}