{"abi":[{"type":"constructor","inputs":[{"name":"_entryPoint","type":"address","internalType":"contract IEntryPoint"},{"name":"_electionFactory","type":"address","internalType":"address"}],"stateMutability":"nonpayable"},{"type":"receive","stateMutability":"payable"},{"type":"function","name":"acceptOwnership","inputs":[],"outputs":[],"stateMutability":"nonpayable"},{"type":"function","name":"addStake","inputs":[{"name":"unstakeDelaySec","type":"uint32","internalType":"uint32"}],"outputs":[],"stateMutability":"payable"},{"type":"function","name":"authorizeElection","inputs":[{"name":"_election","type":"address","internalType":"address"},{"name":"_voteLimit","type":"uint256","internalType":"uint256"}],"outputs":[],"stateMutability":"nonpayable"},{"type":"function","name":"authorizedElections","inputs":[{"name":"","type":"address","internalType":"address"}],"outputs":[{"name":"","type":"bool","internalType":"bool"}],"stateMutability":"view"},{"type":"function","name":"deposit","inputs":[],"outputs":[],"stateMutability":"payable"},{"type":"function","name":"electionFactory","inputs":[],"outputs":[{"name":"","type":"address","internalType":"address"}],"stateMutability":"view"},{"type":"function","name":"electionVoteLimits","inputs":[{"name":"","type":"address","internalType":"address"}],"outputs":[{"name":"","type":"uint256","internalType":"uint256"}],"stateMutability":"view"},{"type":"function","name":"electionVotesProcessed","inputs":[{"name":"","type":"address","internalType":"address"}],"outputs":[{"name":"","type":"uint256","internalType":"uint256"}],"stateMutability":"view"},{"type":"function","name":"entryPoint","inputs":[],"outputs":[{"name":"","type":"address","internalType":"contract IEntryPoint"}],"stateMutability":"view"},{"type":"function","name":"executeVote","inputs":[{"name":"_election","type":"address","internalType":"address"},{"name":"_voterId","type":"string","internalType":"string"},{"name":"_voterKeyHash","type":"bytes32","internalType":"bytes32"},{"name":"_choices","type":"bytes32[]","internalType":"bytes32[]"},{"name":"_ipfsCid","type":"string","internalType":"string"},{"name":"_nonce","type":"bytes32","internalType":"bytes32"}],"outputs":[],"stateMutability":"nonpayable"},{"type":"function","name":"getDeposit","inputs":[],"outputs":[{"name":"","type":"uint256","internalType":"uint256"}],"stateMutability":"view"},{"type":"function","name":"owner","inputs":[],"outputs":[{"name":"","type":"address","internalType":"address"}],"stateMutability":"view"},{"type":"function","name":"pause","inputs":[],"outputs":[],"stateMutability":"nonpayable"},{"type":"function","name":"paused","inputs":[],"outputs":[{"name":"","type":"bool","internalType":"bool"}],"stateMutability":"view"},{"type":"function","name":"pendingOwner","inputs":[],"outputs":[{"name":"","type":"address","internalType":"address"}],"stateMutability":"view"},{"type":"function","name":"postOp","inputs":[{"name":"mode","type":"uint8","internalType":"enum IPaymaster.PostOpMode"},{"name":"context","type":"bytes","internalType":"bytes"},{"name":"actualGasCost","type":"uint256","internalType":"uint256"},{"name":"actualUserOpFeePerGas","type":"uint256","internalType":"uint256"}],"outputs":[],"stateMutability":"nonpayable"},{"type":"function","name":"renounceOwnership","inputs":[],"outputs":[],"stateMutability":"nonpayable"},{"type":"function","name":"totalVotesProcessed","inputs":[],"outputs":[{"name":"","type":"uint256","internalType":"uint256"}],"stateMutability":"view"},{"type":"function","name":"transferOwnership","inputs":[{"name":"newOwner","type":"address","internalType":"address"}],"outputs":[],"stateMutability":"nonpayable"},{"type":"function","name":"unauthorizeElection","inputs":[{"name":"_election","type":"address","internalType":"address"}],"outputs":[],"stateMutability":"nonpayable"},{"type":"function","name":"unlockStake","inputs":[],"outputs":[],"stateMutability":"nonpayable"},{"type":"function","name":"unpause","inputs":[],"outputs":[],"stateMutability":"nonpayable"},{"type":"function","name":"updateFactory","inputs":[{"name":"_newFactory","type":"address","internalType":"address"}],"outputs":[],"stateMutability":"nonpayable"},{"type":"function","name":"updateVoteLimit","inputs":[{"name":"_election","type":"address","internalType":"address"},{"name":"_newLimit","type":"uint256","internalType":"uint256"}],"outputs":[],"stateMutability":"nonpayable"},{"type":"function","name":"validatePaymasterUserOp","inputs":[{"name":"userOp","type":"tuple","internalType":"struct PackedUserOperation","components":[{"name":"sender","type":"address","internalType":"address"},{"name":"nonce","type":"uint256","internalType":"uint256"},{"name":"initCode","type":"bytes","internalType":"bytes"},{"name":"callData","type":"bytes","internalType":"bytes"},{"name":"accountGasLimits","type":"bytes32","internalType":"bytes32"},{"name":"preVerificationGas","type":"uint256","internalType":"uint256"},{"name":"gasFees","type":"bytes32","internalType":"bytes32"},{"name":"paymasterAndData","type":"bytes","internalType":"bytes"},{"name":"signature","type":"bytes","internalType":"bytes"}]},{"name":"userOpHash","type":"bytes32","internalType":"bytes32"},{"name":"maxCost","type":"uint256","internalType":"uint256"}],"outputs":[{"name":"context","type":"bytes","internalType":"bytes"},{"name":"validationData","type":"uint256","internalType":"uint256"}],"stateMutability":"nonpayable"},{"type":"function","name":"withdraw","inputs":[{"name":"_to","type":"address","internalType":"address payable"},{"name":"_amount","type":"uint256","internalType":"uint256"}],"outputs":[],"stateMutability":"nonpayable"},{"type":"function","name":"withdrawStake","inputs":[{"name":"withdrawAddress","type":"address","internalType":"address payable"}],"outputs":[],"stateMutability":"nonpayable"},{"type":"function","name":"withdrawTo","inputs":[{"name":"withdrawAddress","type":"address","internalType":"address payable"},{"name":"amount","type":"uint256","internalType":"uint256"}],"outputs":[],"stateMutability":"nonpayable"},{"type":"event","name":"ElectionAuthorized","inputs":[{"name":"election","type":"address","indexed":true,"internalType":"address"},{"name":"voteLimit","type":"uint256","indexed":false,"internalType":"uint256"}],"anonymous":false},{"type":"event","name":"ElectionUnauthorized","inputs":[{"name":"election","type":"address","indexed":true,"internalType":"address"}],"anonymous":false},{"type":"event","name":"FactoryUpdated","inputs":[{"name":"newFactory","type":"address","indexed":true,"internalType":"address"}],"anonymous":false},{"type":"event","name":"OwnershipTransferStarted","inputs":[{"name":"previousOwner","type":"address","indexed":true,"internalType":"address"},{"name":"newOwner","type":"address","indexed":true,"internalType":"address"}],"anonymous":false},{"type":"event","name":"OwnershipTransferred","inputs":[{"name":"previousOwner","type":"address","indexed":true,"internalType":"address"},{"name":"newOwner","type":"address","indexed":true,"internalType":"address"}],"anonymous":false},{"type":"event","name":"Paused","inputs":[{"name":"account","type":"address","indexed":false,"internalType":"address"}],"anonymous":false},{"type":"event","name":"Unpaused","inputs":[{"name":"account","type":"address","indexed":false,"internalType":"address"}],"anonymous":false},{"type":"event","name":"VoteLimitUpdated","inputs":[{"name":"election","type":"address","indexed":true,"internalType":"address"},{"name":"newLimit","type":"uint256","indexed":false,"internalType":"uint256"}],"anonymous":false},{"type":"event","name":"VoteProcessed","inputs":[{"name":"election","type":"address","indexed":true,"internalType":"address"},{"name":"voterId","type":"string","indexed":false,"internalType":"string"},{"name":"timestamp","type":"uint256","indexed":false,"internalType":"uint256"}],"anonymous":false},{"type":"error","name":"EnforcedPause","inputs":[]},{"type":"error","name":"ExpectedPause","inputs":[]},{"type":"error","name":"OwnableInvalidOwner","inputs":[{"name":"owner","type":"address","internalType":"address"}]},{"type":"error","name":"OwnableUnauthorizedAccount","inputs":[{"name":"account","type":"address","internalType":"address"}]}],"bytecode":{"object":"0x60a080604052346101b757604081611604803803809161001f82856101e1565b8339810103126101b75780516001600160a01b038116918282036101b757602001516001600160a01b03811692908390036101b75733156101ce5760018060a01b03196001541660015560205f543360018060a01b03198216175f55602460405180948193339060018060a01b03167f8be0079c531659141344cd1fd0a4f28419497f9722a3daafe3b4186f6b6457e05f80a36301ffc9a760e01b8252631313998b60e31b60048301525afa9081156101c3575f91610184575b501561013f57608052600280546001600160a01b0319169190911790556040516113eb90816102198239608051818181610412015281816104f70152818161059901528181610621015281816106a90152818161100c0152818161110601526112b30152f35b60405162461bcd60e51b815260206004820152601e60248201527f49456e747279506f696e7420696e74657266616365206d69736d6174636800006044820152606490fd5b90506020813d6020116101bb575b8161019f602093836101e1565b810103126101b7575180151581036101b7575f6100d9565b5f80fd5b3d9150610192565b6040513d5f823e3d90fd5b631e4fbdf760e01b5f525f60045260245ffd5b601f909101601f19168101906001600160401b0382119082101761020457604052565b634e487b7160e01b5f52604160045260245ffdfe6080604052600436101561001a575b3615610018575f80fd5b005b5f5f3560e01c80630396cb60146110de5780630dd01867146110a55780631f1222771461107c578063205c287814610fe75780633f4ba83a14610f775780634af184a714610ead5780634d1199e314610db557806352b7512c14610b2e5780635c975abb14610b085780635d79bf8f14610a84578063645aca3514610954578063715018a6146108ef57806379ba50971461086a5780637c627b21146107625780638456cb59146106ff5780638da5cb5b146106d8578063b0d691fe14610693578063b745c6a214610675578063bb9fe6bf14610605578063c23a5cea14610574578063c399ec88146104cb578063d0c909091461048c578063d0e30db014610403578063d9f165dc14610341578063e30c397814610318578063f18567a6146102df578063f2fde38b146102725763f3fef3a314610159575061000e565b3461026f57604036600319011261026f5761017261117c565b6024359061017e61128b565b6001600160a01b03168015610215574782116101c0578280809381938282156101b7575bf1156101ab5780f35b604051903d90823e3d90fd5b506108fc6101a2565b60405162461bcd60e51b815260206004820152602760248201527f456c656374696f6e5061796d61737465723a20496e73756666696369656e742060448201526662616c616e636560c81b6064820152608490fd5b60405162461bcd60e51b815260206004820152602c60248201527f456c656374696f6e5061796d61737465723a20496e76616c696420726563697060448201526b69656e74206164647265737360a01b6064820152608490fd5b80fd5b503461026f57602036600319011261026f5761028c61117c565b61029461128b565b600180546001600160a01b0319166001600160a01b0392831690811790915582549091167f38d16b8cac22d99fc7c124b9cd0de2d3fa1faef420bfe791d8c362d765e227008380a380f35b503461026f57602036600319011261026f576020906040906001600160a01b0361030761117c565b168152600683522054604051908152f35b503461026f578060031936011261026f576001546040516001600160a01b039091168152602090f35b503461026f57602036600319011261026f5761035b61117c565b61036361128b565b6001600160a01b031680156103ab57600280546001600160a01b031916821790557f24cd1310c8883cbeaf5b805ab13586ce018b79c022827158ff3e8df14d3449368280a280f35b60405162461bcd60e51b815260206004820152602a60248201527f456c656374696f6e5061796d61737465723a20496e76616c696420666163746f6044820152697279206164647265737360b01b6064820152608490fd5b508060031936011261026f57807f00000000000000000000000000000000000000000000000000000000000000006001600160a01b0316803b1561048957816024916040519283809263b760faf960e01b825230600483015234905af1801561047e5761046d5750f35b81610477916111f7565b61026f5780f35b6040513d84823e3d90fd5b50fd5b503461026f57602036600319011261026f5760209060ff906040906001600160a01b036104b761117c565b168152600384522054166040519015158152f35b503461026f578060031936011261026f576040516370a0823160e01b81523060048201526020816024817f00000000000000000000000000000000000000000000000000000000000000006001600160a01b03165afa90811561047e57829161053a575b602082604051908152f35b90506020813d60201161056c575b81610555602093836111f7565b810103126105685760209150515f61052f565b5080fd5b3d9150610548565b503461026f57602036600319011261026f578061058f61117c565b61059761128b565b7f00000000000000000000000000000000000000000000000000000000000000006001600160a01b031690813b156106015760405163611d2e7560e11b81526001600160a01b0390911660048201529082908290602490829084905af1801561047e5761046d5750f35b5050fd5b503461026f578060031936011261026f5761061e61128b565b807f00000000000000000000000000000000000000000000000000000000000000006001600160a01b0316803b156104895781809160046040518094819363bb9fe6bf60e01b83525af1801561047e5761046d5750f35b503461026f578060031936011261026f576020600454604051908152f35b503461026f578060031936011261026f576040517f00000000000000000000000000000000000000000000000000000000000000006001600160a01b03168152602090f35b503461026f578060031936011261026f57546040516001600160a01b039091168152602090f35b503461026f578060031936011261026f5761071861128b565b610720611397565b6001805460ff60a01b1916600160a01b1790556040513381527f62e78cea01bee320cd4e420270b5ea74000d11b0c9f74754ebdbfc544b05a25890602090a180f35b503461026f57608036600319011261026f576004356003811015610568576024356001600160401b0381116108665761079f9036906004016111a6565b6107a76112b1565b810190604081830312610862576107bd81611192565b9160208201356001600160401b03811161085e576107db9201611320565b6001600160a01b0390911691156107f0578280f35b61084f7fe09b7e4ed4faaedd2534eb8139bd6b6513a37b0b4a9e6ca5a57f51de35c358439183855260066020526040852061082b8154611375565b9055610838600454611375565b6004556040519182916040835260408301906111d3565b4260208301520390a25f808280f35b8580fd5b8380fd5b8280fd5b503461026f578060031936011261026f57600154336001600160a01b03909116036108dc57600180546001600160a01b0319908116909155815433918116821783556001600160a01b03167f8be0079c531659141344cd1fd0a4f28419497f9722a3daafe3b4186f6b6457e08380a380f35b63118cdaa760e01b815233600452602490fd5b503461026f578060031936011261026f5761090861128b565b600180546001600160a01b03199081169091558154908116825581906001600160a01b03167f8be0079c531659141344cd1fd0a4f28419497f9722a3daafe3b4186f6b6457e08280a380f35b503461026f57604036600319011261026f5761096e61117c565b6024359061097a61128b565b6001600160a01b0316908115610a2b57818352600360205260408320600160ff198254161790558183526005602052806040842055813b15610866576040516302ae7ed160e31b8152306004820152600160248201528390818160448183885af1801561047e57610a16575b505060207fecd45f8c8d81cfd09141fe23c9201a387e0dcce740f118fbf7c59e724eddbfe191604051908152a280f35b81610a20916111f7565b61086657825f6109e6565b60405162461bcd60e51b815260206004820152602b60248201527f456c656374696f6e5061796d61737465723a20496e76616c696420656c65637460448201526a696f6e206164647265737360a81b6064820152608490fd5b503461026f57604036600319011261026f57610a9e61117c565b7f78b8e8abea05d045c608177aaf80611089c969190ccbc1759eac45a1314110b4602060243592610acd61128b565b6001600160a01b0316808552600382526040852054909390610af19060ff1661122c565b83855260058252806040862055604051908152a280f35b503461026f578060031936011261026f57602060ff60015460a01c166040519015158152f35b503461026f57606036600319011261026f576004356001600160401b038111610568578036039061012060031983011261086657610b6a6112b1565b610b72611397565b60648101359160221901821215610866570160048101356001600160401b0381116108665780360360248301136108665780600411610866576024908201908101919060a090829003600319011261086657610bd060288201611192565b9060488101356001600160401b038111610db1578360246004610bf69385010101611320565b9260888201356001600160401b03811161085e576004908301018160438201121561085e5760248101356001600160401b038111610d9d5760206024818360051b9360405190610c48838701836111f7565b815201928401010191838311610d9957604401905b828210610d895750505060a88201356001600160401b03811161085e57610c879201602801611320565b506001600160a01b031680835260036020526040832054909290610cad9060ff1661122c565b82815260066020526040812054838252600560205260408220541115610d1e57610d00610d1493610cf2604051948592602084015260408084015260608301906111d3565b03601f1981018452836111f7565b6040519283926040845260408401906111d3565b9060208301520390f35b60405162461bcd60e51b815260206004820152603860248201527f456c656374696f6e5061796d61737465723a20566f7465206c696d697420657860448201527f63656564656420666f72207468697320656c656374696f6e00000000000000006064820152608490fd5b8135815260209182019101610c5d565b8780fd5b634e487b7160e01b87526041600452602487fd5b8480fd5b503461026f5760c036600319011261026f57610dcf61117c565b506024356001600160401b03811161056857610def9036906004016111a6565b50506064356001600160401b0381116105685736602382011215610568578060040135906001600160401b03821161086657602490369260051b01011161026f576084356001600160401b03811161056857610e4f9036906004016111a6565b505060405162461bcd60e51b815260206004820152602e60248201527f456c656374696f6e5061796d61737465723a2065786563757465566f7465206e60448201526d1bdd081a5b5c1b195b595b9d195960921b6064820152608490fd5b503461026f57602036600319011261026f57610ec761117c565b610ecf61128b565b6001600160a01b031680825260036020526040822054610ef19060ff1661122c565b808252600360205260408220805460ff19169055803b1561056857816040516302ae7ed160e31b8152306004820152816024820152818160448183875af1801561047e57610f62575b50807f20cbb29e69d2158a0dcb70b5023a181cdbb1af3d13ca1cb7c2f98e6d6fb9d00491a280f35b81610f6c916111f7565b61056857815f610f3a565b503461026f578060031936011261026f57610f9061128b565b60015460ff8160a01c1615610fd85760ff60a01b19166001556040513381527f5db9ee0a495bf2e6ff9c91a7834c1ba4fdd244a5e8aa4e537bd38aeae4b073aa90602090a180f35b638dfc202b60e01b8252600482fd5b503461026f57604036600319011261026f578061100261117c565b61100a61128b565b7f00000000000000000000000000000000000000000000000000000000000000006001600160a01b031690813b156106015760405163040b850f60e31b81526001600160a01b03909116600482015260248035908201529082908290604490829084905af1801561047e5761046d5750f35b503461026f578060031936011261026f576002546040516001600160a01b039091168152602090f35b503461026f57602036600319011261026f576020906040906001600160a01b036110cd61117c565b168152600583522054604051908152f35b5060203660031901126111785760043563ffffffff81168091036111785761110461128b565b7f00000000000000000000000000000000000000000000000000000000000000006001600160a01b031690813b15611178575f90602460405180948193621cb65b60e51b8352600483015234905af1801561116d57611161575080f35b61001891505f906111f7565b6040513d5f823e3d90fd5b5f80fd5b600435906001600160a01b038216820361117857565b35906001600160a01b038216820361117857565b9181601f84011215611178578235916001600160401b038311611178576020838186019501011161117857565b805180835260209291819084018484015e5f828201840152601f01601f1916010190565b90601f801991011681019081106001600160401b0382111761121857604052565b634e487b7160e01b5f52604160045260245ffd5b1561123357565b60405162461bcd60e51b815260206004820152602a60248201527f456c656374696f6e5061796d61737465723a20456c656374696f6e206e6f7420604482015269185d5d1a1bdc9a5e995960b21b6064820152608490fd5b5f546001600160a01b0316330361129e57565b63118cdaa760e01b5f523360045260245ffd5b7f00000000000000000000000000000000000000000000000000000000000000006001600160a01b031633036112e357565b60405162461bcd60e51b815260206004820152601560248201527414d95b99195c881b9bdd08115b9d1c9e541bda5b9d605a1b6044820152606490fd5b81601f82011215611178578035906001600160401b0382116112185760405192611354601f8401601f1916602001856111f7565b8284526020838301011161117857815f926020809301838601378301015290565b5f1981146113835760010190565b634e487b7160e01b5f52601160045260245ffd5b60ff60015460a01c166113a657565b63d93c066560e01b5f5260045ffdfea264697066735822122021405ccf25e6fefa385ec3f863786d803c34d08fbd51ded57c75262e38fc5d5964736f6c634300081c0033","linkReferences":{}},"methodIdentifiers":{"acceptOwnership()":"79ba5097","addStake(uint32)":"0396cb60","authorizeElection(address,uint256)":"645aca35","authorizedElections(address)":"d0c90909","deposit()":"d0e30db0","electionFactory()":"1f122277","electionVoteLimits(address)":"0dd01867","electionVotesProcessed(address)":"f18567a6","entryPoint()":"b0d691fe","executeVote(address,string,bytes32,bytes32[],string,bytes32)":"4d1199e3","getDeposit()":"c399ec88","owner()":"8da5cb5b","pause()":"8456cb59","paused()":"5c975abb","pendingOwner()":"e30c3978","postOp(uint8,bytes,uint256,uint256)":"7c627b21","renounceOwnership()":"715018a6","totalVotesProcessed()":"b745c6a2","transferOwnership(address)":"f2fde38b","unauthorizeElection(address)":"4af184a7","unlockStake()":"bb9fe6bf","unpause()":"3f4ba83a","updateFactory(address)":"d9f165dc","updateVoteLimit(address,uint256)":"5d79bf8f","validatePaymasterUserOp((address,uint256,bytes,bytes,bytes32,uint256,bytes32,bytes,bytes),bytes32,uint256)":"52b7512c","withdraw(address,uint256)":"f3fef3a3","withdrawStake(address)":"c23a5cea","withdrawTo(address,uint256)":"205c2878"},"id":41}