{"abi":[{"type":"constructor","inputs":[{"name":"_electionCreationFee","type":"uint256","internalType":"uint256"}],"stateMutability":"nonpayable"},{"type":"function","name":"createElection","inputs":[{"name":"input","type":"tuple","internalType":"struct IElectionFactory.CreateElectionInput","components":[{"name":"title","type":"string","internalType":"string"},{"name":"description","type":"string","internalType":"string"},{"name":"startTime","type":"uint256","internalType":"uint256"},{"name":"endTime","type":"uint256","internalType":"uint256"},{"name":"timezone","type":"string","internalType":"string"},{"name":"ballotReceipt","type":"bool","internalType":"bool"},{"name":"submitConfirmation","type":"bool","internalType":"bool"},{"name":"maxVotersCount","type":"uint256","internalType":"uint256"},{"name":"allowVoterRegistration","type":"bool","internalType":"bool"},{"name":"loginInstructions","type":"string","internalType":"string"},{"name":"voteConfirmation","type":"string","internalType":"string"},{"name":"afterElectionMessage","type":"string","internalType":"string"},{"name":"publicResults","type":"bool","internalType":"bool"},{"name":"realTimeResults","type":"bool","internalType":"bool"},{"name":"resultsReleaseTime","type":"uint256","internalType":"uint256"},{"name":"allowResultsDownload","type":"bool","internalType":"bool"}]}],"outputs":[{"name":"electionId","type":"uint256","internalType":"uint256"},{"name":"electionContract","type":"address","internalType":"address"}],"stateMutability":"payable"},{"type":"function","name":"creatorElections","inputs":[{"name":"","type":"address","internalType":"address"},{"name":"","type":"uint256","internalType":"uint256"}],"outputs":[{"name":"","type":"uint256","internalType":"uint256"}],"stateMutability":"view"},{"type":"function","name":"deleteElection","inputs":[{"name":"_electionId","type":"uint256","internalType":"uint256"}],"outputs":[],"stateMutability":"nonpayable"},{"type":"function","name":"electionCreationFee","inputs":[],"outputs":[{"name":"","type":"uint256","internalType":"uint256"}],"stateMutability":"view"},{"type":"function","name":"electionExists","inputs":[{"name":"","type":"uint256","internalType":"uint256"}],"outputs":[{"name":"","type":"bool","internalType":"bool"}],"stateMutability":"view"},{"type":"function","name":"elections","inputs":[{"name":"","type":"uint256","internalType":"uint256"}],"outputs":[{"name":"","type":"address","internalType":"address"}],"stateMutability":"view"},{"type":"function","name":"getAllElections","inputs":[],"outputs":[{"name":"electionIds","type":"uint256[]","internalType":"uint256[]"},{"name":"electionContracts","type":"address[]","internalType":"address[]"}],"stateMutability":"view"},{"type":"function","name":"getCurrentElectionId","inputs":[],"outputs":[{"name":"","type":"uint256","internalType":"uint256"}],"stateMutability":"view"},{"type":"function","name":"getElection","inputs":[{"name":"_electionId","type":"uint256","internalType":"uint256"}],"outputs":[{"name":"","type":"tuple","internalType":"struct IElection.ElectionConfig","components":[{"name":"basicInfo","type":"tuple","internalType":"struct IElection.ElectionBasicInfo","components":[{"name":"title","type":"string","internalType":"string"},{"name":"description","type":"string","internalType":"string"},{"name":"creator","type":"address","internalType":"address"},{"name":"createdAt","type":"uint256","internalType":"uint256"},{"name":"status","type":"uint8","internalType":"enum IElection.ElectionStatus"}]},{"name":"timing","type":"tuple","internalType":"struct IElection.ElectionTiming","components":[{"name":"startTime","type":"uint256","internalType":"uint256"},{"name":"endTime","type":"uint256","internalType":"uint256"},{"name":"timezone","type":"string","internalType":"string"}]},{"name":"votingSettings","type":"tuple","internalType":"struct IElection.VotingSettings","components":[{"name":"ballotReceipt","type":"bool","internalType":"bool"},{"name":"submitConfirmation","type":"bool","internalType":"bool"},{"name":"maxVotersCount","type":"uint256","internalType":"uint256"},{"name":"allowVoterRegistration","type":"bool","internalType":"bool"}]},{"name":"messages","type":"tuple","internalType":"struct IElection.ElectionMessages","components":[{"name":"loginInstructions","type":"string","internalType":"string"},{"name":"voteConfirmation","type":"string","internalType":"string"},{"name":"afterElectionMessage","type":"string","internalType":"string"}]},{"name":"resultsConfig","type":"tuple","internalType":"struct IElection.ResultsConfig","components":[{"name":"publicResults","type":"bool","internalType":"bool"},{"name":"realTimeResults","type":"bool","internalType":"bool"},{"name":"resultsReleaseTime","type":"uint256","internalType":"uint256"},{"name":"allowResultsDownload","type":"bool","internalType":"bool"}]}]}],"stateMutability":"view"},{"type":"function","name":"getElectionBasicInfo","inputs":[{"name":"_electionId","type":"uint256","internalType":"uint256"}],"outputs":[{"name":"","type":"tuple","internalType":"struct IElection.ElectionBasicInfo","components":[{"name":"title","type":"string","internalType":"string"},{"name":"description","type":"string","internalType":"string"},{"name":"creator","type":"address","internalType":"address"},{"name":"createdAt","type":"uint256","internalType":"uint256"},{"name":"status","type":"uint8","internalType":"enum IElection.ElectionStatus"}]}],"stateMutability":"view"},{"type":"function","name":"getElectionContract","inputs":[{"name":"_electionId","type":"uint256","internalType":"uint256"}],"outputs":[{"name":"","type":"address","internalType":"address"}],"stateMutability":"view"},{"type":"function","name":"getElectionContractsByCreator","inputs":[{"name":"_creator","type":"address","internalType":"address"}],"outputs":[{"name":"","type":"address[]","internalType":"address[]"}],"stateMutability":"view"},{"type":"function","name":"getElectionsByCreator","inputs":[{"name":"_creator","type":"address","internalType":"address"}],"outputs":[{"name":"","type":"uint256[]","internalType":"uint256[]"}],"stateMutability":"view"},{"type":"function","name":"isElectionContract","inputs":[{"name":"","type":"address","internalType":"address"}],"outputs":[{"name":"","type":"bool","internalType":"bool"}],"stateMutability":"view"},{"type":"function","name":"owner","inputs":[],"outputs":[{"name":"","type":"address","internalType":"address"}],"stateMutability":"view"},{"type":"function","name":"pause","inputs":[],"outputs":[],"stateMutability":"nonpayable"},{"type":"function","name":"paused","inputs":[],"outputs":[{"name":"","type":"bool","internalType":"bool"}],"stateMutability":"view"},{"type":"function","name":"renounceOwnership","inputs":[],"outputs":[],"stateMutability":"nonpayable"},{"type":"function","name":"transferOwnership","inputs":[{"name":"newOwner","type":"address","internalType":"address"}],"outputs":[],"stateMutability":"nonpayable"},{"type":"function","name":"unpause","inputs":[],"outputs":[],"stateMutability":"nonpayable"},{"type":"function","name":"updateElectionFee","inputs":[{"name":"_newFee","type":"uint256","internalType":"uint256"}],"outputs":[],"stateMutability":"nonpayable"},{"type":"function","name":"withdrawFees","inputs":[{"name":"_to","type":"address","internalType":"address payable"}],"outputs":[],"stateMutability":"nonpayable"},{"type":"event","name":"ElectionCreated","inputs":[{"name":"electionId","type":"uint256","indexed":true,"internalType":"uint256"},{"name":"electionContract","type":"address","indexed":true,"internalType":"address"},{"name":"creator","type":"address","indexed":true,"internalType":"address"},{"name":"title","type":"string","indexed":false,"internalType":"string"},{"name":"startTime","type":"uint256","indexed":false,"internalType":"uint256"},{"name":"endTime","type":"uint256","indexed":false,"internalType":"uint256"}],"anonymous":false},{"type":"event","name":"ElectionDeleted","inputs":[{"name":"electionId","type":"uint256","indexed":true,"internalType":"uint256"},{"name":"electionContract","type":"address","indexed":true,"internalType":"address"},{"name":"deleter","type":"address","indexed":true,"internalType":"address"}],"anonymous":false},{"type":"event","name":"ElectionFeeUpdated","inputs":[{"name":"oldFee","type":"uint256","indexed":false,"internalType":"uint256"},{"name":"newFee","type":"uint256","indexed":false,"internalType":"uint256"}],"anonymous":false},{"type":"event","name":"OwnershipTransferred","inputs":[{"name":"previousOwner","type":"address","indexed":true,"internalType":"address"},{"name":"newOwner","type":"address","indexed":true,"internalType":"address"}],"anonymous":false},{"type":"event","name":"Paused","inputs":[{"name":"account","type":"address","indexed":false,"internalType":"address"}],"anonymous":false},{"type":"event","name":"Unpaused","inputs":[{"name":"account","type":"address","indexed":false,"internalType":"address"}],"anonymous":false},{"type":"error","name":"EnforcedPause","inputs":[]},{"type":"error","name":"ExpectedPause","inputs":[]},{"type":"error","name":"OwnableInvalidOwner","inputs":[{"name":"owner","type":"address","internalType":"address"}]},{"type":"error","name":"OwnableUnauthorizedAccount","inputs":[{"name":"account","type":"address","internalType":"address"}]},{"type":"error","name":"ReentrancyGuardReentrantCall","inputs":[]}],"bytecode":{"object":"0x6080346100ba57601f6200824338819003918201601f19168301916001600160401b038311848410176100be578084926020946040528339810103126100ba575133156100a2575f8054336001600160a01b0319821681178355604051939290916001600160a01b0316907f8be0079c531659141344cd1fd0a4f28419497f9722a3daafe3b4186f6b6457e09080a3600180556004556181709081620000d38239f35b604051631e4fbdf760e01b81525f6004820152602490fd5b5f80fd5b634e487b7160e01b5f52604160045260245ffdfe610120604052600436101562000013575f80fd5b5f803560e01c8063164e68de14620017b3578063218245d5146200176557806326cca3f2146200168b5780633c316221146200162d5780633c7ef4df1462000bdd5780633f4ba83a1462000b6d5780635c975abb1462000b485780635e6fef011462000b13578063624050521462000af3578063715018a61462000a96578063740c47d41462000929578063773e078e14620008f85780637fd5f26814620008035780638456cb5914620007a25780638da5cb5b14620007795780639c73168f14620007365780639d71077714620003965780639d8fa44714620002cd578063bce589351462000234578063dd533fb214620001da578063f2fde38b14620001465763fe2b536b1462000124575f80fd5b3462000143578060031936011262000143576020600354604051908152f35b80fd5b5034620001435760203660031901126200014357620001646200189b565b6200016e62001df7565b6001600160a01b03908116908115620001c1575f54826bffffffffffffffffffffffff60a01b8216175f55167f8be0079c531659141344cd1fd0a4f28419497f9722a3daafe3b4186f6b6457e05f80a380f35b604051631e4fbdf760e01b815260048101849052602490fd5b50346200014357602036600319011262000143577f468f986b109f03ea886bd59abed2474d2cb8760e523e1e7c4139074ec5778d2260406004356200021e62001df7565b600454908060045582519182526020820152a180f35b50346200014357602080600319360112620002c9576001600160a01b036200025b6200189b565b168252600681526040822091604051809384918482549182815201918452848420935b85828210620002b257505050620002989250038362001af0565b620002ae6040519282849384528301906200191a565b0390f35b85548452600195860195889550930192016200027e565b5080fd5b5034620001435760203660031901126200014357600435620002ee62001d3b565b5080825260076020526200030960ff60408420541662001a0e565b815260056020526040808220549051635ba1022f60e01b8152908290829060049082906001600160a01b03165afa9081156200038b5782620002ae939262000363575b505060405191829160208352602083019062001999565b6200038392503d8091833e6200037a818362001af0565b81019062001d12565b5f806200034c565b6040513d84823e3d90fd5b50346200014357602080600319360112620002c957604051600435620003bc8262001a80565b620003c662001d3b565b825260405191620003d78362001a9c565b848352848484015260609283604082015284820152620003f662001d69565b6040820152604051620004098162001a9c565b83815283858201528360408201528382015260806200042762001d69565b910152808452600783526200044360ff60408620541662001a0e565b835260058252604080842054905163eceed33960e01b8152908490829060049082906001600160a01b03165afa9384156200072a5780946200059a575b620005558486620002ae60806200056788846040805198888a998a5262000542620004ba8b6101608488519201526101808d019062001999565b95620005258c8287620004f6878b01519b8383601f199e8f8885030182890152805184528b8101518c8501520151918185820152019062001972565b990151910190606080918051151584526020810151151560208501526040810151604085015201511515910152565b808b0151968c87030160e08d015286519080875286019062001972565b9080860151908583039086015262001972565b92015190604081840391015262001972565b92015180511515610100850152602081015115156101208501526040810151610140850152606001511515610160840152565b9093503d8082863e620005ae818662001af0565b8401908385830312620001435784516001600160401b03958682116200072257019061016082840312620001435760405195620005eb8762001a80565b82518181116200072257846200060391850162001c74565b8752858301518181116200072257830185818603126200072257604051906200062c8262001a9c565b8051825287810151888301526040810151908382116200072657620006549187910162001c27565b6040820152868801526200066c846040850162001d9d565b604088015260c0830151818111620007225783018581860312620007225760405192620006998462001a9c565b8151838111620002c95786620006b191840162001c27565b845287820151838111620002c95786620006cd91840162001c27565b8885015260408201519283116200014357508460e0608095620005679562000705620002ae99620005559d9762000715970162001c27565b6040820152898601520162001d9d565b8382015295505062000480565b8280fd5b8480fd5b604051903d90823e3d90fd5b503462000143576020366003190112620001435760209060ff906040906001600160a01b03620007656200189b565b168152600884522054166040519015158152f35b50346200014357806003193601126200014357546040516001600160a01b039091168152602090f35b50346200014357806003193601126200014357620007bf62001df7565b620007c962001e23565b600160ff1960025416176002557f62e78cea01bee320cd4e420270b5ea74000d11b0c9f74754ebdbfc544b05a2586020604051338152a180f35b50346200014357806003193601126200014357600354620008248162001b12565b9062000834604051928362001af0565b808252620008428162001b12565b60209190601f190136848401376200085a8162001b2a565b9160015b8281111562000895576200088685620002ae866040519384936040855260408501906200191a565b908382036020850152620018b2565b5f198101818111620008e457908181620008b4620008de948962001b62565b528188526005845260408820546001600160a01b031690620008d7908762001b62565b5262001b99565b6200085e565b634e487b7160e01b87526011600452602487fd5b503462000143576020366003190112620001435760ff60406020926004358152600784522054166040519015158152f35b503462000143576020366003190112620001435760043580825260076020526200095a60ff60408420541662001a0e565b80825260056020526040808320549051635ba1022f60e01b81526001600160a01b0391821691908481600481865afa801562000a8b57604091869162000a6d575b50015116330362000a1657803b1562000722576040516333be940d60e01b81528390818160048183875af180156200038b57620009fe575b505033917f78a780144e143c3fa77973db7b0006e9ac8c19d16577f289e30de4d30d0316c28480a480f35b62000a099062001a6c565b6200072257825f620009d3565b60405162461bcd60e51b815260206004820152602960248201527f456c656374696f6e466163746f72793a204e6f742074686520656c656374696f604482015268371031b932b0ba37b960b91b6064820152608490fd5b62000a8491503d8088833e6200037a818362001af0565b5f6200099b565b6040513d87823e3d90fd5b5034620001435780600319360112620001435762000ab362001df7565b5f80546001600160a01b0319811682556001600160a01b03167f8be0079c531659141344cd1fd0a4f28419497f9722a3daafe3b4186f6b6457e08280a380f35b503462000143578060031936011262000143576020600454604051908152f35b5034620001435760203660031901126200014357602090600435815260058252604060018060a01b0391205416604051908152f35b50346200014357806003193601126200014357602060ff600254166040519015158152f35b5034620001435780600319360112620001435762000b8a62001df7565b60025460ff81161562000bcb5760ff19166002557f5db9ee0a495bf2e6ff9c91a7834c1ba4fdd244a5e8aa4e537bd38aeae4b073aa6020604051338152a180f35b604051638dfc202b60e01b8152600490fd5b5060031960203682011262001245576001600160401b03600435116200124557610200906004353603011262001245576002600154146200161b57600260015562000c2762001e23565b42604460043501351115620015bc57604460043501356064600435013511156200155c57610e1062000c66604460043501356064600435013562001b77565b1062001502576301e1338062000c89604460043501356064600435013562001b77565b11620014a95760045434106200145a5762000ca960048035018062001ba8565b905015620014065760c862000cc360048035018062001ba8565b905011620013c15761138862000ce460246004350160043560040162001ba8565b9050116200136e576107d062000d066101246004350160043560040162001ba8565b90501162001314576107d062000d286101446004350160043560040162001ba8565b905011620012bb576107d062000d4a6101646004350160043560040162001ba8565b9050116200125d5762000d5f60035462001b99565b600381905562000d7460048035018062001ba8565b60e05262000d8d60246004350160043560040162001ba8565b62000da360846004350160043560040162001ba8565b92909362000db660a46004350162001bdd565b62000dc660c46004350162001bdd565b6101005262000ddb6101046004350162001bdd565b9262000df36101246004350160043560040162001ba8565b91909262000e0d6101446004350160043560040162001ba8565b93909462000e276101646004350160043560040162001ba8565b98909962000e3b6101846004350162001bdd565b60a05262000e4f6101a46004350162001bdd565b9c62000e616101e46004350162001bdd565b60805260405160c08190526001600160401b036161fe8201908111911117620012495762000fb69c62000eed62000f869862000f2c9462000ed662000f9e9e6161fe62001f3d60c05139610220336161fe60c05101528060206161fe60c0510101526161fe60c05101019060e0519062001beb565b60c0516161fe018082036040909101529162001beb565b916044600435013560606161fe60c0510101526064600435013560806161fe60c0510101526161fe60c05101830360a06161fe60c05101015262001beb565b93151560c06161fe815101015261010051151560e06161fe60c05101015260e460043501356101006161fe60c05101015215156101206161fe60c0510101526161fe60c0510183036101406161fe60c05101015262001beb565b60c0516161fe01808203610160909101529162001beb565b60c0516161fe01808203610180909101529162001beb565b9060a05115156101a06161fe60c05101015215156101c06161fe60c0510101526101c460043501356101e06161fe60c05101015260805115156102006161fe60c05101015260c051900360c0515ff080156200123a5760018060a01b0316815f52600560205260405f20816bffffffffffffffffffffffff60a01b825416179055600760205260405f2060ff1990600182825416179055815f526008602052600160405f2091825416179055335f52600660205260405f2080546801000000000000000081101562001249576200109391600182018155620018f0565b81549060031b9084821b915f19901b1916179055620010fe620011216020604051620010bf8162001ad4565b601381528181017268747470733a2f2f74616c6c792f766f74652f60681b8152620010ea8762001e42565b90604051958693518092868601906200194f565b820162001114825180938680850191016200194f565b0103808452018262001af0565b813b1562001245575f62001152916040518093819263489e424560e01b835260206004840152602483019062001972565b038183865af180156200123a5762001224575b50620011b281837fa137c8139e38adff899cd7edacc9ee6367a1d662b899949a2cfcdb75410c05b66200119d60048035018062001ba8565b94906040519560608752606087019162001beb565b936044600435013560208201526064600435013560408201528033950390a4600454803411620011f1575b604083836001805582519182526020820152f35b8380806200120181943462001b77565b8181156200121a575b3390f1156200038b5782620011dd565b506108fc6200120a565b6200123191935062001a6c565b5f915f62001165565b6040513d5f823e3d90fd5b5f80fd5b634e487b7160e01b5f52604160045260245ffd5b60405162461bcd60e51b815260206004820152603060248201527f456c656374696f6e466163746f72793a20416674657220656c656374696f6e2060448201526f6d65737361676520746f6f206c6f6e6760801b6064820152608490fd5b60405162461bcd60e51b815260206004820152602b60248201527f456c656374696f6e466163746f72793a20566f746520636f6e6669726d61746960448201526a6f6e20746f6f206c6f6e6760a81b6064820152608490fd5b60405162461bcd60e51b815260206004820152602c60248201527f456c656374696f6e466163746f72793a204c6f67696e20696e7374727563746960448201526b6f6e7320746f6f206c6f6e6760a01b6064820152608490fd5b60405162461bcd60e51b815260206004820152602560248201527f456c656374696f6e466163746f72793a204465736372697074696f6e20746f6f604482015264206c6f6e6760d81b6064820152608490fd5b60405162461bcd60e51b815260206004820152601f60248201527f456c656374696f6e466163746f72793a205469746c6520746f6f206c6f6e67006044820152606490fd5b60405162461bcd60e51b815260206004820152602660248201527f456c656374696f6e466163746f72793a205469746c652063616e6e6f7420626560448201526520656d70747960d01b6064820152608490fd5b60405162461bcd60e51b815260206004820152602160248201527f456c656374696f6e466163746f72793a20496e73756666696369656e742066656044820152606560f81b6064820152608490fd5b60405162461bcd60e51b815260206004820152602b60248201527f456c656374696f6e466163746f72793a20456c656374696f6e2064757261746960448201526a6f6e20746f6f206c6f6e6760a81b6064820152608490fd5b60405162461bcd60e51b815260206004820152602c60248201527f456c656374696f6e466163746f72793a20456c656374696f6e2064757261746960448201526b1bdb881d1bdbc81cda1bdc9d60a21b6064820152608490fd5b60405162461bcd60e51b815260206004820152603260248201527f456c656374696f6e466163746f72793a20456e642074696d65206d7573742062604482015271652061667465722073746172742074696d6560701b6064820152608490fd5b60405162461bcd60e51b815260206004820152603160248201527f456c656374696f6e466163746f72793a2053746172742074696d65206d75737460448201527020626520696e207468652066757475726560781b6064820152608490fd5b604051633ee5aeb560e01b8152600490fd5b346200124557604036600319011262001245576200164a6200189b565b6001600160a01b03165f9081526006602052604090208054602435919082101562001245576020916200167d91620018f0565b90546040519160031b1c8152f35b34620012455760208060031936011262001245576001600160a01b0380620016b26200189b565b165f526006825260405f20906040518083858295549384815201905f52855f20925f5b878282106200174e57505050620016ef9250038362001af0565b620016fb825162001b2a565b925f5b8351811015620017395780620017176001928662001b62565b515f52600583528360405f20541662001731828862001b62565b5201620016fe565b60405182815280620002ae81850188620018b2565b8554845260019586019588955093019201620016d5565b34620012455760203660031901126200124557600435805f5260076020526200179560ff60405f20541662001a0e565b5f526005602052602060018060a01b0360405f205416604051908152f35b346200124557602036600319011262001245576004356001600160a01b038116908190036200124557620017e662001df7565b801562001857574790811562001806575f808093819382f1156200123a57005b60405162461bcd60e51b8152602060048201526024808201527f456c656374696f6e466163746f72793a204e6f206665657320746f20776974686044820152636472617760e01b6064820152608490fd5b606460405162461bcd60e51b815260206004820152602060248201527f456c656374696f6e466163746f72793a20496e76616c696420616464726573736044820152fd5b600435906001600160a01b03821682036200124557565b9081518082526020808093019301915f5b828110620018d2575050505090565b83516001600160a01b031685529381019392810192600101620018c3565b805482101562001906575f5260205f2001905f90565b634e487b7160e01b5f52603260045260245ffd5b9081518082526020808093019301915f5b8281106200193a575050505090565b8351855293810193928101926001016200192b565b5f5b838110620019615750505f910152565b818101518382015260200162001951565b906020916200198d815180928185528580860191016200194f565b601f01601f1916010190565b906080620019c8620019b5845160a0855260a085019062001972565b6020850151848203602086015262001972565b6040808501516001600160a01b03169084015260608085015190840152920151906006821015620019fa576080015290565b634e487b7160e01b5f52602160045260245ffd5b1562001a1657565b60405162461bcd60e51b815260206004820152602860248201527f456c656374696f6e466163746f72793a20456c656374696f6e20646f6573206e6044820152671bdd08195e1a5cdd60c21b6064820152608490fd5b6001600160401b0381116200124957604052565b60a081019081106001600160401b038211176200124957604052565b606081019081106001600160401b038211176200124957604052565b608081019081106001600160401b038211176200124957604052565b604081019081106001600160401b038211176200124957604052565b90601f801991011681019081106001600160401b038211176200124957604052565b6001600160401b038111620012495760051b60200190565b9062001b368262001b12565b62001b45604051918262001af0565b828152809262001b58601f199162001b12565b0190602036910137565b8051821015620019065760209160051b010190565b9190820391821162001b8557565b634e487b7160e01b5f52601160045260245ffd5b5f19811462001b855760010190565b903590601e19813603018212156200124557018035906001600160401b03821162001245576020019181360383136200124557565b358015158103620012455790565b908060209392818452848401375f828201840152601f01601f1916010190565b6001600160401b0381116200124957601f01601f191660200190565b81601f820112156200124557805162001c408162001c0b565b9262001c50604051948562001af0565b81845260208284010111620012455762001c7191602080850191016200194f565b90565b91909160a08184031262001245576040519062001c918262001a80565b81938151906001600160401b039182811162001245578162001cb591850162001c27565b84526020830151918211620012455762001cd191830162001c27565b60208301526040810151906001600160a01b038216820362001245576080916040840152606081015160608401520151906006821015620012455760800152565b90602082820312620012455781516001600160401b038111620012455762001c71920162001c74565b6040519062001d4a8262001a80565b5f60808360608152606060208201528260408201528260608201520152565b6040519062001d788262001ab8565b5f6060838281528260208201528260408201520152565b519081151582036200124557565b9190826080910312620012455760405162001db88162001ab8565b606062001df281839562001dcc8162001d8f565b855262001ddc6020820162001d8f565b6020860152604081015160408601520162001d8f565b910152565b5f546001600160a01b0316330362001e0b57565b60405163118cdaa760e01b8152336004820152602490fd5b60ff6002541662001e3057565b60405163d93c066560e01b8152600490fd5b90811562001f1b579080815f925b62001efe575062001e618262001c0b565b9162001e71604051938462001af0565b808352601f1962001e828262001c0b565b01366020850137905b81811562001ef8575f19830192831162001b855782600a908184049382850292858404148515171562001b855762001ec760ff93849262001b77565b1660300191821162001b855785511115620019065760f81b6001600160f81b0319165f1a908401601f015362001e8b565b50505090565b9162001f0f600a9194929462001b99565b92048093919362001e50565b905060405162001f2b8162001ad4565b60018152600360fc1b60208201529056fe60a06040523462000c2057620061fe803803806200001d8162000c64565b92833961022082828101031262000c20578151906001600160a01b038216820362000c205760208301516001600160401b03811162000c2057620000679082850190850162000c8a565b60408401519092906001600160401b03811162000c20576200008f9083860190860162000c8a565b9160608501519060808601519060a087015160018060401b03811162000c2057620000c09082890190890162000c8a565b620000ce60c0890162000cfa565b620000dc60e08a0162000cfa565b906101008a015191620000f36101208c0162000cfa565b6101408c01519094906001600160401b03811162000c20578c6200011c91888201910162000c8a565b6101608d0151989097906001600160401b038a1162000c20576101806200014a8f9b8a8d01908d0162000c8a565b9a01519b6001600160401b038d1162000c20578e9d8e9d8e9a8b01908b0190620001749162000c8a565b996101a001620001849062000cfa565b9f6101c001620001949062000cfa565b9d6101e001519e61020001620001aa9062000cfa565b9c6001600160a01b0381161562000c08575f80546001600160a01b038381166001600160a01b0319831681178455929116907f8be0079c531659141344cd1fd0a4f28419497f9722a3daafe3b4186f6b6457e09080a36001805533608052604051926001600160401b0360a0850190811190851117620007125760a08401604052828452602084015260018060a01b031660408301524260608301525f608083015280519060018060401b038211620007125760035490600182811c9216801562000bfd575b6020831014620006f35781601f84931162000b8d575b50602090601f831160011462000b00575f9262000af4575b50508160011b915f199060031b1c1916176003555b60208101518051906001600160401b0382116200071257600454600181811c9116801562000ae9575b6020821014620006f357601f811162000a85575b50602090601f831160011462000a155760809392915f918362000a09575b50508160011b915f199060031b1c1916176004555b60018060a01b0360408201511660018060a01b03196005541617600555606081015160065501516006811015620009f55760ff8019600754169116176007558260406200036f62000c24565b8381526020810185905201526008556009558051906001600160401b0382116200071257600a5490600182811c92168015620009ea575b6020831014620006f35781601f8493116200098c575b50602090601f831160011462000911575f9262000905575b50508160011b915f199060031b1c191617600a555b620003f362000c44565b82151581528115156020820152836040820152606085151591015260ff61ff00600b5492151560081b16921515169061ffff19161717600b55600c5560ff8019600d54169115151617600d556200044962000c24565b828152602081019390935260408301528051906001600160401b0382116200071257600e5490600182811c92168015620008fa575b6020831014620006f35781601f8493116200089c575b50602090601f831160011462000821575f9262000815575b50508160011b915f199060031b1c191617600e555b60208101518051906001600160401b0382116200071257600f54600181811c911680156200080a575b6020821014620006f357601f8111620007a2575b50602090601f8311600114620007325760409392915f918362000726575b50508160011b915f199060031b1c191617600f555b0151805194906001600160401b0386116200071257601054600181811c9116801562000707575b6020821014620006f357601f81116200069d575b50602090601f87116001146200062357606096915f918362000617575b50508160011b915f199060031b1c1916176010555b620005a862000c44565b901515928382521515918260208301528460408301521515948591015260ff61ff006011549260081b1692169061ffff1916171760115560125560ff801960135416911617601355604051615495908162000d098239608051818181610ebc0152818161233601526131820152f35b015190505f8062000589565b60105f9081525f80516020620061de833981519152929190601f198916905b81811062000684575091600193918960609a94106200066b575b505050811b016010556200059e565b01515f1960f88460031b161c191690555f80806200065c565b9293602060018192878601518155019501930162000642565b60105f525f80516020620061de833981519152601f880160051c81019160208910620006e8575b601f0160051c01905b818110620006dc57506200056c565b5f8155600101620006cd565b9091508190620006c4565b634e487b7160e01b5f52602260045260245ffd5b90607f169062000558565b634e487b7160e01b5f52604160045260245ffd5b015190505f806200051c565b90600f5f5260205f20915f5b601f198516811062000789575091839160019360409695601f1981161062000770575b505050811b01600f5562000531565b01515f1960f88460031b161c191690555f808062000761565b919260206001819286850151815501940192016200073e565b600f5f527f8d1108e10bcb7c27dddfc02ed9d693a074039d026cf4ea4240b40f7d581ac802601f840160051c81019160208510620007ff575b601f0160051c01905b818110620007f35750620004fe565b5f8155600101620007e4565b9091508190620007db565b90607f1690620004ea565b015190505f80620004ac565b600e5f90815293505f805160206200619e83398151915291905b601f198416851062000880576001945083601f1981161062000867575b505050811b01600e55620004c1565b01515f1960f88460031b161c191690555f808062000858565b818101518355602094850194600190930192909101906200083b565b600e5f529091505f805160206200619e833981519152601f840160051c810160208510620008f2575b90849392915b601f830160051c82018110620008e357505062000494565b5f8155859450600101620008cb565b5080620008c5565b91607f16916200047e565b015190505f80620003d4565b600a5f90815293505f80516020620061be83398151915291905b601f198416851062000970576001945083601f1981161062000957575b505050811b01600a55620003e9565b01515f1960f88460031b161c191690555f808062000948565b818101518355602094850194600190930192909101906200092b565b600a5f529091505f80516020620061be833981519152601f840160051c810160208510620009e2575b90849392915b601f830160051c82018110620009d3575050620003bc565b5f8155859450600101620009bb565b5080620009b5565b91607f1691620003a6565b634e487b7160e01b5f52602160045260245ffd5b015190505f806200030e565b9060045f5260205f20915f5b601f198516811062000a6c575091839160019360809695601f1981161062000a53575b505050811b0160045562000323565b01515f1960f88460031b161c191690555f808062000a44565b9192602060018192868501518155019401920162000a21565b60045f527f8a35acfbc15ff81a39ae7d344fd709f28e8600b4aa8c65c6b64bfe7fe36bd19b601f840160051c81016020851062000ae1575b601f830160051c8201811062000ad5575050620002f0565b5f815560010162000abd565b508062000abd565b90607f1690620002dc565b015190505f806200029e565b60035f90815293507fc2575a0e9e593c00f959f8c92f12db2869c3395a3b0502d05e2516446f71f85b91905b601f198416851062000b71576001945083601f1981161062000b58575b505050811b01600355620002b3565b01515f1960f88460031b161c191690555f808062000b49565b8181015183556020948501946001909301929091019062000b2c565b60035f529091507fc2575a0e9e593c00f959f8c92f12db2869c3395a3b0502d05e2516446f71f85b601f840160051c81016020851062000bf5575b90849392915b601f830160051c8201811062000be657505062000286565b5f815585945060010162000bce565b508062000bc8565b91607f169162000270565b604051631e4fbdf760e01b81525f6004820152602490fd5b5f80fd5b60405190606082016001600160401b038111838210176200071257604052565b60405190608082016001600160401b038111838210176200071257604052565b6040519190601f01601f191682016001600160401b038111838210176200071257604052565b919080601f8401121562000c205782516001600160401b038111620007125760209062000cc0601f8201601f1916830162000c64565b9281845282828701011162000c20575f5b81811062000ce65750825f9394955001015290565b858101830151848201840152820162000cd1565b5190811515820362000c205756fe60c06040526004361015610011575f80fd5b5f803560e01c80630b6832111461403d57806310e60d4d1461400957806314a0069a14613f435780631573f68814613e0957806316e4cbf914613de35780631758efa014613d3a5780631a45cde114613b0c5780631b441c9c14613af0578063221206b6146134bb5780632a0272111461349f5780632ef9a160146134845780632f4bd2a1146133db57806333be940d146133115780633f4ba83a1461329b57806341ccbec3146131c757806342169e48146131aa578063489e424514612f635780634bdd758514612eb057806356e1505814612e07578063590ffe8814612d325780635ab0bd2014612ce65780635b6a2da614612cc85780635ba1022f14612c745780635c632b3814612bcf5780635c975abb14612bad5780636db64d8114612acf57806370fad9c8146129f8578063715018a6146129a157806372a8f3021461260b57806373da71d21461235e578063777d31b314611ff85780637dc6c6e014611fc9578063809f96a414611a1a5780638456cb591461199f5780638b654d171461195e5780638da5cb5b146119375780639201ea0a1461191a578063a2a5a2fb1461155b578063aa98e85114611171578063ba670210146110a5578063baa40e5c14610f09578063c003003214610eeb578063c45a015514610ea6578063c638407114610e88578063d65c3bf614610e32578063d8d4d9291461093e578063eceed339146107bd578063ed570e7d1461077e578063eed9fd0b14610705578063ef97e126146105fb578063f2fde38b14610573578063f6832643146104ff578063f839cd4514610491578063f84316f7146104235763f9d5ee7514610277575f80fd5b346104205760209081600319360112610420576040519060043561029a836140ee565b8183528160a060609485878201528560408201528286820152856080820152015260ff60075416600681101561040c5760056102d7911415614c15565b80151580610400575b156103bb579060409181526018845220906103b060405192610301846140ee565b8054845261031160018201614247565b9285850193845261032460028301614247565b916040860192835261039760ff600383015416938388019415158552610383600561035160048601614247565b9460808b0195865201549760a08a019889526040519a8b9a818c5251908b01525160c060408b015260e08a01906142e9565b9051601f1994858a840301908a01526142e9565b92511515608087015251908583030160a08601526142e9565b905160c08301520390f35b60405162461bcd60e51b815260048101859052601b60248201527f456c656374696f6e3a20496e76616c69642062616c6c6f7420494400000000006044820152606490fd5b506019548111156102e0565b634e487b7160e01b83526021600452602483fd5b80fd5b503461042057806003193601126104205761043c614fb6565b5060ff6007541690600682101561047d5761045a6005831415614c15565b61047961046561464a565b6040519182916020835260208301906149c0565b0390f35b634e487b7160e01b81526021600452602490fd5b5034610420576040366003190112610420576004356001600160401b0381116104fb576104c290369060040161430e565b909160ff6007541690600682101561047d5760206104f185856104e86005871415614c15565b60243591614fd5565b6040519015158152f35b5080fd5b5034610420578060031936011261042057610518614f65565b5060ff6007541690600682101561047d576105366005831415614c15565b608061054061472d565b6105716040518092606080918051151584526020810151151560208501526040810151604085015201511515910152565bf35b50346104205760203660031901126104205761058d614420565b6105956153d4565b6001600160a01b039081169081156105e2575f54826001600160601b0360a01b8216175f55167f8be0079c531659141344cd1fd0a4f28419497f9722a3daafe3b4186f6b6457e05f80a380f35b604051631e4fbdf760e01b815260048101849052602490fd5b50346104205761060a3661436b565b94969596939093929192338752602160205260ff60408820541680156106f1575b1561069e5760ff6007541697600689101561068a576106506002610683999a14614a6c565b61067661066f610669610664368686614145565b6141e9565b5461420f565b1515614ab7565b61067e615046565b614b63565b6001805580f35b634e487b7160e01b88526021600452602488fd5b60405162461bcd60e51b815260206004820152602560248201527f456c656374696f6e3a204e6f7420616e20617574686f72697a6564207061796d60448201526430b9ba32b960d91b6064820152608490fd5b506020546001600160a01b0316331461062b565b50346104205761076b61072f602061071c3661418a565b81604051938285809451938492016141c8565b8101601e81520301902061047961074582614247565b91610757600360028301549201614247565b6040519485946060865260608601906142e9565b91602085015283820360408501526142e9565b50346104205760203660031901126104205760209060ff906040906001600160a01b036107a9614420565b168152602184522054166040519015158152f35b50346104205780600319360112610420576040516107da816140b8565b6107e2614f2c565b81526107ec614fb6565b60208201526107f9614f65565b6040820152610806614f97565b60608201526080610815614f65565b91015260ff6007541690600682101561047d576108356005831415614c15565b6108b6604051610844816140b8565b61084c61449b565b815261085661464a565b6020820190815261047961090c61086b61472d565b6040850190815261087a6147a5565b936060860194855261088a614769565b94608087019586526108fc6108cc604051998a9960208b525161016060208c01526101808b0190614443565b935193601f1994858b83030160408c01526149c0565b93516060890190606080918051151584526020810151151560208501526040810151604085015201511515910152565b51908683030160e08701526149e7565b915180511515610100850152602081015115156101208501526040810151610140850152606001511515610160840152565b5034610420576080366003190112610420576004356001600160401b0381116104fb5761096f90369060040161430e565b906024356001600160401b038111610e2e5761098f90369060040161430e565b604493919335908115158203610e2a576064356001600160401b038111610e26576109be90369060040161430e565b916109d460018060a01b03600554163314614c6d565b60ff600754166006811015610e12576109f06005821415614c15565b610db3576109ff601954614f89565b9687601955610a3160405191610a14836140ee565b898352610a2236898b614145565b93602084019485523691614145565b60408201528415156060820152610a49368585614145565b60808201524260a08201528789526018602052604089209181518355518051906001600160401b038211610d3157610a9182610a88600187015461420f565b60018701614e13565b602090601f8311600114610d4557610ac092918c9183610c11575b50508160011b915f199060031b1c19161790565b60018301555b60408101518051906001600160401b038211610d3157610af682610aed600287015461420f565b60028701614e13565b602090601f8311600114610cc357610b2492918c9183610c115750508160011b915f199060031b1c19161790565b60028301555b610b4960608201511515600384019060ff801983541691151516179055565b6004820160808201518051906001600160401b038211610caf57610b7782610b71855461420f565b85614e13565b6020908c601f8411600114610c1c5793610bd78460059560a0957f28afa223915618464d14cac44a0ac3771f04c4060c43556d923b9d66b23c5c469f9e9d9b9995610c0b9d9b9992610c115750508160011b915f199060031b1c19161790565b90555b0151910155610bf6604051968796606088526060880191614e62565b92151560208601528483036040860152614e62565b0390a280f35b015190505f80610aac565b9190601f19841685845260208420935b818110610c9757508460a0947f28afa223915618464d14cac44a0ac3771f04c4060c43556d923b9d66b23c5c469e9d9c9a9894610c0b9c9a989460059860019510610c7f575b505050811b019055610bda565b01515f1960f88460031b161c191690555f8080610c72565b92936020600181928786015181550195019301610c2c565b634e487b7160e01b8c52604160045260248cfd5b9190600285018c5260208c20908c935b601f1984168510610d16576001945083601f19811610610cfe575b505050811b016002830155610b2a565b01515f1960f88460031b161c191690555f8080610cee565b81810151835560209485019460019093019290910190610cd3565b634e487b7160e01b8b52604160045260248bfd5b9190600185018c5260208c20908c935b601f1984168510610d98576001945083601f19811610610d80575b505050811b016001830155610ac6565b01515f1960f88460031b161c191690555f8080610d70565b81810151835560209485019460019093019290910190610d55565b60405162461bcd60e51b815260206004820152603160248201527f456c656374696f6e3a2043616e206f6e6c79206164642062616c6c6f747320746044820152706f20647261667420656c656374696f6e7360781b6064820152608490fd5b634e487b7160e01b89526021600452602489fd5b8680fd5b5f80fd5b8380fd5b5034610420578060031936011261042057610e4b614f97565b5060ff6007541690600682101561047d57610e696005831415614c15565b610479610e746147a5565b6040519182916020835260208301906149e7565b50346104205780600319360112610420576020601f54604051908152f35b50346104205780600319360112610420576040517f00000000000000000000000000000000000000000000000000000000000000006001600160a01b03168152602090f35b50346104205780600319360112610420576020601954604051908152f35b5034610420576020806003193601126104fb576004356001600160401b0381116110a157610f3b90369060040161430e565b6040519391610f49856140d3565b60608086818098528187820152856040820152015260ff60075416600681101561108d5790610f7f600586959796931415614c15565b8260405193849283378101601e8152030190209260405191610fa0836140d3565b610fa985614247565b83526001808601956040519384848954918281520198825284822090825b81811061107a57505050610fe08561101f990386614124565b838601948552610ffe60036002840154936040890194855201614247565b92878701938452604051988997868952516080878a015260a08901906142e9565b955195601f1995868983030160408a01528080895193848152019801935b828110611064575050505050946104799495519086015251908483030160808501526142e9565b845189528b99509781019793810193830161103d565b82548b5299860199918501918501610fc7565b634e487b7160e01b84526021600452602484fd5b8280fd5b5034610420576020366003190112610420576004356110cf60018060a01b03600554163314614c6d565b60ff60075416600681101561040c5760056110eb911415614c15565b808252601c60205260ff604083205416611118578152601c60205260408120805460ff1916600117905580f35b60405162461bcd60e51b815260206004820152602b60248201527f456c656374696f6e3a20566f746572206b6579206861736820616c726561647960448201526a081c9959da5cdd195c995960aa1b6064820152608490fd5b50346104205760803660031901126104205761118b614420565b906024356001600160401b0381116104fb576111ab90369060040161430e565b6005546001600160a01b0394906111c59086163314614c6d565b60ff6007541660068110156115475760056111e1911415614c15565b6111ec821515614d42565b61121361120d60405184868237602081868101601a8152030190205461420f565b15614d99565b601d54600c541115611503576040519461122c866140b8565b611237368486614145565b86528082166020870152604435604087015284606087015242608087015260405183858237602081858101601a81520301902086518051906001600160401b0382116114ef5761128b82610b71855461420f565b602090601f8311600114611487576112b99291899183610c115750508160011b915f199060031b1c19161790565b81555b6004608060019860018401856020830151166001600160601b0360a01b8254161790556040810151600285015561130860608201511515600386019060ff801983541691151516179055565b01519101558082168552601b602052604085206001600160401b0384116114735761133d84611337835461420f565b83614e13565b8596601f85116001146113ee575061138d848088997f5bb3f0972696ce3de4ea71cbd5639e249ef6d624ee4ca9bab6bfd36d74586d5199916113e3575b508160011b915f199060031b1c19161790565b90555b6064358652601c60205260408620600160ff198254161790556113b4601d54614f89565b601d556113ce604051948594606086526060860191614e62565b9116602083015260443560408301520390a180f35b90508701355f61137a565b601f19851697828852602088209188905b8a821061145a575050857f5bb3f0972696ce3de4ea71cbd5639e249ef6d624ee4ca9bab6bfd36d74586d51989910611441575b5050600184811b019055611390565b8601355f19600387901b60f8161c191690555f80611432565b9091926020828192868c013581550194019201906113ff565b634e487b7160e01b86526041600452602486fd5b9190838952602089209089935b601f19841685106114d4576001945083601f198116106114bc575b505050811b0181556112bc565b01515f1960f88460031b161c191690555f80806114af565b81810151835560209485019460019093019290910190611494565b634e487b7160e01b88526041600452602488fd5b606460405162461bcd60e51b815260206004820152602060248201527f456c656374696f6e3a204d6178696d756d20766f7465727320726561636865646044820152fd5b634e487b7160e01b85526021600452602485fd5b50346104205761156a36614a26565b91600594939461158460018060a01b038254163314614c6d565b60ff60075416600681101561190657806115a3836115a9931415614c15565b15614e82565b811515806118fb575b156118b6576113888411611871576001600160401b03808311611473576003926115dc845461420f565b97601f98898111611814575b50879089831160011461179657611615929189918361169b5750508160011b915f199060031b1c19161790565b83555b84116117825761162960045461420f565b90868211611728575b5050839483116001146116a6575082938291611661949261169b5750508160011b915f199060031b1c19161790565b6004555b6040516020815260096020820152686261736963496e666f60b81b60408201525f8051602061540083398151915260603392a280f35b013590505f80610aac565b60048452601f198316947f8a35acfbc15ff81a39ae7d344fd709f28e8600b4aa8c65c6b64bfe7fe36bd19b9291855b87811061171057508460019697106116f7575b50505050811b01600455611665565b60f8855f19921b161c199101351690555f8080806116e8565b919360206001819287870135815501950192016116d5565b60045f527f8a35acfbc15ff81a39ae7d344fd709f28e8600b4aa8c65c6b64bfe7fe36bd19b9087808701821c83019360208810611779575b01901c01905b81811015611632575f8155600101611766565b93508293611760565b634e487b7160e01b85526041600452602485fd5b8589527fc2575a0e9e593c00f959f8c92f12db2869c3395a3b0502d05e2516446f71f85b91601f1984168a5b8181106117fc57509084600195949392106117e5575b505050811b018355611618565b01355f1983881b60f8161c191690555f80806117d8565b919360206001819287870135815501950192016117c2565b855f527fc2575a0e9e593c00f959f8c92f12db2869c3395a3b0502d05e2516446f71f85b8a808501871c82019260208610611868575b01861c01905b81811061185d57506115e8565b5f8155600101611850565b9250819261184a565b60405162461bcd60e51b815260206004820152601e60248201527f456c656374696f6e3a204465736372697074696f6e20746f6f206c6f6e6700006044820152606490fd5b60405162461bcd60e51b815260206004820152601e60248201527f456c656374696f6e3a20496e76616c6964207469746c65206c656e67746800006044820152606490fd5b5060c88211156115b2565b634e487b7160e01b86526021600452602486fd5b503461042057806003193601126104205760206040516113888152f35b5034610420578060031936011261042057546040516001600160a01b039091168152602090f35b5034610420578060031936011261042057611977614f65565b5060ff6007541690600682101561047d576119956005831415614c15565b6080610540614769565b50346104205780600319360112610420576119c560018060a01b03600554163314614c6d565b60025460ff8116611a085760019060ff1916176002557f62e78cea01bee320cd4e420270b5ea74000d11b0c9f74754ebdbfc544b05a2586020604051338152a180f35b60405163d93c066560e01b8152600490fd5b50346104205760031990602036830181136104fb576001600160401b0392600435848111610e2e57606081600401928236030112610e2e576005611a6860018060a01b038254163314614c6d565b60ff60075416600681101561190657806115a383611a87931415614c15565b611a918380614ce5565b90506107d0809111611f76576024938484019382611aaf8684614ce5565b905011611f275760440191611ac48383614ce5565b905011611ed157611ad58180614ce5565b898196929611611ddb57611aea600e5461420f565b95601f96878111611e74575b508990878311600114611dee579180611b2892611b3295948d9261169b5750508160011b915f199060031b1c19161790565b600e555b82614ce5565b90898211611ddb57611b45600f5461420f565b868111611d7e575b508890868311600114611cf7579180611b8092611b889695948c9261169b5750508160011b915f199060031b1c19161790565b600f55614ce5565b9390968411611ce55750611b9d60105461420f565b90828211611c8c575b505083908211600114611c0c5781908495611bd594959261169b5750508160011b915f199060031b1c19161790565b6010555b600860405191808352820152676d6573736167657360c01b60408201525f8051602061540083398151915260603392a280f35b60108452601f198216947f1b6847dc741a1b0cd08d278845f9d819d87b734759afb55fe2de5cb82a9ae67291855b878110611c75575083600195969710611c5c575b505050811b01601055611bd9565b01355f19600384901b60f8161c191690555f8080611c4e565b909285600181928686013581550194019101611c3a565b60105f527f1b6847dc741a1b0cd08d278845f9d819d87b734759afb55fe2de5cb82a9ae6729083808601821c830193878710611cdc575b01901c01905b81811015611ba6575f8155600101611cc9565b93508293611cc3565b634e487b7160e01b8652604160045285fd5b600f8a527f8d1108e10bcb7c27dddfc02ed9d693a074039d026cf4ea4240b40f7d581ac80291601f1984168b5b8b828210611d68575050916001939185611b889897969410611d4f575b505050811b01600f55614ce5565b01355f19600384901b60f8161c191690555f8080611d41565b6001849682939587013581550195019201611d24565b600f5f527f8d1108e10bcb7c27dddfc02ed9d693a074039d026cf4ea4240b40f7d581ac80287808501881c8201928b8610611dd2575b01871c01905b818110611dc75750611b4d565b5f8155600101611dba565b92508192611db4565b634e487b7160e01b895260416004528689fd5b600e8b527fbb7b4a454dc3493923482f07822329ed19e8244eff582cc204f8554c3620c3fd91601f1984168c5b8c828210611e5e575050916001939185611b3297969410611e45575b505050811b01600e55611b2c565b01355f19600384901b60f8161c191690555f8080611e37565b6001849682939587013581550195019201611e1b565b600e5f527fbb7b4a454dc3493923482f07822329ed19e8244eff582cc204f8554c3620c3fd88808501891c8201928c8610611ec8575b01881c01905b818110611ebd5750611af6565b5f8155600101611eb0565b92508192611eaa565b60405162461bcd60e51b8152600481018790526029818701527f456c656374696f6e3a20416674657220656c656374696f6e206d65737361676560448201526820746f6f206c6f6e6760b81b6064820152608490fd5b608487876040519162461bcd60e51b83526004830152808201527f456c656374696f6e3a20566f746520636f6e6669726d6174696f6e20746f6f206044820152636c6f6e6760e01b6064820152fd5b60405162461bcd60e51b815260048101869052602560248201527f456c656374696f6e3a204c6f67696e20696e737472756374696f6e7320746f6f604482015264206c6f6e6760d81b6064820152608490fd5b50346104205760203660031901126104205760ff60406020926004358152601c84522054166040519015158152f35b50346104205761200736614a26565b60058054929594939261202f90336001600160a01b0391821614908115612332575b50614ee0565b60ff600754166006811015611906578161204a911415614c15565b6001600160401b03908184116114735761206560145461420f565b91601f928381116122d4575b508685848111600114612253578061209c928a9161224857508160011b915f199060031b1c19161790565b6014555b8311611473576120b160155461420f565b908282116121ee575b50508490821160011461214757948161210d816121369488997f0c970cd74a2e0bb138e53c257ec56c9aeb93356024036f45a34703737b62a393999161213c57508160011b915f199060031b1c19161790565b6015555b612128604051958695604087526040870191614e62565b918483036020860152614e62565b0390a180f35b90508401355f61137a565b601585527f55f448fdea98c4d29eb340757ef0a66cd03dbb9538908a6a81d96026b71ec47590601f198316865b8181106121d65750918391612136947f0c970cd74a2e0bb138e53c257ec56c9aeb93356024036f45a34703737b62a393989994106121bd575b5050600181811b01601555612111565b8301355f19600384901b60f8161c191690555f806121ad565b9192602060018192868c013581550194019201612174565b60155f527f55f448fdea98c4d29eb340757ef0a66cd03dbb9538908a6a81d96026b71ec4759083808601821c8301936020871061223f575b01901c01905b818110156120ba575f815560010161222c565b93508293612226565b90508801355f61137a565b50601488527fce6d7b5282bd9a3661ae061feed1dbda4e52ab073b1f9285be6e155d9c38d4ec9086601f1981168a5b8181106122b95750106122a0575b5050600185811b016014556120a0565b8701355f19600388901b60f8161c191690555f80612290565b8a84013585556001909401936020938401938a935001612282565b60145f527fce6d7b5282bd9a3661ae061feed1dbda4e52ab073b1f9285be6e155d9c38d4ec84808801851c82019260208910612329575b01841c01905b81811061231e5750612071565b5f8155600101612311565b9250819261230b565b90507f00000000000000000000000000000000000000000000000000000000000000001633145f612029565b5034610e2a57602080600319360112610e2a576004356006811015610e2a5760055461239e90336001600160a01b03918216149081156123325750614ee0565b6007549160ff83169260068410156125f7576123bd6005851415614c15565b8284146125b2578361246e578461154757600183148015612464575b1561241b576040925f805160206154208339815191529492612417925b60ff83169060ff19161760075561240f85518095614436565b830190614436565ba180f35b60405162461bcd60e51b815260048101839052602e60248201525f8051602061544083398151915260448201526d1a5bdb88199c9bdb48111490519560921b6064820152608490fd5b50600483146123d9565b93600184036124fd57505f936002831480156124f3575b156124a6576040925f805160206154208339815191529492612417926123f6565b60405162461bcd60e51b815260048101839052603260248201525f805160206154408339815191526044820152711a5bdb88199c9bdb4814d0d211511553115160721b6064820152608490fd5b5060048314612485565b9360028403612574576003830361252a576040925f805160206154208339815191529492612417926123f6565b60405162461bcd60e51b815260048101839052602f60248201525f8051602061544083398151915260448201526e696f6e2066726f6d2041435449564560881b6064820152608490fd5b60405162461bcd60e51b815260048101839052602360248201525f8051602061544083398151915260448201526234b7b760e91b6064820152608490fd5b60405162461bcd60e51b815260048101839052601a60248201527f456c656374696f6e3a2053746174757320756e6368616e6765640000000000006044820152606490fd5b634e487b7160e01b5f52602160045260245ffd5b34610e2a576060366003190112610e2a5760043560248035906001600160401b03604435818111610e2a5761264490369060040161430e565b93909461265c60018060a01b03600554163314614c6d565b60ff60075416600681101561298e576126786005821415614c15565b4282111561293757818311156128df57610e106126958385614f58565b1061288d576301e133806126a98385614f58565b1161283c576126b89015614e82565b600855600955821161282957506126d0600a5461420f565b601f81116127c6575b505f601f8211600114612747578190612706935f9261273c5750508160011b915f199060031b1c19161790565b600a555b60405160208152600660208201526574696d696e6760d01b60408201525f8051602061540083398151915260603392a2005b013590508380610aac565b601f19821692600a5f527fc65a7bb8d6351c1cf70c95a316cc6a92839c986682d98bc35f958f4883f9d2a8915f5b8581106127ae57508360019510612795575b505050811b01600a5561270a565b01355f19600384901b60f8161c19169055828080612787565b90926020600181928686013581550194019101612775565b600a5f527fc65a7bb8d6351c1cf70c95a316cc6a92839c986682d98bc35f958f4883f9d2a8601f830160051c8101916020841061281f575b601f0160051c01905b81811061281457506126d9565b5f8155600101612807565b90915081906127fe565b634e487b7160e01b5f9081526041600452fd5b60405162461bcd60e51b8152602060048201528086018690527f456c656374696f6e3a20456c656374696f6e206475726174696f6e20746f6f206044820152636c6f6e6760e01b6064820152608490fd5b60405162461bcd60e51b8152602060048201526025818701527f456c656374696f6e3a20456c656374696f6e206475726174696f6e20746f6f206044820152641cda1bdc9d60da1b6064820152608490fd5b60405162461bcd60e51b815260206004820152602b818701527f456c656374696f6e3a20456e642074696d65206d75737420626520616674657260448201526a2073746172742074696d6560a81b6064820152608490fd5b60405162461bcd60e51b815260206004820152602a818701527f456c656374696f6e3a2053746172742074696d65206d75737420626520696e206044820152697468652066757475726560b01b6064820152608490fd5b84634e487b7160e01b5f5260216004525ffd5b34610e2a575f366003190112610e2a576129b96153d4565b5f80546001600160a01b0319811682556001600160a01b03167f8be0079c531659141344cd1fd0a4f28419497f9722a3daafe3b4186f6b6457e08280a3005b34610e2a575f366003190112610e2a57612a54612a1361449b565b612a1b61464a565b610479612a9e612a2961472d565b612a316147a5565b612a91612a62612a3f614769565b96604051998a99610160808c528b0190614443565b9089820360208b01526149c0565b926040880190606080918051151584526020810151151560208501526040810151604085015201511515910152565b85820360c08701526149e7565b8251151560e08501526020830151151561010085015260408301516101208501526060909201511515610140840152565b34610e2a575f366003190112610e2a576040516015545f82612af08361420f565b91828252602093600190856001821691825f14612b8d575050600114612b32575b50612b1e92500383614124565b6104796040519282849384528301906142e9565b84915060155f527f55f448fdea98c4d29eb340757ef0a66cd03dbb9538908a6a81d96026b71ec475905f915b858310612b75575050612b1e935082010185612b11565b80548389018501528794508693909201918101612b5e565b60ff191685820152612b1e95151560051b8501019250879150612b119050565b34610e2a575f366003190112610e2a57602060ff600254166040519015158152f35b34610e2a576020366003190112610e2a576004355f52601860205260405f208054612bfc60018301614247565b91612c6a612c0c60028301614247565b9160ff60038201541690612c556005612c2760048401614247565b92015494612c47604051988998895260c060208a015260c08901906142e9565b9087820360408901526142e9565b911515606086015284820360808601526142e9565b9060a08301520390f35b34610e2a575f366003190112610e2a57612c8c614f2c565b5060ff6007541660068110156125f7576005612ca9911415614c15565b610479612cb461449b565b604051918291602083526020830190614443565b34610e2a575f366003190112610e2a5760206040516301e133808152f35b34610e2a576020366003190112610e2a576001600160a01b03612d07614420565b165f52601b602052610479612d1e60405f20614247565b6040519182916020835260208301906142e9565b34610e2a576080366003190112610e2a57612d5860018060a01b03600554163314614c6d565b60ff6007541660068110156125f757806115a36005612d78931415614c15565b600435801515809103610e2a57600b54602435801515809103610e2a5761ff0060ff9160081b1692169061ffff19161717600b55604435600c55606435801515809103610e2a5760ff8019600d5416911617600d5560405160208152600e60208201526d766f74696e6753657474696e677360901b60408201525f8051602061540083398151915260603392a2005b34610e2a575f366003190112610e2a576040516017545f82612e288361420f565b91828252602093600190856001821691825f14612b8d575050600114612e555750612b1e92500383614124565b84915060175f527fc624b66cc0138b8fabc209247f72d758e1cf3343756d543badbf24212bed8c15905f915b858310612e98575050612b1e935082010185612b11565b80548389018501528794508693909201918101612e81565b34610e2a576020366003190112610e2a57612ec9614420565b612ed1614bea565b5060ff600754169060068210156125f757612ef26005610479931415614c15565b60018060a01b038091165f52601b6020526004612f1461066460405f20614247565b60405192612f21846140b8565b612f2a82614247565b845260018201541660208401526002810154604084015260ff6003820154161515606084015201546080820152604051918291826143d4565b34610e2a57602080600319360112610e2a576001600160401b0390600435828111610e2a57612f9690369060040161430e565b919092612fb760018060a01b038060055416331490811561317e5750614ee0565b60ff6007541660068110156125f7576005612fd3911415614c15565b821161316a57612fe460175461420f565b601f8111613108575b505f601f8311600114613063577fc6597cda9aacba55693338dd2fddb98917d4ed808da6016d46099bca72707a0a9361303e8480613053945f9161305857508160011b915f199060031b1c19161790565b6017555b604051938385948552840191614e62565b0390a1005b90508301358861137a565b601f1983169060175f527fc624b66cc0138b8fabc209247f72d758e1cf3343756d543badbf24212bed8c15915f5b8181106130f15750917fc6597cda9aacba55693338dd2fddb98917d4ed808da6016d46099bca72707a0a95918561305394106130d8575b5050600184811b01601755613042565b8201355f19600387901b60f8161c1916905585806130c8565b91928460018192868a013581550194019201613091565b60175f527fc624b66cc0138b8fabc209247f72d758e1cf3343756d543badbf24212bed8c15601f840160051c810191838510613160575b601f0160051c01905b8181106131555750612fed565b5f8155600101613148565b909150819061313f565b634e487b7160e01b5f52604160045260245ffd5b90507f000000000000000000000000000000000000000000000000000000000000000016331486612029565b34610e2a575f366003190112610e2a576020601d54604051908152f35b34610e2a576080366003190112610e2a576131ed60018060a01b03600554163314614c6d565b60ff6007541660068110156125f757806115a3600561320d931415614c15565b600435801515809103610e2a57601154602435801515809103610e2a5761ff0060ff9160081b1692169061ffff19161717601155604435601255606435801515809103610e2a5760ff80196013541691161760135560405160208152600d60208201526c726573756c7473436f6e66696760981b60408201525f8051602061540083398151915260603392a2005b34610e2a575f366003190112610e2a576132c060018060a01b03600554163314614c6d565b60025460ff8116156132ff5760ff19166002557f5db9ee0a495bf2e6ff9c91a7834c1ba4fdd244a5e8aa4e537bd38aeae4b073aa6020604051338152a1005b604051638dfc202b60e01b8152600490fd5b34610e2a575f366003190112610e2a5761333660018060a01b03600554163314614c6d565b60075460ff811660068110156125f7578061335660056002931415614c15565b146133865760059060ff1916176007555f80516020615420833981519152604080516005815260056020820152a1005b60405162461bcd60e51b815260206004820152602760248201527f456c656374696f6e3a2043616e6e6f742064656c6574652061637469766520656044820152663632b1ba34b7b760c91b6064820152608490fd5b34610e2a575f366003190112610e2a576040516016545f826133fc8361420f565b91828252602093600190856001821691825f14612b8d5750506001146134295750612b1e92500383614124565b84915060165f527fd833147d7dc355ba459fc788f669e58cfaf9dc25ddcd0702e87d69c7b5124289905f915b85831061346c575050612b1e935082010185612b11565b80548389018501528794508693909201918101613455565b34610e2a575f366003190112610e2a57602060405160c88152f35b34610e2a575f366003190112610e2a5760206040516107d08152f35b34610e2a576080366003190112610e2a576004356001600160401b038111610e2a576134eb90369060040161433b565b6024356001600160401b038111610e2a5761350a90369060040161433b565b90916044356001600160401b038111610e2a5761352b90369060040161433b565b9190946064356001600160401b038111610e2a5761354d90369060040161430e565b95909661356560018060a01b03600554163314614c6d565b60ff6007541660068110156125f7576005613581911415614c15565b85841480613ae7575b15613a8d5761359b86601d54614cc4565b600c5410613a35575f5b868110613757578888886135bb81601d54614cc4565b601d556001600160401b03821161316a576135d760165461420f565b601f81116136f4575b505f92601f831160011461364f576130539061363284807f9b4816f3f223084847e3fee98962c3fb486d5ce616e6bf7c4623c13aaa4e6745975f9161305857508160011b915f199060031b1c19161790565b6016555b6040519384938452604060208501526040840191614e62565b601f19831660165f527fd833147d7dc355ba459fc788f669e58cfaf9dc25ddcd0702e87d69c7b5124289905f5b8181106136dc5750907f9b4816f3f223084847e3fee98962c3fb486d5ce616e6bf7c4623c13aaa4e674595856130539493106136c3575b5050600184811b01601655613636565b8201355f19600387901b60f8161c1916905585806136b3565b8387013583556020968701966001909301920161367c565b60165f527fd833147d7dc355ba459fc788f669e58cfaf9dc25ddcd0702e87d69c7b5124289601f840160051c8101916020851061374d575b601f0160051c01905b81811061374257506135e0565b5f8155600101613735565b909150819061372c565b61376e613765828986614d17565b90501515614d42565b61120d61379e61377f838a87614d17565b604051939181908537830192602081601a95868152030190205461420f565b6137a9828986614d17565b91906137be6137b9858a8a614def565b614dff565b6137e26137cc868c89614def565b3592604051956137db876140b8565b3691614145565b845260018060a01b0316602084015260408301525f6060830152426080830152602061380f848b88614d17565b928360405194859384378201908152030190209080518051906001600160401b03821161316a5761384a82613844865461420f565b86614e13565b602090601f83116001146139c957826080936004959361387e935f92610c115750508160011b915f199060031b1c19161790565b84555b6001840160018060a01b036020830151166001600160601b0360a01b825416179055604081015160028501556138cc60608201511515600386019060ff801983541691151516179055565b01519101556138dc818885614d17565b6001600160a01b036138f26137b9858a8a614def565b165f52601b60205260405f20916001600160401b03821161316a5761391b82610b71855461420f565b5f90601f831160011461396157918061394d9260019695945f926139565750508160011b915f199060031b1c19161790565b90555b016135a5565b013590508e80610aac565b601f19831691845f5260205f20925f5b8181106139b1575091600196959492918388959310613998575b505050811b019055613950565b01355f19600384901b60f8161c191690558d808061398b565b91936020600181928787013581550195019201613971565b90845f5260205f20915f5b601f1985168110613a1d575091839160049593608095601f19811610613a05575b505050600190811b018455613881565b01515f1960f88460031b161c191690558e80806139f5565b919260206001819286850151815501940192016139d4565b60405162461bcd60e51b815260206004820152602a60248201527f456c656374696f6e3a204d6178696d756d20766f7465727320776f756c6420626044820152691948195e18d95959195960b21b6064820152608490fd5b60405162461bcd60e51b815260206004820152602c60248201527f456c656374696f6e3a20496e70757420617272617973206d757374206861766560448201526b040e6c2daca40d8cadccee8d60a31b6064820152608490fd5b5084861461358a565b34610e2a575f366003190112610e2a576020604051610e108152f35b34610e2a576060366003190112610e2a576001600160401b03600435818111610e2a57613b3d90369060040161430e565b602492919235828111610e2a57613b5890369060040161433b565b9092604435908111610e2a57613b7290369060040161430e565b93909260ff6007541660068110156125f7576002613b909114614a6c565b613ba461066f61066961066436858b614145565b613bac615046565b604051958181883786828101601a8152602098899103019020966001808060a01b0360018a0154163314908115613c5d575b5015613c045750613bf960ff6003613bfe9901541615614b0d565b615069565b60018055005b6084906040519062461bcd60e51b82526004820152602c60248201527f456c656374696f6e3a204e6f7420617574686f72697a656420746f20766f746560448201526b08199bdc881d1a1a5cc8125160a21b6064820152fd5b9050335f52601b825260405f206040519081848101935f90835493613c818561420f565b94886001821691825f14613d1b575050600114613cde575b5050613cae925003601f198101835282614124565b5190206040518281019085858337613cd484828881015f83820152038084520182614124565b5190201489613bde565b8792505f52815f20905f915b858310613d0257505050613cae928201018d80613c99565b8193929450805483868901015201920186918593613cea565b9250935050613cae94915060ff19168652801515028201018d80613c99565b34610e2a575f366003190112610e2a576040516014545f82613d5b8361420f565b91828252602093600190856001821691825f14612b8d575050600114613d885750612b1e92500383614124565b84915060145f527fce6d7b5282bd9a3661ae061feed1dbda4e52ab073b1f9285be6e155d9c38d4ec905f915b858310613dcb575050612b1e935082010185612b11565b80548389018501528794508693909201918101613db4565b34610e2a575f366003190112610e2a57602080546040516001600160a01b039091168152f35b34610e2a576040366003190112610e2a57613e22614420565b602435801515808203610e2a576005546001600160a01b039390613e499085163314614c6d565b60ff600754169060068210156125f757613e67600586931415614c15565b16908115613ef257613ec183807f0ba954ed4db054456d0d2e300f12595c8afd19103c7c8a727c50a12d7966f0409660409691613ee5575b50613ece575b835f526021602052845f209060ff801983541691151516179055565b82519182526020820152a1005b602080546001600160a01b03191685179055613ea5565b9050602054161587613e9f565b60405162461bcd60e51b815260206004820152602360248201527f456c656374696f6e3a20496e76616c6964207061796d6173746572206164647260448201526265737360e81b6064820152608490fd5b34610e2a576020366003190112610e2a576004356001600160401b038111610e2a57613f7390369060040161430e565b613f7b614bea565b5060ff6007541660068110156125f75761047992613f9e60056020931415614c15565b8260405193849283378101601a815203019020600460405191613fc0836140b8565b613fc981614247565b835260018060a01b0360018201541660208401526002810154604084015260ff6003820154161515606084015201546080820152604051918291826143d4565b34610e2a576140173661436b565b9460ff600795929594939454169660068810156125f7576106506002613bfe9914614a6c565b34610e2a5761409d614053602061071c3661418a565b8101601a81520301902061406681614247565b9060018060a01b0360018201541690600281015490600460ff6003830154169101549160405195869560a0875260a08701906142e9565b93602086015260408501521515606084015260808301520390f35b60a081019081106001600160401b0382111761316a57604052565b608081019081106001600160401b0382111761316a57604052565b60c081019081106001600160401b0382111761316a57604052565b606081019081106001600160401b0382111761316a57604052565b90601f801991011681019081106001600160401b0382111761316a57604052565b9291926001600160401b03821161316a576040519161416e601f8201601f191660200184614124565b829481845281830111610e2a578281602093845f960137010152565b6020600319820112610e2a57600435906001600160401b038211610e2a5780602383011215610e2a578160246141c593600401359101614145565b90565b5f5b8381106141d95750505f910152565b81810151838201526020016141ca565b60206142029181604051938285809451938492016141c8565b8101601a81520301902090565b90600182811c9216801561423d575b602083101461422957565b634e487b7160e01b5f52602260045260245ffd5b91607f169161421e565b9060405191825f82546142598161420f565b908184526020946001916001811690815f146142c75750600114614289575b50505061428792500383614124565b565b5f90815285812095935091905b8183106142af57505061428793508201015f8080614278565b85548884018501529485019487945091830191614296565b9250505061428794925060ff191682840152151560051b8201015f8080614278565b90602091614302815180928185528580860191016141c8565b601f01601f1916010190565b9181601f84011215610e2a578235916001600160401b038311610e2a5760208381860195010111610e2a57565b9181601f84011215610e2a578235916001600160401b038311610e2a576020808501948460051b010111610e2a57565b6080600319820112610e2a576001600160401b0391600435838111610e2a57826143979160040161430e565b9390939260243592604435838111610e2a57826143b69160040161433b565b93909392606435918211610e2a576143d09160040161430e565b9091565b6020815260a060806143f1845183602086015260c08501906142e9565b93600180841b036020820151166040850152604081015160608501526060810151151582850152015191015290565b600435906001600160a01b0382168203610e2a57565b9060068210156125f75752565b906141c590608080614473614461865160a0865260a08601906142e9565b602087015185820360208701526142e9565b6040808701516001600160a01b03169085015260608087015190850152940151910190614436565b604051906144a8826140b8565b816040515f600354916144ba8361420f565b80825281602093600195856001821691825f1461462d5750506001146145d1575b6144e792500382614124565b835260405191825f600454926144fc8461420f565b93848452856001821691825f146145b1575050600114614556575b5061452492500383614124565b8201526005546001600160a01b0316604082015260068054606083015260075460ff1691908210156125f75760800152565b84915060045f527f8a35acfbc15ff81a39ae7d344fd709f28e8600b4aa8c65c6b64bfe7fe36bd19b905f915b85831061459957505061452493508201015f614517565b80548389018501528794508693909201918101614582565b60ff19168582015261452495151560051b85010192505f91506145179050565b505060035f5281837fc2575a0e9e593c00f959f8c92f12db2869c3395a3b0502d05e2516446f71f85b865f915b8583106146145750506144e793508201016144db565b80919294505483858801015201910184908685936145fe565b60ff1916848201526144e794151560051b84010191506144db9050565b6040519061465782614109565b816008548152600954906020918282015260405180925f90600a5461467b8161420f565b8085529060019081811690811561470e57506001146146ab575b505050604092916146a7910384614124565b0152565b9094939250600a5f527fc65a7bb8d6351c1cf70c95a316cc6a92839c986682d98bc35f958f4883f9d2a8945f915b8183106146f6575093945091925090820101816146a76040614695565b865488840185015295860195879450918301916146d9565b60ff1916848701525050151560051b8301019050816146a76040614695565b6040519061473a826140d3565b8160ff600b548181161515835260081c1615156020820152600c546040820152606060ff600d54161515910152565b60405190614776826140d3565b8160ff6011548181161515835260081c16151560208201526012546040820152606060ff601354161515910152565b604051906147b282614109565b81604051905f600e54926147c58461420f565b808252816020936001968588821691825f146149a3575050600114614947575b6147f192500382614124565b8252604051600f54815f6148048361420f565b928383528588821691825f1461492a5750506001146148ce575b61482a92500382614124565b818301526040519283915f91601054906148438261420f565b8086529181811690811561470e575060011461486b57505050604092916146a7910384614124565b909493925060105f527f1b6847dc741a1b0cd08d278845f9d819d87b734759afb55fe2de5cb82a9ae672945f915b8183106148b6575093945091925090820101816146a76040614695565b86548884018501529586019587945091830191614899565b5050600f5f5281837f8d1108e10bcb7c27dddfc02ed9d693a074039d026cf4ea4240b40f7d581ac802875f915b85831061491157505061482a935082010161481e565b80919294505483858801015201910184908785936148fb565b60ff19168482015261482a94151560051b840101915061481e9050565b5050600e5f5281837fbb7b4a454dc3493923482f07822329ed19e8244eff582cc204f8554c3620c3fd875f915b85831061498a5750506147f193508201016147e5565b8091929450548385880101520191018490878593614974565b60ff1916848201526147f194151560051b84010191506147e59050565b90606060406141c593805184526020810151602085015201519181604082015201906142e9565b6141c5916040614a15614a0384516060855260608501906142e9565b602085015184820360208601526142e9565b9201519060408184039101526142e9565b6040600319820112610e2a576001600160401b0391600435838111610e2a5782614a529160040161430e565b93909392602435918211610e2a576143d09160040161430e565b15614a7357565b606460405162461bcd60e51b815260206004820152602060248201527f456c656374696f6e3a20456c656374696f6e206973206e6f74206163746976656044820152fd5b15614abe57565b60405162461bcd60e51b815260206004820152602160248201527f456c656374696f6e3a20566f746572206973206e6f74207265676973746572656044820152601960fa1b6064820152608490fd5b15614b1457565b60405162461bcd60e51b815260206004820152602160248201527f456c656374696f6e3a20566f7465722068617320616c726561647920766f74656044820152601960fa1b6064820152608490fd5b95949392915f52601c60205260ff60405f20541615614ba55761428795613bf960ff600360405185858237602081878101601a81520301902001541615614b0d565b60405162461bcd60e51b815260206004820152601b60248201527f456c656374696f6e3a20496e76616c696420766f746572206b657900000000006044820152606490fd5b60405190614bf7826140b8565b5f608083606081528260208201528260408201528260608201520152565b15614c1c57565b60405162461bcd60e51b815260206004820152602360248201527f456c656374696f6e3a20456c656374696f6e20686173206265656e2064656c656044820152621d195960ea1b6064820152608490fd5b15614c7457565b60405162461bcd60e51b815260206004820152602260248201527f456c656374696f6e3a204e6f742074686520656c656374696f6e20637265617460448201526137b960f11b6064820152608490fd5b91908201809211614cd157565b634e487b7160e01b5f52601160045260245ffd5b903590601e1981360301821215610e2a57018035906001600160401b038211610e2a57602001918136038313610e2a57565b90821015614d2e576143d09160051b810190614ce5565b634e487b7160e01b5f52603260045260245ffd5b15614d4957565b60405162461bcd60e51b815260206004820152602260248201527f456c656374696f6e3a20566f7465722049442063616e6e6f7420626520656d70604482015261747960f01b6064820152608490fd5b15614da057565b60405162461bcd60e51b815260206004820152602160248201527f456c656374696f6e3a20566f74657220494420616c72656164792065786973746044820152607360f81b6064820152608490fd5b9190811015614d2e5760051b0190565b356001600160a01b0381168103610e2a5790565b601f8211614e2057505050565b5f5260205f20906020601f840160051c83019310614e58575b601f0160051c01905b818110614e4d575050565b5f8155600101614e42565b9091508190614e39565b908060209392818452848401375f828201840152601f01601f1916010190565b15614e8957565b60405162461bcd60e51b815260206004820152602960248201527f456c656374696f6e3a2043616e206f6e6c792075706461746520647261667420604482015268656c656374696f6e7360b81b6064820152608490fd5b15614ee757565b60405162461bcd60e51b815260206004820152601860248201527f456c656374696f6e3a204e6f7420617574686f72697a656400000000000000006044820152606490fd5b60405190614f39826140b8565b5f60808360608152606060208201528260408201528260608201520152565b91908203918211614cd157565b60405190614f72826140d3565b5f6060838281528260208201528260408201520152565b5f198114614cd15760010190565b60405190614fa482614109565b60606040838281528260208201520152565b60405190614fc382614109565b60606040835f81525f60208201520152565b9091614ff560405184848237602081868101601a8152030190205461420f565b1561503f575f52601c60205260ff60405f205416156150395781602060039260ff9460405193849283378101601a81520301902001541661503557600190565b5f90565b50505f90565b5050505f90565b600260015414615057576002600155565b604051633ee5aeb560e01b8152600490fd5b9492909493919360805260409360038551876080518237878101601a8152602060a0528160a0519103019020016001908160ff1982541617905585516150ae816140d3565b6150bb3689608051614145565b81526001600160401b039283851161316a578460051b8851956150e260a051830188614124565b865260a051860190820191368311610e2a57905b8282106153c35750505060a0518101938452868101428152615119368888614145565b946060830195865288518a60805182378a8101601e81528160a0519103019020925180519086821161316a5761515982615153875461420f565b87614e13565b60a05190601f83116001146153625761518892915f9183610c115750508160011b915f199060031b1c19161790565b83555b518051908385019086831161316a5768010000000000000000831161316a578154838355808410615338575b5060a05101905f5260a0515f20855f5b84811061532457505050505090600391516002820155019251805192831161316a576151f783613844865461420f565b60a05191601f8411600114615294575092615254837f46aaf64fc4e86be28e38c6963bbc17b99f46b01d7333985a9176ac92d0d6f62899979461528f979461527b9a975f92610c115750508160011b915f199060031b1c19161790565b90555b615262601f54614f89565b601f558251958695606087526060870190608051614e62565b924260a05187015285840390860152614e62565b0390a1565b9291601f19831691855f5260a0515f20925f5b81811061530d5750927f46aaf64fc4e86be28e38c6963bbc17b99f46b01d7333985a9176ac92d0d6f6289a989592859261528f999661527b9c9996106152f5575b505050811b019055615257565b01515f1960f88460031b161c191690555f80806152e8565b82840151855560a0519487019493840193016152a7565b83519360a0510193818401550186906151c7565b825f5260a0515f2090878583015b8284018110615357575050506151b7565b5f8155018890615346565b869291601f19831691875f5260a0515f20925f5b8181106153aa57508411615392575b505050811b01835561518b565b01515f1960f88460031b161c191690555f8080615385565b82840151855560a0518b97909501949384019301615376565b8135815260a05191820191016150f6565b5f546001600160a01b031633036153e757565b60405163118cdaa760e01b8152336004820152602490fdfe8cfcd2db34f1dff07e39e688dd39a0a2e86a9efdddf6c5a467b1b38f104da93e54acea47b4dce95a26d5693884e87e30a7d7d2b0fe576ca2d8a5ffe7ef510400456c656374696f6e3a20496e76616c696420737461747573207472616e736974a26469706673582212206190a76829a7a7490817ff16c3d42b32a93949f06bae3da180682d0a2e27fce364736f6c63430008170033bb7b4a454dc3493923482f07822329ed19e8244eff582cc204f8554c3620c3fdc65a7bb8d6351c1cf70c95a316cc6a92839c986682d98bc35f958f4883f9d2a81b6847dc741a1b0cd08d278845f9d819d87b734759afb55fe2de5cb82a9ae672a26469706673582212201257940699a8dca0680d523b5babc83cf88a39f2aa8920f068f410078ff569ca64736f6c63430008170033","linkReferences":{}},"methodIdentifiers":{"createElection((string,string,uint256,uint256,string,bool,bool,uint256,bool,string,string,string,bool,bool,uint256,bool))":"3c7ef4df","creatorElections(address,uint256)":"3c316221","deleteElection(uint256)":"740c47d4","electionCreationFee()":"62405052","electionExists(uint256)":"773e078e","elections(uint256)":"5e6fef01","getAllElections()":"7fd5f268","getCurrentElectionId()":"fe2b536b","getElection(uint256)":"9d710777","getElectionBasicInfo(uint256)":"9d8fa447","getElectionContract(uint256)":"218245d5","getElectionContractsByCreator(address)":"26cca3f2","getElectionsByCreator(address)":"bce58935","isElectionContract(address)":"9c73168f","owner()":"8da5cb5b","pause()":"8456cb59","paused()":"5c975abb","renounceOwnership()":"715018a6","transferOwnership(address)":"f2fde38b","unpause()":"3f4ba83a","updateElectionFee(uint256)":"dd533fb2","withdrawFees(address)":"164e68de"},"id":5}