{"abi":[{"type":"constructor","inputs":[{"name":"_basicParams","type":"tuple","internalType":"struct Election.ElectionBasicParams","components":[{"name":"creator","type":"address","internalType":"address"},{"name":"title","type":"string","internalType":"string"},{"name":"description","type":"string","internalType":"string"},{"name":"startTime","type":"uint256","internalType":"uint256"},{"name":"endTime","type":"uint256","internalType":"uint256"},{"name":"timezone","type":"string","internalType":"string"}]},{"name":"_votingParams","type":"tuple","internalType":"struct Election.ElectionVotingParams","components":[{"name":"ballotReceipt","type":"bool","internalType":"bool"},{"name":"submitConfirmation","type":"bool","internalType":"bool"},{"name":"maxVotersCount","type":"uint256","internalType":"uint256"},{"name":"allowVoterRegistration","type":"bool","internalType":"bool"}]},{"name":"_messagesParams","type":"tuple","internalType":"struct Election.ElectionMessagesParams","components":[{"name":"loginInstructions","type":"string","internalType":"string"},{"name":"voteConfirmation","type":"string","internalType":"string"},{"name":"afterElectionMessage","type":"string","internalType":"string"}]},{"name":"_resultsParams","type":"tuple","internalType":"struct Election.ElectionResultsParams","components":[{"name":"publicResults","type":"bool","internalType":"bool"},{"name":"realTimeResults","type":"bool","internalType":"bool"},{"name":"resultsReleaseTime","type":"uint256","internalType":"uint256"},{"name":"allowResultsDownload","type":"bool","internalType":"bool"}]}],"stateMutability":"nonpayable"},{"type":"function","name":"MAX_DESCRIPTION_LENGTH","inputs":[],"outputs":[{"name":"","type":"uint256","internalType":"uint256"}],"stateMutability":"view"},{"type":"function","name":"MAX_ELECTION_DURATION","inputs":[],"outputs":[{"name":"","type":"uint256","internalType":"uint256"}],"stateMutability":"view"},{"type":"function","name":"MAX_MESSAGE_LENGTH","inputs":[],"outputs":[{"name":"","type":"uint256","internalType":"uint256"}],"stateMutability":"view"},{"type":"function","name":"MAX_TITLE_LENGTH","inputs":[],"outputs":[{"name":"","type":"uint256","internalType":"uint256"}],"stateMutability":"view"},{"type":"function","name":"MIN_ELECTION_DURATION","inputs":[],"outputs":[{"name":"","type":"uint256","internalType":"uint256"}],"stateMutability":"view"},{"type":"function","name":"addBallot","inputs":[{"name":"_title","type":"string","internalType":"string"},{"name":"_description","type":"string","internalType":"string"},{"name":"_isMultipleChoice","type":"bool","internalType":"bool"},{"name":"_ipfsCid","type":"string","internalType":"string"}],"outputs":[],"stateMutability":"nonpayable"},{"type":"function","name":"addElectionMetadata","inputs":[{"name":"_electionMetadataUri","type":"string","internalType":"string"},{"name":"_ballotMetadataUri","type":"string","internalType":"string"}],"outputs":[],"stateMutability":"nonpayable"},{"type":"function","name":"addVoter","inputs":[{"name":"_voterAddress","type":"address","internalType":"address"},{"name":"_voterId","type":"string","internalType":"string"},{"name":"_voteWeight","type":"uint256","internalType":"uint256"},{"name":"_voterKeyHash","type":"bytes32","internalType":"bytes32"}],"outputs":[],"stateMutability":"nonpayable"},{"type":"function","name":"addVoters","inputs":[{"name":"_voterAddresses","type":"address[]","internalType":"address[]"},{"name":"_voterIds","type":"string[]","internalType":"string[]"},{"name":"_voteWeights","type":"uint256[]","internalType":"uint256[]"},{"name":"_ipfsCid","type":"string","internalType":"string"}],"outputs":[],"stateMutability":"nonpayable"},{"type":"function","name":"authorizedPaymasters","inputs":[{"name":"","type":"address","internalType":"address"}],"outputs":[{"name":"","type":"bool","internalType":"bool"}],"stateMutability":"view"},{"type":"function","name":"ballotCount","inputs":[],"outputs":[{"name":"","type":"uint256","internalType":"uint256"}],"stateMutability":"view"},{"type":"function","name":"ballotMetadataUri","inputs":[],"outputs":[{"name":"","type":"string","internalType":"string"}],"stateMutability":"view"},{"type":"function","name":"ballots","inputs":[{"name":"","type":"uint256","internalType":"uint256"}],"outputs":[{"name":"id","type":"uint256","internalType":"uint256"},{"name":"title","type":"string","internalType":"string"},{"name":"description","type":"string","internalType":"string"},{"name":"isMultipleChoice","type":"bool","internalType":"bool"},{"name":"ipfsCid","type":"string","internalType":"string"},{"name":"createdAt","type":"uint256","internalType":"uint256"}],"stateMutability":"view"},{"type":"function","name":"castVote","inputs":[{"name":"_voterId","type":"string","internalType":"string"},{"name":"_choices","type":"bytes32[]","internalType":"bytes32[]"},{"name":"_ipfsCid","type":"string","internalType":"string"}],"outputs":[],"stateMutability":"nonpayable"},{"type":"function","name":"castVoteWithKey","inputs":[{"name":"_voterId","type":"string","internalType":"string"},{"name":"_voterKeyHash","type":"bytes32","internalType":"bytes32"},{"name":"_choices","type":"bytes32[]","internalType":"bytes32[]"},{"name":"_ipfsCid","type":"string","internalType":"string"}],"outputs":[],"stateMutability":"nonpayable"},{"type":"function","name":"castVoteWithPaymaster","inputs":[{"name":"_voterId","type":"string","internalType":"string"},{"name":"_voterKeyHash","type":"bytes32","internalType":"bytes32"},{"name":"_choices","type":"bytes32[]","internalType":"bytes32[]"},{"name":"_ipfsCid","type":"string","internalType":"string"}],"outputs":[],"stateMutability":"nonpayable"},{"type":"function","name":"changeElectionStatus","inputs":[{"name":"_newStatus","type":"uint8","internalType":"enum IElection.ElectionStatus"}],"outputs":[],"stateMutability":"nonpayable"},{"type":"function","name":"deleteElection","inputs":[],"outputs":[],"stateMutability":"nonpayable"},{"type":"function","name":"electionConfig","inputs":[],"outputs":[{"name":"basicInfo","type":"tuple","internalType":"struct IElection.ElectionBasicInfo","components":[{"name":"title","type":"string","internalType":"string"},{"name":"description","type":"string","internalType":"string"},{"name":"creator","type":"address","internalType":"address"},{"name":"createdAt","type":"uint256","internalType":"uint256"},{"name":"status","type":"uint8","internalType":"enum IElection.ElectionStatus"}]},{"name":"timing","type":"tuple","internalType":"struct IElection.ElectionTiming","components":[{"name":"startTime","type":"uint256","internalType":"uint256"},{"name":"endTime","type":"uint256","internalType":"uint256"},{"name":"timezone","type":"string","internalType":"string"}]},{"name":"votingSettings","type":"tuple","internalType":"struct IElection.VotingSettings","components":[{"name":"ballotReceipt","type":"bool","internalType":"bool"},{"name":"submitConfirmation","type":"bool","internalType":"bool"},{"name":"maxVotersCount","type":"uint256","internalType":"uint256"},{"name":"allowVoterRegistration","type":"bool","internalType":"bool"}]},{"name":"messages","type":"tuple","internalType":"struct IElection.ElectionMessages","components":[{"name":"loginInstructions","type":"string","internalType":"string"},{"name":"voteConfirmation","type":"string","internalType":"string"},{"name":"afterElectionMessage","type":"string","internalType":"string"}]},{"name":"resultsConfig","type":"tuple","internalType":"struct IElection.ResultsConfig","components":[{"name":"publicResults","type":"bool","internalType":"bool"},{"name":"realTimeResults","type":"bool","internalType":"bool"},{"name":"resultsReleaseTime","type":"uint256","internalType":"uint256"},{"name":"allowResultsDownload","type":"bool","internalType":"bool"}]}],"stateMutability":"view"},{"type":"function","name":"electionMetadataUri","inputs":[],"outputs":[{"name":"","type":"string","internalType":"string"}],"stateMutability":"view"},{"type":"function","name":"electionUrl","inputs":[],"outputs":[{"name":"","type":"string","internalType":"string"}],"stateMutability":"view"},{"type":"function","name":"factory","inputs":[],"outputs":[{"name":"","type":"address","internalType":"address"}],"stateMutability":"view"},{"type":"function","name":"getBallot","inputs":[{"name":"_ballotId","type":"uint256","internalType":"uint256"}],"outputs":[{"name":"","type":"tuple","internalType":"struct IElection.Ballot","components":[{"name":"id","type":"uint256","internalType":"uint256"},{"name":"title","type":"string","internalType":"string"},{"name":"description","type":"string","internalType":"string"},{"name":"isMultipleChoice","type":"bool","internalType":"bool"},{"name":"ipfsCid","type":"string","internalType":"string"},{"name":"createdAt","type":"uint256","internalType":"uint256"}]}],"stateMutability":"view"},{"type":"function","name":"getElection","inputs":[],"outputs":[{"name":"","type":"tuple","internalType":"struct IElection.ElectionConfig","components":[{"name":"basicInfo","type":"tuple","internalType":"struct IElection.ElectionBasicInfo","components":[{"name":"title","type":"string","internalType":"string"},{"name":"description","type":"string","internalType":"string"},{"name":"creator","type":"address","internalType":"address"},{"name":"createdAt","type":"uint256","internalType":"uint256"},{"name":"status","type":"uint8","internalType":"enum IElection.ElectionStatus"}]},{"name":"timing","type":"tuple","internalType":"struct IElection.ElectionTiming","components":[{"name":"startTime","type":"uint256","internalType":"uint256"},{"name":"endTime","type":"uint256","internalType":"uint256"},{"name":"timezone","type":"string","internalType":"string"}]},{"name":"votingSettings","type":"tuple","internalType":"struct IElection.VotingSettings","components":[{"name":"ballotReceipt","type":"bool","internalType":"bool"},{"name":"submitConfirmation","type":"bool","internalType":"bool"},{"name":"maxVotersCount","type":"uint256","internalType":"uint256"},{"name":"allowVoterRegistration","type":"bool","internalType":"bool"}]},{"name":"messages","type":"tuple","internalType":"struct IElection.ElectionMessages","components":[{"name":"loginInstructions","type":"string","internalType":"string"},{"name":"voteConfirmation","type":"string","internalType":"string"},{"name":"afterElectionMessage","type":"string","internalType":"string"}]},{"name":"resultsConfig","type":"tuple","internalType":"struct IElection.ResultsConfig","components":[{"name":"publicResults","type":"bool","internalType":"bool"},{"name":"realTimeResults","type":"bool","internalType":"bool"},{"name":"resultsReleaseTime","type":"uint256","internalType":"uint256"},{"name":"allowResultsDownload","type":"bool","internalType":"bool"}]}]}],"stateMutability":"view"},{"type":"function","name":"getElectionBasicInfo","inputs":[],"outputs":[{"name":"","type":"tuple","internalType":"struct IElection.ElectionBasicInfo","components":[{"name":"title","type":"string","internalType":"string"},{"name":"description","type":"string","internalType":"string"},{"name":"creator","type":"address","internalType":"address"},{"name":"createdAt","type":"uint256","internalType":"uint256"},{"name":"status","type":"uint8","internalType":"enum IElection.ElectionStatus"}]}],"stateMutability":"view"},{"type":"function","name":"getElectionMessages","inputs":[],"outputs":[{"name":"","type":"tuple","internalType":"struct IElection.ElectionMessages","components":[{"name":"loginInstructions","type":"string","internalType":"string"},{"name":"voteConfirmation","type":"string","internalType":"string"},{"name":"afterElectionMessage","type":"string","internalType":"string"}]}],"stateMutability":"view"},{"type":"function","name":"getElectionTiming","inputs":[],"outputs":[{"name":"","type":"tuple","internalType":"struct IElection.ElectionTiming","components":[{"name":"startTime","type":"uint256","internalType":"uint256"},{"name":"endTime","type":"uint256","internalType":"uint256"},{"name":"timezone","type":"string","internalType":"string"}]}],"stateMutability":"view"},{"type":"function","name":"getResultsConfig","inputs":[],"outputs":[{"name":"","type":"tuple","internalType":"struct IElection.ResultsConfig","components":[{"name":"publicResults","type":"bool","internalType":"bool"},{"name":"realTimeResults","type":"bool","internalType":"bool"},{"name":"resultsReleaseTime","type":"uint256","internalType":"uint256"},{"name":"allowResultsDownload","type":"bool","internalType":"bool"}]}],"stateMutability":"view"},{"type":"function","name":"getVote","inputs":[{"name":"_voterId","type":"string","internalType":"string"}],"outputs":[{"name":"","type":"tuple","internalType":"struct IElection.Vote","components":[{"name":"voterId","type":"string","internalType":"string"},{"name":"choices","type":"bytes32[]","internalType":"bytes32[]"},{"name":"timestamp","type":"uint256","internalType":"uint256"},{"name":"ipfsCid","type":"string","internalType":"string"}]}],"stateMutability":"view"},{"type":"function","name":"getVoter","inputs":[{"name":"_voterId","type":"string","internalType":"string"}],"outputs":[{"name":"","type":"tuple","internalType":"struct IElection.Voter","components":[{"name":"voterId","type":"string","internalType":"string"},{"name":"voterAddress","type":"address","internalType":"address"},{"name":"voteWeight","type":"uint256","internalType":"uint256"},{"name":"hasVoted","type":"bool","internalType":"bool"},{"name":"registeredAt","type":"uint256","internalType":"uint256"}]}],"stateMutability":"view"},{"type":"function","name":"getVoterByAddress","inputs":[{"name":"_voterAddress","type":"address","internalType":"address"}],"outputs":[{"name":"","type":"tuple","internalType":"struct IElection.Voter","components":[{"name":"voterId","type":"string","internalType":"string"},{"name":"voterAddress","type":"address","internalType":"address"},{"name":"voteWeight","type":"uint256","internalType":"uint256"},{"name":"hasVoted","type":"bool","internalType":"bool"},{"name":"registeredAt","type":"uint256","internalType":"uint256"}]}],"stateMutability":"view"},{"type":"function","name":"getVotingSettings","inputs":[],"outputs":[{"name":"","type":"tuple","internalType":"struct IElection.VotingSettings","components":[{"name":"ballotReceipt","type":"bool","internalType":"bool"},{"name":"submitConfirmation","type":"bool","internalType":"bool"},{"name":"maxVotersCount","type":"uint256","internalType":"uint256"},{"name":"allowVoterRegistration","type":"bool","internalType":"bool"}]}],"stateMutability":"view"},{"type":"function","name":"owner","inputs":[],"outputs":[{"name":"","type":"address","internalType":"address"}],"stateMutability":"view"},{"type":"function","name":"pause","inputs":[],"outputs":[],"stateMutability":"nonpayable"},{"type":"function","name":"paused","inputs":[],"outputs":[{"name":"","type":"bool","internalType":"bool"}],"stateMutability":"view"},{"type":"function","name":"paymaster","inputs":[],"outputs":[{"name":"","type":"address","internalType":"address"}],"stateMutability":"view"},{"type":"function","name":"registerVoterKey","inputs":[{"name":"_voterKeyHash","type":"bytes32","internalType":"bytes32"}],"outputs":[],"stateMutability":"nonpayable"},{"type":"function","name":"renounceOwnership","inputs":[],"outputs":[],"stateMutability":"nonpayable"},{"type":"function","name":"setElectionUrl","inputs":[{"name":"_electionUrl","type":"string","internalType":"string"}],"outputs":[],"stateMutability":"nonpayable"},{"type":"function","name":"setPaymaster","inputs":[{"name":"_paymaster","type":"address","internalType":"address"},{"name":"_authorized","type":"bool","internalType":"bool"}],"outputs":[],"stateMutability":"nonpayable"},{"type":"function","name":"transferOwnership","inputs":[{"name":"newOwner","type":"address","internalType":"address"}],"outputs":[],"stateMutability":"nonpayable"},{"type":"function","name":"unpause","inputs":[],"outputs":[],"stateMutability":"nonpayable"},{"type":"function","name":"updateElectionBasicInfo","inputs":[{"name":"_title","type":"string","internalType":"string"},{"name":"_description","type":"string","internalType":"string"}],"outputs":[],"stateMutability":"nonpayable"},{"type":"function","name":"updateElectionMessages","inputs":[{"name":"_messages","type":"tuple","internalType":"struct IElection.ElectionMessages","components":[{"name":"loginInstructions","type":"string","internalType":"string"},{"name":"voteConfirmation","type":"string","internalType":"string"},{"name":"afterElectionMessage","type":"string","internalType":"string"}]}],"outputs":[],"stateMutability":"nonpayable"},{"type":"function","name":"updateElectionTiming","inputs":[{"name":"_startTime","type":"uint256","internalType":"uint256"},{"name":"_endTime","type":"uint256","internalType":"uint256"},{"name":"_timezone","type":"string","internalType":"string"}],"outputs":[],"stateMutability":"nonpayable"},{"type":"function","name":"updateResultsConfig","inputs":[{"name":"_resultsConfig","type":"tuple","internalType":"struct IElection.ResultsConfig","components":[{"name":"publicResults","type":"bool","internalType":"bool"},{"name":"realTimeResults","type":"bool","internalType":"bool"},{"name":"resultsReleaseTime","type":"uint256","internalType":"uint256"},{"name":"allowResultsDownload","type":"bool","internalType":"bool"}]}],"outputs":[],"stateMutability":"nonpayable"},{"type":"function","name":"updateVotingSettings","inputs":[{"name":"_settings","type":"tuple","internalType":"struct IElection.VotingSettings","components":[{"name":"ballotReceipt","type":"bool","internalType":"bool"},{"name":"submitConfirmation","type":"bool","internalType":"bool"},{"name":"maxVotersCount","type":"uint256","internalType":"uint256"},{"name":"allowVoterRegistration","type":"bool","internalType":"bool"}]}],"outputs":[],"stateMutability":"nonpayable"},{"type":"function","name":"verifyVoterAccess","inputs":[{"name":"_voterId","type":"string","internalType":"string"},{"name":"_voterKeyHash","type":"bytes32","internalType":"bytes32"}],"outputs":[{"name":"","type":"bool","internalType":"bool"}],"stateMutability":"view"},{"type":"function","name":"voteCount","inputs":[],"outputs":[{"name":"","type":"uint256","internalType":"uint256"}],"stateMutability":"view"},{"type":"function","name":"voterCount","inputs":[],"outputs":[{"name":"","type":"uint256","internalType":"uint256"}],"stateMutability":"view"},{"type":"function","name":"voterIdsByAddress","inputs":[{"name":"","type":"address","internalType":"address"}],"outputs":[{"name":"","type":"string","internalType":"string"}],"stateMutability":"view"},{"type":"function","name":"voterKeyHashes","inputs":[{"name":"","type":"bytes32","internalType":"bytes32"}],"outputs":[{"name":"","type":"bool","internalType":"bool"}],"stateMutability":"view"},{"type":"function","name":"voterMetadataUri","inputs":[],"outputs":[{"name":"","type":"string","internalType":"string"}],"stateMutability":"view"},{"type":"function","name":"votersByVoterId","inputs":[{"name":"","type":"string","internalType":"string"}],"outputs":[{"name":"voterId","type":"string","internalType":"string"},{"name":"voterAddress","type":"address","internalType":"address"},{"name":"voteWeight","type":"uint256","internalType":"uint256"},{"name":"hasVoted","type":"bool","internalType":"bool"},{"name":"registeredAt","type":"uint256","internalType":"uint256"}],"stateMutability":"view"},{"type":"function","name":"votesByVoterId","inputs":[{"name":"","type":"string","internalType":"string"}],"outputs":[{"name":"voterId","type":"string","internalType":"string"},{"name":"timestamp","type":"uint256","internalType":"uint256"},{"name":"ipfsCid","type":"string","internalType":"string"}],"stateMutability":"view"},{"type":"event","name":"BallotAdded","inputs":[{"name":"ballotId","type":"uint256","indexed":true,"internalType":"uint256"},{"name":"title","type":"string","indexed":false,"internalType":"string"},{"name":"isMultipleChoice","type":"bool","indexed":false,"internalType":"bool"},{"name":"ipfsCid","type":"string","indexed":false,"internalType":"string"}],"anonymous":false},{"type":"event","name":"ElectionMetadataUpdated","inputs":[{"name":"electionMetadataUri","type":"string","indexed":false,"internalType":"string"},{"name":"ballotMetadataUri","type":"string","indexed":false,"internalType":"string"}],"anonymous":false},{"type":"event","name":"ElectionStatusChanged","inputs":[{"name":"oldStatus","type":"uint8","indexed":false,"internalType":"enum IElection.ElectionStatus"},{"name":"newStatus","type":"uint8","indexed":false,"internalType":"enum IElection.ElectionStatus"}],"anonymous":false},{"type":"event","name":"ElectionUpdated","inputs":[{"name":"updater","type":"address","indexed":true,"internalType":"address"},{"name":"field","type":"string","indexed":false,"internalType":"string"}],"anonymous":false},{"type":"event","name":"ElectionUrlGenerated","inputs":[{"name":"electionUrl","type":"string","indexed":false,"internalType":"string"}],"anonymous":false},{"type":"event","name":"OwnershipTransferred","inputs":[{"name":"previousOwner","type":"address","indexed":true,"internalType":"address"},{"name":"newOwner","type":"address","indexed":true,"internalType":"address"}],"anonymous":false},{"type":"event","name":"Paused","inputs":[{"name":"account","type":"address","indexed":false,"internalType":"address"}],"anonymous":false},{"type":"event","name":"PaymasterUpdated","inputs":[{"name":"paymaster","type":"address","indexed":false,"internalType":"address"},{"name":"authorized","type":"bool","indexed":false,"internalType":"bool"}],"anonymous":false},{"type":"event","name":"Unpaused","inputs":[{"name":"account","type":"address","indexed":false,"internalType":"address"}],"anonymous":false},{"type":"event","name":"VoteCast","inputs":[{"name":"voterId","type":"string","indexed":false,"internalType":"string"},{"name":"timestamp","type":"uint256","indexed":false,"internalType":"uint256"},{"name":"ipfsCid","type":"string","indexed":false,"internalType":"string"}],"anonymous":false},{"type":"event","name":"VoterAdded","inputs":[{"name":"voterId","type":"string","indexed":false,"internalType":"string"},{"name":"voterAddress","type":"address","indexed":false,"internalType":"address"},{"name":"voteWeight","type":"uint256","indexed":false,"internalType":"uint256"}],"anonymous":false},{"type":"event","name":"VotersBatchAdded","inputs":[{"name":"count","type":"uint256","indexed":false,"internalType":"uint256"},{"name":"ipfsCid","type":"string","indexed":false,"internalType":"string"}],"anonymous":false},{"type":"error","name":"EnforcedPause","inputs":[]},{"type":"error","name":"ExpectedPause","inputs":[]},{"type":"error","name":"OwnableInvalidOwner","inputs":[{"name":"owner","type":"address","internalType":"address"}]},{"type":"error","name":"OwnableUnauthorizedAccount","inputs":[{"name":"account","type":"address","internalType":"address"}]},{"type":"error","name":"ReentrancyGuardReentrantCall","inputs":[]}],"bytecode":{"object":"0x60a060405234610be657615b798038038061001981610c28565b92833981019061014081830312610be65780516001600160401b038111610be657810160c081840312610be65760405160c081016001600160401b0381118282101761073a5760405281516001600160a01b0381168103610be657815260208201516001600160401b038111610be65784610095918401610c4d565b6020820190815260408301519092906001600160401b038111610be657856100be918301610c4d565b90604083019182526060810151606084019081526080820151916080850192835260a08101519060018060401b038211610be6576100fe91899101610c4d565b9060a085019182526101138860208901610cab565b60a08801519094906001600160401b038111610be6578801956060878b0312610be65761013e610bea565b87519097906001600160401b038111610be6578b61015d918301610c4d565b885260208101516001600160401b038111610be6578b61017e918301610c4d565b602089019081526040820151909b90916001600160401b038311610be6576101ad826101bb9460c09301610c4d565b9b60408b019c8d5201610cab565b81519098906001600160a01b03168015610bd3575f80546001600160a01b03198116831782556001600160a01b0316907f8be0079c531659141344cd1fd0a4f28419497f9722a3daafe3b4186f6b6457e09080a360018055336080525191519051604051926001600160a01b039091169060a084018481106001600160401b0382111761073a5760405283526020830191825260408301908152606083019142835260808401935f85525180519060018060401b03821161073a5760035490600182811c92168015610bc9575b602083101461071c5781601f849311610b5b575b50602090601f8311600114610af5575f92610aea575b50508160011b915f199060031b1c1916176003555b518051906001600160401b03821161073a5760045490600182811c92168015610ae0575b602083101461071c5781601f849311610a72575b50602090601f8311600114610a0c575f92610a01575b50508160011b915f199060031b1c1916176004555b60018060a01b0390511660018060a01b03196005541617600555516006555160068110156109ed5760ff801960075416911617600755519151905191826040610371610bea565b8381526020810185905201526008556009558051906001600160401b03821161073a57600a5490600182811c921680156109e3575b602083101461071c5781601f849311610975575b50602090601f831160011461090f575f92610904575b50508160011b915f199060031b1c191617600a555b80511515906020810151151560606040830151920151151592610406610c09565b90815260208101918252604081019283526060810193845251151560ff8019600b5416911617600b5551151561ff00600b549160081b169061ff00191617600b5551600c5551151560ff8019600d5416911617600d55519251915191604061046c610bea565b858152602081019283520192835283516001600160401b03811161073a57600e54600181811c911680156108fa575b602082101461071c57601f8111610897575b50602094601f8211600114610834579481929394955f92610829575b50508160011b915f199060031b1c191617600e555b5180519092906001600160401b03811161073a57600f54600181811c9116801561081f575b602082101461071c57601f81116107bc575b506020601f821160011461075957819293945f9261074e575b50508160011b915f199060031b1c191617600f555b5180519091906001600160401b03811161073a57601054600181811c91168015610730575b602082101461071c57601f81116106b9575b50602092601f821160011461065857928192935f9261064d575b50508160011b915f199060031b1c1916176010555b805115159060208101511515606060408301519201511515926105ca610c09565b90815260208101918252604081019283526060810193845251151560ff80196011541691161760115551151561ff006011549160081b169061ff001916176011555160125551151560ff801960135416911617601355604051614e809081610cf98239608051818181610e0b01528181612212015281816124b90152612ffc0152f35b015190505f80610594565b601f1982169360105f52805f20915f5b8681106106a15750836001959610610689575b505050811b016010556105a9565b01515f1960f88460031b161c191690555f808061067b565b91926020600181928685015181550194019201610668565b60105f527f1b6847dc741a1b0cd08d278845f9d819d87b734759afb55fe2de5cb82a9ae672601f830160051c81019160208410610712575b601f0160051c01905b818110610707575061057a565b5f81556001016106fa565b90915081906106f1565b634e487b7160e01b5f52602260045260245ffd5b90607f1690610568565b634e487b7160e01b5f52604160045260245ffd5b015190505f8061052e565b601f19821690600f5f52805f20915f5b8181106107a45750958360019596971061078c575b505050811b01600f55610543565b01515f1960f88460031b161c191690555f808061077e565b9192602060018192868b015181550194019201610769565b600f5f527f8d1108e10bcb7c27dddfc02ed9d693a074039d026cf4ea4240b40f7d581ac802601f830160051c81019160208410610815575b601f0160051c01905b81811061080a5750610515565b5f81556001016107fd565b90915081906107f4565b90607f1690610503565b015190505f806104c9565b601f19821695600e5f52805f20915f5b88811061087f57508360019596979810610867575b505050811b01600e556104de565b01515f1960f88460031b161c191690555f8080610859565b91926020600181928685015181550194019201610844565b600e5f527fbb7b4a454dc3493923482f07822329ed19e8244eff582cc204f8554c3620c3fd601f830160051c810191602084106108f0575b601f0160051c01905b8181106108e557506104ad565b5f81556001016108d8565b90915081906108cf565b90607f169061049b565b015190505f806103d0565b600a5f9081528281209350601f198516905b81811061095d5750908460019594939210610945575b505050811b01600a556103e5565b01515f1960f88460031b161c191690555f8080610937565b92936020600181928786015181550195019301610921565b600a5f529091507fc65a7bb8d6351c1cf70c95a316cc6a92839c986682d98bc35f958f4883f9d2a8601f840160051c810191602085106109d9575b90601f859493920160051c01905b8181106109cb57506103ba565b5f81558493506001016109be565b90915081906109b0565b91607f16916103a6565b634e487b7160e01b5f52602160045260245ffd5b015190505f80610315565b60045f9081528281209350601f198516905b818110610a5a5750908460019594939210610a42575b505050811b0160045561032a565b01515f1960f88460031b161c191690555f8080610a34565b92936020600181928786015181550195019301610a1e565b60045f529091507f8a35acfbc15ff81a39ae7d344fd709f28e8600b4aa8c65c6b64bfe7fe36bd19b601f840160051c81019160208510610ad6575b90601f859493920160051c01905b818110610ac857506102ff565b5f8155849350600101610abb565b9091508190610aad565b91607f16916102eb565b015190505f806102b2565b60035f9081528281209350601f198516905b818110610b435750908460019594939210610b2b575b505050811b016003556102c7565b01515f1960f88460031b161c191690555f8080610b1d565b92936020600181928786015181550195019301610b07565b60035f529091507fc2575a0e9e593c00f959f8c92f12db2869c3395a3b0502d05e2516446f71f85b601f840160051c81019160208510610bbf575b90601f859493920160051c01905b818110610bb1575061029c565b5f8155849350600101610ba4565b9091508190610b96565b91607f1691610288565b631e4fbdf760e01b5f525f60045260245ffd5b5f80fd5b60405190606082016001600160401b0381118382101761073a57604052565b60405190608082016001600160401b0381118382101761073a57604052565b6040519190601f01601f191682016001600160401b0381118382101761073a57604052565b81601f82011215610be6578051906001600160401b03821161073a57610c7c601f8301601f1916602001610c28565b9282845260208383010111610be657815f9260208093018386015e8301015290565b51908115158203610be657565b9190826080910312610be657610cf16060610cc4610c09565b93610cce81610c9e565b8552610cdc60208201610c9e565b60208601526040810151604086015201610c9e565b606083015256fe60806040526004361015610011575f80fd5b5f3560e01c80630b68321114613e6857806310e60d4d14613e3457806314a0069a14613db75780631573f68814613c7757806316e4cbf914613c515780631758efa014613bac5780631a45cde11461397f5780631b441c9c14613963578063221206b6146133635780632a027211146133475780632ef9a1601461332c5780632f4bd2a11461328757806333be940d1461319d5780633f4ba83a1461312a57806341ccbec31461304757806342169e481461302a578063489e424514612df55780634bdd758514612d3e57806356e1505814612c99578063590ffe8814612bb55780635ab0bd2014612b7d5780635b6a2da614612b5f5780635ba1022f14612b0b5780635c632b3814612a665780635c975abb14612a445780636db64d811461296657806370fad9c81461288d578063715018a61461283657806372a8f302146124e757806373da71d214612240578063777d31b314611eca5780637dc6c6e014611e9b578063809f96a4146118f25780638456cb591461187c5780638b654d171461183d5780638da5cb5b146118165780639201ea0a146117fa578063a2a5a2fb14611467578063aa98e851146110a8578063ba67021014610fdc578063baa40e5c14610e57578063c003003214610e3a578063c45a015514610df6578063c638407114610dd9578063d65c3bf614610d85578063d8d4d929146108f6578063eceed33914610779578063ed570e7d1461073c578063eed9fd0b146106cb578063ef97e126146105db578063f2fde38b14610556578063f6832643146104e4578063f839cd451461047d578063f84316f7146104255763f9d5ee7514610276575f80fd5b34610421576020366003190112610421576004355f60a060405161029981613f25565b828152606060208201526060604082015282606082015260606080820152015260ff60075416600681101561040d5760056102d5911415614641565b80151580610401575b156103bc575f52601860205260405f206040516102fa81613f25565b8154815261030a60018301614056565b91602082019283526103b161032160028301614056565b916040840192835260ff60038201541690606085019115158252610396600561034c60048401614056565b926080880193845201549460a0870195865261038360405198899860208a525160208a01525160c060408a015260e08901906140f6565b9051878203601f190160608901526140f6565b91511515608086015251848203601f190160a08601526140f6565b905160c08301520390f35b60405162461bcd60e51b815260206004820152601b60248201527f456c656374696f6e3a20496e76616c69642062616c6c6f7420494400000000006044820152606490fd5b506019548111156102de565b634e487b7160e01b5f52602160045260245ffd5b5f80fd5b34610421575f3660031901126104215761043d6149e2565b5060ff60075416600681101561040d57600561045a911415614641565b61047961046561430d565b6040519182916020835260208301906143e6565b0390f35b34610421576040366003190112610421576004356001600160401b038111610421576104ad90369060040161411a565b9060ff6007541690600682101561040d576020926104d160056104da941415614641565b60243591614a01565b6040519015158152f35b34610421575f366003190112610421576104fc614991565b5060ff60075416600681101561040d576005610519911415614641565b6080610523614339565b6105546040518092606080918051151584526020810151151560208501526040810151604085015201511515910152565bf35b346104215760203660031901126104215761056f61423a565b610577614de4565b6001600160a01b031680156105c8575f80546001600160a01b03198116831782556001600160a01b0316907f8be0079c531659141344cd1fd0a4f28419497f9722a3daafe3b4186f6b6457e09080a3005b631e4fbdf760e01b5f525f60045260245ffd5b34610421576105e936614177565b94939093929192335f52602160205260ff60405f20541680156106b7575b156106645760ff6007541696600688101561040d5761062b600261065e9914614498565b61065161064a61064461063f368686613f7c565b613fff565b5461401e565b15156144e3565b610659614a72565b61458f565b60018055005b60405162461bcd60e51b815260206004820152602560248201527f456c656374696f6e3a204e6f7420616e20617574686f72697a6564207061796d60448201526430b9ba32b960d91b6064820152608490fd5b506020546001600160a01b03163314610607565b34610421576107296020806106df36613fc1565b604051928184925191829101835e8101601e81520301902061047961070382614056565b91610715600360028301549201614056565b6040519485946060865260608601906140f6565b91602085015283820360408501526140f6565b34610421576020366003190112610421576001600160a01b0361075d61423a565b165f526021602052602060ff60405f2054166040519015158152f35b34610421575f3660031901126104215760405161079581613eef565b61079d614958565b81526107a76149e2565b60208201526107b4614991565b60408201526107c16149c3565b606082015260806107d0614991565b91015260ff60075416600681101561040d5760056107ef911415614641565b61086f6040516107fe81613eef565b6108066142b5565b815261081061430d565b602082019081526104796108c4610825614339565b604085019081526108346143b1565b606086019081526108b2610882610849614375565b9660808901978852604051998a9960208b525161016060208c01526101808b019061425d565b9051898203601f190160408b01526143e6565b92516060880190606080918051151584526020810151151560208501526040810151604085015201511515910152565b51858203601f190160e087015261440d565b915180511515610100850152602081015115156101208501526040810151610140850152606001511515610160840152565b34610421576080366003190112610421576004356001600160401b0381116104215761092690369060040161411a565b6024356001600160401b0381116104215761094590369060040161411a565b929091604435801515809103610421576064356001600160401b0381116104215761097490369060040161411a565b9061098a60018060a01b03600554163314614699565b60ff60075416600681101561040d576109a66005821415614641565b610d26576109b56019546149b5565b95866019556109e7604051916109ca83613f25565b8883526109d836888a613f7c565b99602084019a8b523691613f7c565b976040820198895260608201858152610a01368686613f7c565b99608084019a8b5260a08401924284528a5f52601860205260405f20945185556001850190518051906001600160401b038211610c4757610a4c82610a46855461401e565b8561483f565b602090601f8311600114610cc357610a7b92915f9183610bad575b50508160011b915f199060031b1c19161790565b90555b51805160028501916001600160401b038211610c4757610aa282610a46855461401e565b602090601f8311600114610c5b579180610ad692610af19695945f92610bad5750508160011b915f199060031b1c19161790565b90555b511515600384019060ff801983541691151516179055565b6004820198519889516001600160401b038111610c4757610b1c81610b16845461401e565b8461483f565b6020601f8211600114610bb85791610b7782610ba89998979695936005957f28afa223915618464d14cac44a0ac3771f04c4060c43556d923b9d66b23c5c469e9f5f92610bad5750508160011b915f199060031b1c19161790565b90555b51910155610b9560405196879660608852606088019161488e565b926020860152848303604086015261488e565b0390a2005b015190508f80610a67565b601f1982169b835f52815f209c5f5b818110610c2f5750927f28afa223915618464d14cac44a0ac3771f04c4060c43556d923b9d66b23c5c469c9d6005959360019383610ba89d9c9b9a999710610c17575b505050811b019055610b7a565b01515f1960f88460031b161c191690558e8080610c0a565b838301518f556001909e019d60209384019301610bc7565b634e487b7160e01b5f52604160045260245ffd5b90601f19831691845f52815f20925f5b818110610cab5750916001939185610af19897969410610c93575b505050811b019055610ad9565b01515f1960f88460031b161c191690558e8080610c86565b92936020600181928786015181550195019301610c6b565b90601f19831691845f52815f20925f5b818110610d0e5750908460019594939210610cf6575b505050811b019055610a7e565b01515f1960f88460031b161c191690558e8080610ce9565b92936020600181928786015181550195019301610cd3565b60405162461bcd60e51b815260206004820152603160248201527f456c656374696f6e3a2043616e206f6e6c79206164642062616c6c6f747320746044820152706f20647261667420656c656374696f6e7360781b6064820152608490fd5b34610421575f36600319011261042157610d9d6149c3565b5060ff60075416600681101561040d576005610dba911415614641565b610479610dc56143b1565b60405191829160208352602083019061440d565b34610421575f366003190112610421576020601f54604051908152f35b34610421575f366003190112610421576040517f00000000000000000000000000000000000000000000000000000000000000006001600160a01b03168152602090f35b34610421575f366003190112610421576020601954604051908152f35b34610421576020366003190112610421576004356001600160401b03811161042157610e8790369060040161411a565b90606080604051610e9781613f0a565b8181528160208201525f6040820152015260ff6007541690600682101561040d57610ec760056020931415614641565b8260405193849283378101601e815203019020604051610ee681613f0a565b610eef82614056565b81526001820191604051808460208296549384815201905f5260205f20925f5b818110610fc3575050610f2492500384613f5b565b60208201928352610f4360036002830154926040850193845201614056565b9060608301918252610f686040519360208552516080602086015260a08501906140f6565b935193601f19848203016040850152602080865192838152019501905f5b818110610fad57858061047989888851606085015251601f198483030160808501526140f6565b8251875260209687019690920191600101610f86565b8454835260019485019488945060209093019201610f0f565b346104215760203660031901126104215760043561100560018060a01b03600554163314614699565b60ff60075416600681101561040d576005611021911415614641565b805f52601c60205260ff60405f20541661104f575f908152601c60205260409020805460ff19166001179055005b60405162461bcd60e51b815260206004820152602b60248201527f456c656374696f6e3a20566f746572206b6579206861736820616c726561647960448201526a081c9959da5cdd195c995960aa1b6064820152608490fd5b34610421576080366003190112610421576110c161423a565b6024356001600160401b038111610421576110e090369060040161411a565b604435926110f960018060a01b03600554163314614699565b60ff60075416600681101561040d576005611115911415614641565b61112082151561476e565b61114761114160405184868237602081868101601a8152030190205461401e565b156147c5565b601d54600c5411156114235760405161115f81613eef565b61116a368486613f7c565b8152602081019160018060a01b0316918281526040820186815260608301905f8252608084019242845260405187898237602081898101601a81520301902094518051906001600160401b038211610c47576111d0826111ca895461401e565b8961483f565b602090601f83116001146113b7578261124e9593600498979593611208935f926113ac5750508160011b915f199060031b1c19161790565b87555b516001870180546001600160a01b039092166001600160a01b03199092169190911790555160028601555160038501805460ff191691151560ff16919091179055565b51910155805f52601b60205260405f20936001600160401b038311610c47576112818361127b875461401e565b8761483f565b5f94601f841160011461132b576112cf84807f5bb3f0972696ce3de4ea71cbd5639e249ef6d624ee4ca9bab6bfd36d74586d51985f91611320575b508160011b915f199060031b1c19161790565b90555b6064355f52601c60205260405f20600160ff198254161790556112f6601d546149b5565b601d5561131060405194859460608652606086019161488e565b91602084015260408301520390a1005b9050870135896112bc565b601f19841695815f5260205f20905f5b8881106113945750857f5bb3f0972696ce3de4ea71cbd5639e249ef6d624ee4ca9bab6bfd36d74586d51981061137b575b5050600184811b0190556112d2565b8601355f19600387901b60f8161c19169055868061136c565b9091602060018192858b01358155019301910161133b565b015190508e80610a67565b90601f19831691885f52815f20925f5b81811061140b575092600192859261124e989660049b9a9896106113f3575b505050811b01875561120b565b01515f1960f88460031b161c191690558d80806113e6565b929360206001819287860151815501950193016113c7565b606460405162461bcd60e51b815260206004820152602060248201527f456c656374696f6e3a204d6178696d756d20766f7465727320726561636865646044820152fd5b34610421576114753661444c565b909161148c60018060a01b03600554163314614699565b60ff60075416600681101561040d57806114ac60056114b2931415614641565b156148ae565b801515806117ef575b156117aa576113888211611765576001600160401b038111610c47576114e260035461401e565b601f8111611702575b505f601f821160011461168157819061151a9394955f926116765750508160011b915f199060031b1c19161790565b6003555b6001600160401b038111610c475761153760045461401e565b601f8111611613575b505f601f82116001146115b157819061156d935f926115a65750508160011b915f199060031b1c19161790565b6004555b6040516020815260096020820152686261736963496e666f60b81b60408201525f516020614e0b5f395f51905f5260603392a2005b013590508380610a67565b601f1982169260045f5260205f20915f5b8581106115fb575083600195106115e2575b505050811b01600455611571565b01355f19600384901b60f8161c191690558280806115d4565b909260206001819286860135815501940191016115c2565b60045f527f8a35acfbc15ff81a39ae7d344fd709f28e8600b4aa8c65c6b64bfe7fe36bd19b601f830160051c8101916020841061166c575b601f0160051c01905b8181106116615750611540565b5f8155600101611654565b909150819061164b565b013590508580610a67565b601f1982169460035f527fc2575a0e9e593c00f959f8c92f12db2869c3395a3b0502d05e2516446f71f85b915f5b8781106116ea5750836001959697106116d1575b505050811b0160035561151e565b01355f19600384901b60f8161c191690558480806116c3565b909260206001819286860135815501940191016116af565b60035f527fc2575a0e9e593c00f959f8c92f12db2869c3395a3b0502d05e2516446f71f85b601f830160051c8101916020841061175b575b601f0160051c01905b81811061175057506114eb565b5f8155600101611743565b909150819061173a565b60405162461bcd60e51b815260206004820152601e60248201527f456c656374696f6e3a204465736372697074696f6e20746f6f206c6f6e6700006044820152606490fd5b60405162461bcd60e51b815260206004820152601e60248201527f456c656374696f6e3a20496e76616c6964207469746c65206c656e67746800006044820152606490fd5b5060c88111156114bb565b34610421575f3660031901126104215760206040516113888152f35b34610421575f366003190112610421575f546040516001600160a01b039091168152602090f35b34610421575f36600319011261042157611855614991565b5060ff60075416600681101561040d576005611872911415614641565b6080610523614375565b34610421575f366003190112610421576118a160018060a01b03600554163314614699565b60025460ff81166118e35760019060ff1916176002557f62e78cea01bee320cd4e420270b5ea74000d11b0c9f74754ebdbfc544b05a2586020604051338152a1005b63d93c066560e01b5f5260045ffd5b34610421576020366003190112610421576004356001600160401b038111610421578060040190606060031982360301126104215761193c60018060a01b03600554163314614699565b60ff60075416600681101561040d57806114ac600561195c931415614641565b6107d06119698380614711565b905011611e485760248101906107d06119828385614711565b905011611df757604401906107d061199a8385614711565b905011611da0576119ab8380614711565b906001600160401b038211610c47576119c5600e5461401e565b601f8111611d3d575b505f90601f8311600114611cb6579180611a0192611a0b95945f92611cab5750508160011b915f199060031b1c19161790565b600e555b83614711565b92906001600160401b038411610c4757611a26600f5461401e565b601f8111611c48575b505f90601f8511600114611bc0579380611a6192611a69965f92611bb55750508160011b915f199060031b1c19161790565b600f55614711565b6001600160401b038111610c4757611a8260105461401e565b601f8111611b52575b505f601f8211600114611af0578190611ab8935f926115a65750508160011b915f199060031b1c19161790565b6010555b6040516020815260086020820152676d6573736167657360c01b60408201525f516020614e0b5f395f51905f5260603392a2005b601f1982169260105f5260205f20915f5b858110611b3a57508360019510611b21575b505050811b01601055611abc565b01355f19600384901b60f8161c19169055828080611b13565b90926020600181928686013581550194019101611b01565b60105f527f1b6847dc741a1b0cd08d278845f9d819d87b734759afb55fe2de5cb82a9ae672601f830160051c81019160208410611bab575b601f0160051c01905b818110611ba05750611a8b565b5f8155600101611b93565b9091508190611b8a565b013590508680610a67565b600f5f9081527f8d1108e10bcb7c27dddfc02ed9d693a074039d026cf4ea4240b40f7d581ac8029290601f198716905b818110611c305750916001939187611a69989410611c17575b505050811b01600f55614711565b01355f19600384901b60f8161c19169055858080611c09565b91936020600181928787013581550195019201611bf0565b600f5f527f8d1108e10bcb7c27dddfc02ed9d693a074039d026cf4ea4240b40f7d581ac802601f860160051c81019160208710611ca1575b601f0160051c01905b818110611c965750611a2f565b5f8155600101611c89565b9091508190611c80565b013590508780610a67565b601f19831691600e5f527fbb7b4a454dc3493923482f07822329ed19e8244eff582cc204f8554c3620c3fd925f5b818110611d255750916001939185611a0b97969410611d0c575b505050811b01600e55611a05565b01355f19600384901b60f8161c19169055868080611cfe565b91936020600181928787013581550195019201611ce4565b600e5f527fbb7b4a454dc3493923482f07822329ed19e8244eff582cc204f8554c3620c3fd601f840160051c81019160208510611d96575b601f0160051c01905b818110611d8b57506119ce565b5f8155600101611d7e565b9091508190611d75565b60405162461bcd60e51b815260206004820152602960248201527f456c656374696f6e3a20416674657220656c656374696f6e206d65737361676560448201526820746f6f206c6f6e6760b81b6064820152608490fd5b60405162461bcd60e51b8152602060048201526024808201527f456c656374696f6e3a20566f746520636f6e6669726d6174696f6e20746f6f206044820152636c6f6e6760e01b6064820152608490fd5b60405162461bcd60e51b815260206004820152602560248201527f456c656374696f6e3a204c6f67696e20696e737472756374696f6e7320746f6f604482015264206c6f6e6760d81b6064820152608490fd5b34610421576020366003190112610421576004355f52601c602052602060ff60405f2054166040519015158152f35b3461042157611ed83661444c565b92919060018060a01b03600554163314801561220e575b611ef89061490c565b60ff60075416600681101561040d576005611f14911415614641565b6001600160401b038211610c4757611f2d60145461401e565b601f81116121ab575b505f82601f81116001146121295780611f62925f9161211e57508160011b915f199060031b1c19161790565b6014555b6001600160401b038411610c4757611f7f60155461401e565b601f81116120bb575b505f93601f8111600114612014579081611fdb81612004947f0c970cd74a2e0bb138e53c257ec56c9aeb93356024036f45a34703737b62a393985f9161200957508160011b915f199060031b1c19161790565b6015555b611ff660405195869560408752604087019161488e565b91848303602086015261488e565b0390a1005b9050840135896112bc565b601f1981169460155f527f55f448fdea98c4d29eb340757ef0a66cd03dbb9538908a6a81d96026b71ec475955f5b8181106120a3575095829161200494937f0c970cd74a2e0bb138e53c257ec56c9aeb93356024036f45a34703737b62a393981061208a575b5050600181811b01601555611fdf565b8301355f19600384901b60f8161c19169055868061207a565b84830135885560019097019660209283019201612042565b60155f527f55f448fdea98c4d29eb340757ef0a66cd03dbb9538908a6a81d96026b71ec475601f860160051c81019160208710612114575b601f0160051c01905b8181106121095750611f88565b5f81556001016120fc565b90915081906120f3565b9050850135876112bc565b50601f1983169060145f52837fce6d7b5282bd9a3661ae061feed1dbda4e52ab073b1f9285be6e155d9c38d4ec925f5b818110612190575010612177575b5050600182811b01601455611f66565b8401355f19600385901b60f8161c191690558480612167565b87840135855560019094019360209384019387935001612159565b60145f527fce6d7b5282bd9a3661ae061feed1dbda4e52ab073b1f9285be6e155d9c38d4ec601f840160051c81019160208510612204575b601f0160051c01905b8181106121f95750611f36565b5f81556001016121ec565b90915081906121e3565b50337f00000000000000000000000000000000000000000000000000000000000000006001600160a01b031614611eef565b346104215760203660031901126104215760043560068110908115610421576005546001600160a01b0316331480156124b5575b61227d9061490c565b60ff6007541691600683101561040d5761229a6005841415614641565b5f82841461247057836123645761040d5760018214801561235a575b15612311575b1561040d577f54acea47b4dce95a26d5693884e87e30a7d7d2b0fe576ca2d8a5ffe7ef5104009161230e60409260ff196007541660ff82161760075561230484518094614250565b6020830190614250565ba1005b60405162461bcd60e51b815260206004820152602e60248201525f516020614e2b5f395f51905f5260448201526d1a5bdb88199c9bdb48111490519560921b6064820152608490fd5b50600482146122b6565b600184036123d65761040d576002821480156123cc575b6122bc5760405162461bcd60e51b815260206004820152603260248201525f516020614e2b5f395f51905f526044820152711a5bdb88199c9bdb4814d0d211511553115160721b6064820152608490fd5b506004821461237b565b50600283036124325760038203156122bc5760405162461bcd60e51b815260206004820152602f60248201525f516020614e2b5f395f51905f5260448201526e696f6e2066726f6d2041435449564560881b6064820152608490fd5b60405162461bcd60e51b815260206004820152602360248201525f516020614e2b5f395f51905f5260448201526234b7b760e91b6064820152608490fd5b60405162461bcd60e51b815260206004820152601a60248201527f456c656374696f6e3a2053746174757320756e6368616e6765640000000000006044820152606490fd5b50337f00000000000000000000000000000000000000000000000000000000000000006001600160a01b031614612274565b34610421576060366003190112610421576004356024356044356001600160401b0381116104215761251d90369060040161411a565b91909261253560018060a01b03600554163314614699565b60ff60075416600681101561040d576125516005821415614641565b428211156127de578183111561278557610e1061256e8385614984565b10612732576301e133806125828385614984565b116126e15761259190156148ae565b6008556009556001600160401b038111610c47576125b0600a5461401e565b601f811161267e575b505f601f821160011461261c5781906125e6935f926115a65750508160011b915f199060031b1c19161790565b600a555b60405160208152600660208201526574696d696e6760d01b60408201525f516020614e0b5f395f51905f5260603392a2005b601f19821692600a5f5260205f20915f5b8581106126665750836001951061264d575b505050811b01600a556125ea565b01355f19600384901b60f8161c1916905582808061263f565b9092602060018192868601358155019401910161262d565b600a5f527fc65a7bb8d6351c1cf70c95a316cc6a92839c986682d98bc35f958f4883f9d2a8601f830160051c810191602084106126d7575b601f0160051c01905b8181106126cc57506125b9565b5f81556001016126bf565b90915081906126b6565b60405162461bcd60e51b8152602060048201526024808201527f456c656374696f6e3a20456c656374696f6e206475726174696f6e20746f6f206044820152636c6f6e6760e01b6064820152608490fd5b60405162461bcd60e51b815260206004820152602560248201527f456c656374696f6e3a20456c656374696f6e206475726174696f6e20746f6f206044820152641cda1bdc9d60da1b6064820152608490fd5b60405162461bcd60e51b815260206004820152602b60248201527f456c656374696f6e3a20456e642074696d65206d75737420626520616674657260448201526a2073746172742074696d6560a81b6064820152608490fd5b60405162461bcd60e51b815260206004820152602a60248201527f456c656374696f6e3a2053746172742074696d65206d75737420626520696e206044820152697468652066757475726560b01b6064820152608490fd5b34610421575f3660031901126104215761284e614de4565b5f80546001600160a01b0319811682556001600160a01b03167f8be0079c531659141344cd1fd0a4f28419497f9722a3daafe3b4186f6b6457e08280a3005b34610421575f366003190112610421576128eb6128a86142b5565b6128b061430d565b6104796129356128be614339565b6128c66143b1565b6129286128f96128d4614375565b96604051998a996101608b526101608b019061425d565b9089820360208b01526143e6565b926040880190606080918051151584526020810151151560208501526040810151604085015201511515910152565b85820360c087015261440d565b8251151560e08501526020830151151561010085015260408301516101208501526060909201511515610140840152565b34610421575f366003190112610421576040515f6015546129868161401e565b8084529060018116908115612a2057506001146129c2575b610479836129ae81850382613f5b565b6040519182916020835260208301906140f6565b60155f9081527f55f448fdea98c4d29eb340757ef0a66cd03dbb9538908a6a81d96026b71ec475939250905b808210612a06575090915081016020016129ae61299e565b9192600181602092548385880101520191019092916129ee565b60ff191660208086019190915291151560051b840190910191506129ae905061299e565b34610421575f36600319011261042157602060ff600254166040519015158152f35b34610421576020366003190112610421576004355f52601860205260405f208054612a9360018301614056565b91612b01612aa360028301614056565b9160ff60038201541690612aec6005612abe60048401614056565b92015494612ade604051988998895260c060208a015260c08901906140f6565b9087820360408901526140f6565b911515606086015284820360808601526140f6565b9060a08301520390f35b34610421575f36600319011261042157612b23614958565b5060ff60075416600681101561040d576005612b40911415614641565b610479612b4b6142b5565b60405191829160208352602083019061425d565b34610421575f3660031901126104215760206040516301e133808152f35b34610421576020366003190112610421576001600160a01b03612b9e61423a565b165f52601b6020526104796129ae60405f20614056565b3461042157608036600319011261042157612bdb60018060a01b03600554163314614699565b60ff60075416600681101561040d57806114ac6005612bfb931415614641565b60043580151590818103610421575060ff8019600b5416911617600b5560243580151590818103610421575061ff00600b549160081b169061ff00191617600b55604435600c5560643580151590818103610421575060ff8019600d5416911617600d5560405160208152600e60208201526d766f74696e6753657474696e677360901b60408201525f516020614e0b5f395f51905f5260603392a2005b34610421575f366003190112610421576040515f601754612cb98161401e565b8084529060018116908115612a205750600114612ce057610479836129ae81850382613f5b565b60175f9081527fc624b66cc0138b8fabc209247f72d758e1cf3343756d543badbf24212bed8c15939250905b808210612d24575090915081016020016129ae61299e565b919260018160209254838588010152019101909291612d0c565b3461042157602036600319011261042157612d5761423a565b612d5f614616565b5060ff60075416600681101561040d576005612d7c911415614641565b60018060a01b03165f52601b602052610479612d9d61063f60405f20614056565b600460405191612dac83613eef565b612db581614056565b835260018060a01b0360018201541660208401526002810154604084015260ff6003820154161515606084015201546080820152604051918291826141ee565b34610421576020366003190112610421576004356001600160401b03811161042157612e2590369060040161411a565b9060018060a01b036005541633148015612ff8575b612e439061490c565b60ff60075416600681101561040d576005612e5f911415614641565b6001600160401b038211610c4757612e7860175461401e565b601f8111612f95575b505f91601f8111600114612ef557612ecf81807fc6597cda9aacba55693338dd2fddb98917d4ed808da6016d46099bca72707a0a955f91612eea57508160011b915f199060031b1c19161790565b6017555b61200460405192839260208452602084019161488e565b9050840135866112bc565b601f1981169260175f527fc624b66cc0138b8fabc209247f72d758e1cf3343756d543badbf24212bed8c15905f5b858110612f7d5750827fc6597cda9aacba55693338dd2fddb98917d4ed808da6016d46099bca72707a0a9510612f64575b5050600181811b01601755612ed3565b8301355f19600384901b60f8161c191690558380612f54565b90916020600181928588013581550193019101612f23565b60175f527fc624b66cc0138b8fabc209247f72d758e1cf3343756d543badbf24212bed8c15601f840160051c81019160208510612fee575b601f0160051c01905b818110612fe35750612e81565b5f8155600101612fd6565b9091508190612fcd565b50337f00000000000000000000000000000000000000000000000000000000000000006001600160a01b031614612e3a565b34610421575f366003190112610421576020601d54604051908152f35b346104215760803660031901126104215761306d60018060a01b03600554163314614699565b60ff60075416600681101561040d57806114ac600561308d931415614641565b60043580151590818103610421575060ff80196011541691161760115560243580151590818103610421575061ff006011549160081b169061ff0019161760115560443560125560643580151590818103610421575060ff80196013541691161760135560405160208152600d60208201526c726573756c7473436f6e66696760981b60408201525f516020614e0b5f395f51905f5260603392a2005b34610421575f3660031901126104215761314f60018060a01b03600554163314614699565b60025460ff81161561318e5760ff19166002557f5db9ee0a495bf2e6ff9c91a7834c1ba4fdd244a5e8aa4e537bd38aeae4b073aa6020604051338152a1005b638dfc202b60e01b5f5260045ffd5b34610421575f366003190112610421576131c260018060a01b03600554163314614699565b60ff60075416600681101561040d57806131e160056002931415614641565b1461323257600560ff1960075416176007557f54acea47b4dce95a26d5693884e87e30a7d7d2b0fe576ca2d8a5ffe7ef510400604060ff6007541661322882518092614250565b60056020820152a1005b60405162461bcd60e51b815260206004820152602760248201527f456c656374696f6e3a2043616e6e6f742064656c6574652061637469766520656044820152663632b1ba34b7b760c91b6064820152608490fd5b34610421575f366003190112610421576040515f6016546132a78161401e565b8084529060018116908115612a2057506001146132ce57610479836129ae81850382613f5b565b60165f9081527fd833147d7dc355ba459fc788f669e58cfaf9dc25ddcd0702e87d69c7b5124289939250905b808210613312575090915081016020016129ae61299e565b9192600181602092548385880101520191019092916132fa565b34610421575f36600319011261042157602060405160c88152f35b34610421575f3660031901126104215760206040516107d08152f35b34610421576080366003190112610421576004356001600160401b03811161042157613393903690600401614147565b906024356001600160401b038111610421576133b3903690600401614147565b90926044356001600160401b038111610421576133d4903690600401614147565b906064356001600160401b038111610421576133f490369060040161411a565b95909661340c60018060a01b03600554163314614699565b60ff60075416600681101561040d576005613428911415614641565b8585148061395a575b156139005761344286601d546146f0565b600c54106138a8575f5b8681106136095788888861346281601d546146f0565b601d556001600160401b038211610c475761347e60165461401e565b601f81116135a6575b505f92601f831160011461350157612004906134d984807f9b4816f3f223084847e3fee98962c3fb486d5ce616e6bf7c4623c13aaa4e6745975f916134f657508160011b915f199060031b1c19161790565b6016555b604051938493845260406020850152604084019161488e565b9050830135886112bc565b601f19831660165f527fd833147d7dc355ba459fc788f669e58cfaf9dc25ddcd0702e87d69c7b5124289905f5b81811061358e5750907f9b4816f3f223084847e3fee98962c3fb486d5ce616e6bf7c4623c13aaa4e67459585612004949310613575575b5050600184811b016016556134dd565b8201355f19600387901b60f8161c191690558580613565565b8387013583556020968701966001909301920161352e565b60165f527fd833147d7dc355ba459fc788f669e58cfaf9dc25ddcd0702e87d69c7b5124289601f840160051c810191602085106135ff575b601f0160051c01905b8181106135f45750613487565b5f81556001016135e7565b90915081906135de565b613620613617828985614743565b9050151561476e565b61364e6111416020613633848b87614743565b91908260405193849283378101601a8152030190205461401e565b8661365a828285614743565b919061366f61366a858b8961481b565b61482b565b9061369461367e868b8b61481b565b35916040519561368d87613eef565b3691613f7c565b8452602084019160018060a01b031682526040840190815260608401915f835260206136c88760808801964288528a614743565b91908260405193849283378101601a81520301902094518051906001600160401b038211610c47576136fe826111ca895461401e565b602090601f831160011461383d57826137369593600498979593611208935f926138325750508160011b915f199060031b1c19161790565b51910155613745818884614743565b6001600160a01b0361375b61366a858b8961481b565b165f52601b60205260405f20916001600160401b038211610c475761378482610a46855461401e565b5f90601f83116001146137ca5791806137b69260019695945f926137bf5750508160011b915f199060031b1c19161790565b90555b0161344c565b013590508e80610a67565b601f19831691845f5260205f20925f5b81811061381a575091600196959492918388959310613801575b505050811b0190556137b9565b01355f19600384901b60f8161c191690558d80806137f4565b919360206001819287870135815501950192016137da565b015190505f80610a67565b90601f19831691885f52815f20925f5b8181106138905750926001928592613736989660049b9a98961061387857505050811b01875561120b565b01515f1960f88460031b161c191690555f80806113e6565b9293602060018192878601518155019501930161384d565b60405162461bcd60e51b815260206004820152602a60248201527f456c656374696f6e3a204d6178696d756d20766f7465727320776f756c6420626044820152691948195e18d95959195960b21b6064820152608490fd5b60405162461bcd60e51b815260206004820152602c60248201527f456c656374696f6e3a20496e70757420617272617973206d757374206861766560448201526b040e6c2daca40d8cadccee8d60a31b6064820152608490fd5b50838614613431565b34610421575f366003190112610421576020604051610e108152f35b34610421576060366003190112610421576004356001600160401b038111610421576139af90369060040161411a565b6024356001600160401b038111610421576139ce903690600401614147565b6044929192356001600160401b038111610421576139f090369060040161411a565b93909260ff60075416600681101561040d576002613a0e9114614498565b613a2261064a61064461063f36858b613f7c565b613a2a614a72565b60405181878237602081838101601a8152030190209560018060a01b0360018801541633148015613ace575b15613a7457613a6f60ff600361065e9901541615614539565b614a92565b60405162461bcd60e51b815260206004820152602c60248201527f456c656374696f6e3a204e6f7420617574686f72697a656420746f20766f746560448201526b08199bdc881d1a1a5cc8125160a21b6064820152608490fd5b50335f52601b60205260405f206040516020810191815f825492613af18461401e565b9360018116908115613b8e5750600114613b4f575b50613b1a925003601f198101835282613f5b565b519020604051602081019084848337613b466020828781015f838201520301601f198101835282613f5b565b51902014613a56565b9150505f528160205f205f905b838210613b745750506020613b1a928201018c613b06565b602091925080600191548385880101520191018391613b5c565b60ff1916875250613b1a9380151502830160200191508d9050613b06565b34610421575f366003190112610421576040515f601454613bcc8161401e565b8084529060018116908115612a205750600114613bf357610479836129ae81850382613f5b565b60145f9081527fce6d7b5282bd9a3661ae061feed1dbda4e52ab073b1f9285be6e155d9c38d4ec939250905b808210613c37575090915081016020016129ae61299e565b919260018160209254838588010152019101909291613c1f565b34610421575f36600319011261042157602080546040516001600160a01b039091168152f35b3461042157604036600319011261042157613c9061423a565b6024358015159182820361042157613cb360018060a01b03600554163314614699565b60ff60075416600681101561040d576005613ccf911415614641565b6001600160a01b03168015613d66577f0ba954ed4db054456d0d2e300f12595c8afd19103c7c8a727c50a12d7966f04092613d2f838060409590613d53575b613d3c575b835f526021602052845f209060ff801983541691151516179055565b82519182526020820152a1005b602080546001600160a01b03191685179055613d13565b506020546001600160a01b031615613d0e565b60405162461bcd60e51b815260206004820152602360248201527f456c656374696f6e3a20496e76616c6964207061796d6173746572206164647260448201526265737360e81b6064820152608490fd5b34610421576020366003190112610421576004356001600160401b03811161042157613de790369060040161411a565b613def614616565b5060ff60075416600681101561040d5761047992613e1260056020931415614641565b8260405193849283378101601a815203019020600460405191612dac83613eef565b3461042157613e4236614177565b9460ff6007959295949394541696600688101561040d5761062b600261065e9914614498565b3461042157613ed4602080613e7c36613fc1565b604051928184925191829101835e8101601a815203019020613e9d81614056565b9060018060a01b0360018201541690600281015490600460ff6003830154169101549160405195869560a0875260a08701906140f6565b93602086015260408501521515606084015260808301520390f35b60a081019081106001600160401b03821117610c4757604052565b608081019081106001600160401b03821117610c4757604052565b60c081019081106001600160401b03821117610c4757604052565b606081019081106001600160401b03821117610c4757604052565b90601f801991011681019081106001600160401b03821117610c4757604052565b9291926001600160401b038211610c475760405191613fa5601f8201601f191660200184613f5b565b829481845281830111610421578281602093845f960137010152565b602060031982011261042157600435906001600160401b038211610421578060238301121561042157816024613ffc93600401359101613f7c565b90565b60208091604051928184925191829101835e8101601a81520301902090565b90600182811c9216801561404c575b602083101461403857565b634e487b7160e01b5f52602260045260245ffd5b91607f169161402d565b9060405191825f8254926140698461401e565b80845293600181169081156140d45750600114614090575b5061408e92500383613f5b565b565b90505f9291925260205f20905f915b8183106140b857505090602061408e928201015f614081565b602091935080600191548385890101520191019091849261409f565b90506020925061408e94915060ff191682840152151560051b8201015f614081565b805180835260209291819084018484015e5f828201840152601f01601f1916010190565b9181601f84011215610421578235916001600160401b038311610421576020838186019501011161042157565b9181601f84011215610421578235916001600160401b038311610421576020808501948460051b01011161042157565b906080600319830112610421576004356001600160401b03811161042157826141a29160040161411a565b92909291602435916044356001600160401b03811161042157816141c891600401614147565b92909291606435906001600160401b038211610421576141ea9160040161411a565b9091565b6020815260a0608061420b845183602086015260c08501906140f6565b93600180841b036020820151166040850152604081015160608501526060810151151582850152015191015290565b600435906001600160a01b038216820361042157565b90600682101561040d5752565b90613ffc9060808061428d61427b865160a0865260a08601906140f6565b602087015185820360208701526140f6565b6040808701516001600160a01b03169085015260608087015190850152940151910190614250565b604051906142c282613eef565b816142cd6003614056565b81526142d96004614056565b60208201526005546001600160a01b0316604082015260068054606083015260075460ff16919082101561040d5760800152565b6040519061431a82613f40565b81600854815260095460208201526040614334600a614056565b910152565b6040519061434682613f0a565b8160ff600b548181161515835260081c1615156020820152600c546040820152606060ff600d54161515910152565b6040519061438282613f0a565b8160ff6011548181161515835260081c16151560208201526012546040820152606060ff601354161515910152565b604051906143be82613f40565b816143c9600e614056565b81526143d5600f614056565b602082015260406143346010614056565b9060606040613ffc93805184526020810151602085015201519181604082015201906140f6565b613ffc91604061443b61442984516060855260608501906140f6565b602085015184820360208601526140f6565b9201519060408184039101526140f6565b6040600319820112610421576004356001600160401b03811161042157816144769160040161411a565b92909291602435906001600160401b038211610421576141ea9160040161411a565b1561449f57565b606460405162461bcd60e51b815260206004820152602060248201527f456c656374696f6e3a20456c656374696f6e206973206e6f74206163746976656044820152fd5b156144ea57565b60405162461bcd60e51b815260206004820152602160248201527f456c656374696f6e3a20566f746572206973206e6f74207265676973746572656044820152601960fa1b6064820152608490fd5b1561454057565b60405162461bcd60e51b815260206004820152602160248201527f456c656374696f6e3a20566f7465722068617320616c726561647920766f74656044820152601960fa1b6064820152608490fd5b95949392915f52601c60205260ff60405f205416156145d15761408e95613a6f60ff600360405185858237602081878101601a81520301902001541615614539565b60405162461bcd60e51b815260206004820152601b60248201527f456c656374696f6e3a20496e76616c696420766f746572206b657900000000006044820152606490fd5b6040519061462382613eef565b5f608083606081528260208201528260408201528260608201520152565b1561464857565b60405162461bcd60e51b815260206004820152602360248201527f456c656374696f6e3a20456c656374696f6e20686173206265656e2064656c656044820152621d195960ea1b6064820152608490fd5b156146a057565b60405162461bcd60e51b815260206004820152602260248201527f456c656374696f6e3a204e6f742074686520656c656374696f6e20637265617460448201526137b960f11b6064820152608490fd5b919082018092116146fd57565b634e487b7160e01b5f52601160045260245ffd5b903590601e198136030182121561042157018035906001600160401b0382116104215760200191813603831361042157565b9082101561475a576141ea9160051b810190614711565b634e487b7160e01b5f52603260045260245ffd5b1561477557565b60405162461bcd60e51b815260206004820152602260248201527f456c656374696f6e3a20566f7465722049442063616e6e6f7420626520656d70604482015261747960f01b6064820152608490fd5b156147cc57565b60405162461bcd60e51b815260206004820152602160248201527f456c656374696f6e3a20566f74657220494420616c72656164792065786973746044820152607360f81b6064820152608490fd5b919081101561475a5760051b0190565b356001600160a01b03811681036104215790565b601f821161484c57505050565b5f5260205f20906020601f840160051c83019310614884575b601f0160051c01905b818110614879575050565b5f815560010161486e565b9091508190614865565b908060209392818452848401375f828201840152601f01601f1916010190565b156148b557565b60405162461bcd60e51b815260206004820152602960248201527f456c656374696f6e3a2043616e206f6e6c792075706461746520647261667420604482015268656c656374696f6e7360b81b6064820152608490fd5b1561491357565b60405162461bcd60e51b815260206004820152601860248201527f456c656374696f6e3a204e6f7420617574686f72697a656400000000000000006044820152606490fd5b6040519061496582613eef565b5f60808360608152606060208201528260408201528260608201520152565b919082039182116146fd57565b6040519061499e82613f0a565b5f6060838281528260208201528260408201520152565b5f1981146146fd5760010190565b604051906149d082613f40565b60606040838281528260208201520152565b604051906149ef82613f40565b60606040835f81525f60208201520152565b9091614a2160405184848237602081868101601a8152030190205461401e565b15614a6b575f52601c60205260ff60405f20541615614a655781602060039260ff9460405193849283378101601a815203019020015416614a6157600190565b5f90565b50505f90565b5050505f90565b600260015414614a83576002600155565b633ee5aeb560e01b5f5260045ffd5b93919594909295600360405185878237602081878101601a81520301902001600160ff1982541617905560405190614ac982613f0a565b614ad4368688613f7c565b82526001600160401b038811610c47578760051b60405198614af9602083018b613f5b565b8952602089019082019136831161042157905b828210614dd4575050506020810196875260408101428152614b2f368486613f7c565b976060830198895260405186888237602081888101601e81520301902092518051906001600160401b038211610c4757614b6d8261127b875461401e565b602090601f8311600114614d7157614b9b92915f91836138325750508160011b915f199060031b1c19161790565b83555b5180519060018401906001600160401b038311610c4757680100000000000000008311610c47578154838355808410614d4b575b50602001905f5260205f205f5b838110614d375750505050906003915160028201550195519586516001600160401b038111610c4757614c1681610b16845461401e565b6020601f8211600114614cad5781614ca895949392614c6c927f46aaf64fc4e86be28e38c6963bbc17b99f46b01d7333985a9176ac92d0d6f6289a9b5f926138325750508160011b915f199060031b1c19161790565b90555b614c7a601f546149b5565b601f55614c9460405195869560608752606087019161488e565b91426020860152848303604086015261488e565b0390a1565b601f19821698835f52815f20995f5b818110614d1f5750996001928492614ca8989796957f46aaf64fc4e86be28e38c6963bbc17b99f46b01d7333985a9176ac92d0d6f6289c9d10614d07575b505050811b019055614c6f565b01515f1960f88460031b161c191690555f8080614cfa565b838301518c556001909b019a60209384019301614cbc565b600190602084519401938184015501614bdf565b825f528360205f2091820191015b818110614d665750614bd2565b5f8155600101614d59565b90601f19831691865f52815f20925f5b818110614dbc5750908460019594939210614da4575b505050811b018355614b9e565b01515f1960f88460031b161c191690555f8080614d97565b92936020600181928786015181550195019301614d81565b8135815260209182019101614b0c565b5f546001600160a01b03163303614df757565b63118cdaa760e01b5f523360045260245ffdfe8cfcd2db34f1dff07e39e688dd39a0a2e86a9efdddf6c5a467b1b38f104da93e456c656374696f6e3a20496e76616c696420737461747573207472616e736974a2646970667358221220b212caff20ab88a9f688e9d15eadca453aae9723a49449ce7f2335eb69a4ebe164736f6c634300081c0033","linkReferences":{}},"methodIdentifiers":{"MAX_DESCRIPTION_LENGTH()":"9201ea0a","MAX_ELECTION_DURATION()":"5b6a2da6","MAX_MESSAGE_LENGTH()":"2a027211","MAX_TITLE_LENGTH()":"2ef9a160","MIN_ELECTION_DURATION()":"1b441c9c","addBallot(string,string,bool,string)":"d8d4d929","addElectionMetadata(string,string)":"777d31b3","addVoter(address,string,uint256,bytes32)":"aa98e851","addVoters(address[],string[],uint256[],string)":"221206b6","authorizedPaymasters(address)":"ed570e7d","ballotCount()":"c0030032","ballotMetadataUri()":"6db64d81","ballots(uint256)":"5c632b38","castVote(string,bytes32[],string)":"1a45cde1","castVoteWithKey(string,bytes32,bytes32[],string)":"10e60d4d","castVoteWithPaymaster(string,bytes32,bytes32[],string)":"ef97e126","changeElectionStatus(uint8)":"73da71d2","deleteElection()":"33be940d","electionConfig()":"70fad9c8","electionMetadataUri()":"1758efa0","electionUrl()":"56e15058","factory()":"c45a0155","getBallot(uint256)":"f9d5ee75","getElection()":"eceed339","getElectionBasicInfo()":"5ba1022f","getElectionMessages()":"d65c3bf6","getElectionTiming()":"f84316f7","getResultsConfig()":"8b654d17","getVote(string)":"baa40e5c","getVoter(string)":"14a0069a","getVoterByAddress(address)":"4bdd7585","getVotingSettings()":"f6832643","owner()":"8da5cb5b","pause()":"8456cb59","paused()":"5c975abb","paymaster()":"16e4cbf9","registerVoterKey(bytes32)":"ba670210","renounceOwnership()":"715018a6","setElectionUrl(string)":"489e4245","setPaymaster(address,bool)":"1573f688","transferOwnership(address)":"f2fde38b","unpause()":"3f4ba83a","updateElectionBasicInfo(string,string)":"a2a5a2fb","updateElectionMessages((string,string,string))":"809f96a4","updateElectionTiming(uint256,uint256,string)":"72a8f302","updateResultsConfig((bool,bool,uint256,bool))":"41ccbec3","updateVotingSettings((bool,bool,uint256,bool))":"590ffe88","verifyVoterAccess(string,bytes32)":"f839cd45","voteCount()":"c6384071","voterCount()":"42169e48","voterIdsByAddress(address)":"5ab0bd20","voterKeyHashes(bytes32)":"7dc6c6e0","voterMetadataUri()":"2f4bd2a1","votersByVoterId(string)":"0b683211","votesByVoterId(string)":"eed9fd0b"},"id":39}