{"abi":[{"type":"constructor","inputs":[{"name":"_creator","type":"address","internalType":"address"},{"name":"_title","type":"string","internalType":"string"},{"name":"_description","type":"string","internalType":"string"},{"name":"_startTime","type":"uint256","internalType":"uint256"},{"name":"_endTime","type":"uint256","internalType":"uint256"},{"name":"_timezone","type":"string","internalType":"string"},{"name":"_weightedVoting","type":"bool","internalType":"bool"},{"name":"_ballotReceipt","type":"bool","internalType":"bool"},{"name":"_submitConfirmation","type":"bool","internalType":"bool"},{"name":"_maxVotersCount","type":"uint256","internalType":"uint256"},{"name":"_allowVoterRegistration","type":"bool","internalType":"bool"},{"name":"_loginInstructions","type":"string","internalType":"string"},{"name":"_voteConfirmation","type":"string","internalType":"string"},{"name":"_afterElectionMessage","type":"string","internalType":"string"},{"name":"_publicResults","type":"bool","internalType":"bool"},{"name":"_realTimeResults","type":"bool","internalType":"bool"},{"name":"_resultsReleaseTime","type":"uint256","internalType":"uint256"},{"name":"_allowResultsDownload","type":"bool","internalType":"bool"}],"stateMutability":"nonpayable"},{"type":"function","name":"MAX_DESCRIPTION_LENGTH","inputs":[],"outputs":[{"name":"","type":"uint256","internalType":"uint256"}],"stateMutability":"view"},{"type":"function","name":"MAX_ELECTION_DURATION","inputs":[],"outputs":[{"name":"","type":"uint256","internalType":"uint256"}],"stateMutability":"view"},{"type":"function","name":"MAX_MESSAGE_LENGTH","inputs":[],"outputs":[{"name":"","type":"uint256","internalType":"uint256"}],"stateMutability":"view"},{"type":"function","name":"MAX_TITLE_LENGTH","inputs":[],"outputs":[{"name":"","type":"uint256","internalType":"uint256"}],"stateMutability":"view"},{"type":"function","name":"MIN_ELECTION_DURATION","inputs":[],"outputs":[{"name":"","type":"uint256","internalType":"uint256"}],"stateMutability":"view"},{"type":"function","name":"changeElectionStatus","inputs":[{"name":"_newStatus","type":"uint8","internalType":"enum ElectionSetup.ElectionStatus"}],"outputs":[],"stateMutability":"nonpayable"},{"type":"function","name":"deleteElection","inputs":[],"outputs":[],"stateMutability":"nonpayable"},{"type":"function","name":"electionConfig","inputs":[],"outputs":[{"name":"basicInfo","type":"tuple","internalType":"struct ElectionSetup.ElectionBasicInfo","components":[{"name":"title","type":"string","internalType":"string"},{"name":"description","type":"string","internalType":"string"},{"name":"creator","type":"address","internalType":"address"},{"name":"createdAt","type":"uint256","internalType":"uint256"},{"name":"status","type":"uint8","internalType":"enum ElectionSetup.ElectionStatus"}]},{"name":"timing","type":"tuple","internalType":"struct ElectionSetup.ElectionTiming","components":[{"name":"startTime","type":"uint256","internalType":"uint256"},{"name":"endTime","type":"uint256","internalType":"uint256"},{"name":"timezone","type":"string","internalType":"string"}]},{"name":"votingSettings","type":"tuple","internalType":"struct ElectionSetup.VotingSettings","components":[{"name":"weightedVoting","type":"bool","internalType":"bool"},{"name":"ballotReceipt","type":"bool","internalType":"bool"},{"name":"submitConfirmation","type":"bool","internalType":"bool"},{"name":"maxVotersCount","type":"uint256","internalType":"uint256"},{"name":"allowVoterRegistration","type":"bool","internalType":"bool"}]},{"name":"messages","type":"tuple","internalType":"struct ElectionSetup.ElectionMessages","components":[{"name":"loginInstructions","type":"string","internalType":"string"},{"name":"voteConfirmation","type":"string","internalType":"string"},{"name":"afterElectionMessage","type":"string","internalType":"string"}]},{"name":"resultsConfig","type":"tuple","internalType":"struct ElectionSetup.ResultsConfig","components":[{"name":"publicResults","type":"bool","internalType":"bool"},{"name":"realTimeResults","type":"bool","internalType":"bool"},{"name":"resultsReleaseTime","type":"uint256","internalType":"uint256"},{"name":"allowResultsDownload","type":"bool","internalType":"bool"}]}],"stateMutability":"view"},{"type":"function","name":"factory","inputs":[],"outputs":[{"name":"","type":"address","internalType":"address"}],"stateMutability":"view"},{"type":"function","name":"getElection","inputs":[],"outputs":[{"name":"","type":"tuple","internalType":"struct ElectionSetup.ElectionConfig","components":[{"name":"basicInfo","type":"tuple","internalType":"struct ElectionSetup.ElectionBasicInfo","components":[{"name":"title","type":"string","internalType":"string"},{"name":"description","type":"string","internalType":"string"},{"name":"creator","type":"address","internalType":"address"},{"name":"createdAt","type":"uint256","internalType":"uint256"},{"name":"status","type":"uint8","internalType":"enum ElectionSetup.ElectionStatus"}]},{"name":"timing","type":"tuple","internalType":"struct ElectionSetup.ElectionTiming","components":[{"name":"startTime","type":"uint256","internalType":"uint256"},{"name":"endTime","type":"uint256","internalType":"uint256"},{"name":"timezone","type":"string","internalType":"string"}]},{"name":"votingSettings","type":"tuple","internalType":"struct ElectionSetup.VotingSettings","components":[{"name":"weightedVoting","type":"bool","internalType":"bool"},{"name":"ballotReceipt","type":"bool","internalType":"bool"},{"name":"submitConfirmation","type":"bool","internalType":"bool"},{"name":"maxVotersCount","type":"uint256","internalType":"uint256"},{"name":"allowVoterRegistration","type":"bool","internalType":"bool"}]},{"name":"messages","type":"tuple","internalType":"struct ElectionSetup.ElectionMessages","components":[{"name":"loginInstructions","type":"string","internalType":"string"},{"name":"voteConfirmation","type":"string","internalType":"string"},{"name":"afterElectionMessage","type":"string","internalType":"string"}]},{"name":"resultsConfig","type":"tuple","internalType":"struct ElectionSetup.ResultsConfig","components":[{"name":"publicResults","type":"bool","internalType":"bool"},{"name":"realTimeResults","type":"bool","internalType":"bool"},{"name":"resultsReleaseTime","type":"uint256","internalType":"uint256"},{"name":"allowResultsDownload","type":"bool","internalType":"bool"}]}]}],"stateMutability":"view"},{"type":"function","name":"getElectionBasicInfo","inputs":[],"outputs":[{"name":"","type":"tuple","internalType":"struct ElectionSetup.ElectionBasicInfo","components":[{"name":"title","type":"string","internalType":"string"},{"name":"description","type":"string","internalType":"string"},{"name":"creator","type":"address","internalType":"address"},{"name":"createdAt","type":"uint256","internalType":"uint256"},{"name":"status","type":"uint8","internalType":"enum ElectionSetup.ElectionStatus"}]}],"stateMutability":"view"},{"type":"function","name":"getElectionMessages","inputs":[],"outputs":[{"name":"","type":"tuple","internalType":"struct ElectionSetup.ElectionMessages","components":[{"name":"loginInstructions","type":"string","internalType":"string"},{"name":"voteConfirmation","type":"string","internalType":"string"},{"name":"afterElectionMessage","type":"string","internalType":"string"}]}],"stateMutability":"view"},{"type":"function","name":"getElectionTiming","inputs":[],"outputs":[{"name":"","type":"tuple","internalType":"struct ElectionSetup.ElectionTiming","components":[{"name":"startTime","type":"uint256","internalType":"uint256"},{"name":"endTime","type":"uint256","internalType":"uint256"},{"name":"timezone","type":"string","internalType":"string"}]}],"stateMutability":"view"},{"type":"function","name":"getResultsConfig","inputs":[],"outputs":[{"name":"","type":"tuple","internalType":"struct ElectionSetup.ResultsConfig","components":[{"name":"publicResults","type":"bool","internalType":"bool"},{"name":"realTimeResults","type":"bool","internalType":"bool"},{"name":"resultsReleaseTime","type":"uint256","internalType":"uint256"},{"name":"allowResultsDownload","type":"bool","internalType":"bool"}]}],"stateMutability":"view"},{"type":"function","name":"getVotingSettings","inputs":[],"outputs":[{"name":"","type":"tuple","internalType":"struct ElectionSetup.VotingSettings","components":[{"name":"weightedVoting","type":"bool","internalType":"bool"},{"name":"ballotReceipt","type":"bool","internalType":"bool"},{"name":"submitConfirmation","type":"bool","internalType":"bool"},{"name":"maxVotersCount","type":"uint256","internalType":"uint256"},{"name":"allowVoterRegistration","type":"bool","internalType":"bool"}]}],"stateMutability":"view"},{"type":"function","name":"owner","inputs":[],"outputs":[{"name":"","type":"address","internalType":"address"}],"stateMutability":"view"},{"type":"function","name":"pause","inputs":[],"outputs":[],"stateMutability":"nonpayable"},{"type":"function","name":"paused","inputs":[],"outputs":[{"name":"","type":"bool","internalType":"bool"}],"stateMutability":"view"},{"type":"function","name":"renounceOwnership","inputs":[],"outputs":[],"stateMutability":"nonpayable"},{"type":"function","name":"transferOwnership","inputs":[{"name":"newOwner","type":"address","internalType":"address"}],"outputs":[],"stateMutability":"nonpayable"},{"type":"function","name":"unpause","inputs":[],"outputs":[],"stateMutability":"nonpayable"},{"type":"function","name":"updateElectionBasicInfo","inputs":[{"name":"_title","type":"string","internalType":"string"},{"name":"_description","type":"string","internalType":"string"}],"outputs":[],"stateMutability":"nonpayable"},{"type":"function","name":"updateElectionMessages","inputs":[{"name":"_messages","type":"tuple","internalType":"struct ElectionSetup.ElectionMessages","components":[{"name":"loginInstructions","type":"string","internalType":"string"},{"name":"voteConfirmation","type":"string","internalType":"string"},{"name":"afterElectionMessage","type":"string","internalType":"string"}]}],"outputs":[],"stateMutability":"nonpayable"},{"type":"function","name":"updateElectionTiming","inputs":[{"name":"_startTime","type":"uint256","internalType":"uint256"},{"name":"_endTime","type":"uint256","internalType":"uint256"},{"name":"_timezone","type":"string","internalType":"string"}],"outputs":[],"stateMutability":"nonpayable"},{"type":"function","name":"updateResultsConfig","inputs":[{"name":"_resultsConfig","type":"tuple","internalType":"struct ElectionSetup.ResultsConfig","components":[{"name":"publicResults","type":"bool","internalType":"bool"},{"name":"realTimeResults","type":"bool","internalType":"bool"},{"name":"resultsReleaseTime","type":"uint256","internalType":"uint256"},{"name":"allowResultsDownload","type":"bool","internalType":"bool"}]}],"outputs":[],"stateMutability":"nonpayable"},{"type":"function","name":"updateVotingSettings","inputs":[{"name":"_settings","type":"tuple","internalType":"struct ElectionSetup.VotingSettings","components":[{"name":"weightedVoting","type":"bool","internalType":"bool"},{"name":"ballotReceipt","type":"bool","internalType":"bool"},{"name":"submitConfirmation","type":"bool","internalType":"bool"},{"name":"maxVotersCount","type":"uint256","internalType":"uint256"},{"name":"allowVoterRegistration","type":"bool","internalType":"bool"}]}],"outputs":[],"stateMutability":"nonpayable"},{"type":"event","name":"ElectionStatusChanged","inputs":[{"name":"oldStatus","type":"uint8","indexed":false,"internalType":"enum ElectionSetup.ElectionStatus"},{"name":"newStatus","type":"uint8","indexed":false,"internalType":"enum ElectionSetup.ElectionStatus"}],"anonymous":false},{"type":"event","name":"ElectionUpdated","inputs":[{"name":"updater","type":"address","indexed":true,"internalType":"address"},{"name":"field","type":"string","indexed":false,"internalType":"string"}],"anonymous":false},{"type":"event","name":"OwnershipTransferred","inputs":[{"name":"previousOwner","type":"address","indexed":true,"internalType":"address"},{"name":"newOwner","type":"address","indexed":true,"internalType":"address"}],"anonymous":false},{"type":"event","name":"Paused","inputs":[{"name":"account","type":"address","indexed":false,"internalType":"address"}],"anonymous":false},{"type":"event","name":"Unpaused","inputs":[{"name":"account","type":"address","indexed":false,"internalType":"address"}],"anonymous":false},{"type":"error","name":"EnforcedPause","inputs":[]},{"type":"error","name":"ExpectedPause","inputs":[]},{"type":"error","name":"OwnableInvalidOwner","inputs":[{"name":"owner","type":"address","internalType":"address"}]},{"type":"error","name":"OwnableUnauthorizedAccount","inputs":[{"name":"account","type":"address","internalType":"address"}]},{"type":"error","name":"ReentrancyGuardReentrantCall","inputs":[]}],"bytecode":{"object":"0x60c06040523462000c7657620033b080380380916200001e8262000cba565b60a05260a0513961024060a0518260a05101031262000c765760a051516001600160a01b038116810362000c765760a051602001516001600160401b03811162000c765760a0516200007591818501910162000ce0565b60a051604001519091906001600160401b03811162000c765760a051620000a191818601910162000ce0565b90606060a051015193608060a051015160a08051015160018060401b03811162000c765760a051620000d891818501910162000ce0565b90620000e960c060a0510162000d50565b620000f960e060a0510162000d50565b6200010a61010060a0510162000d50565b9161012060a0510151916200012561014060a0510162000d50565b60a05161016001519094906001600160401b03811162000c765760a0516200015291818b01910162000ce0565b60a05161018001519097906001600160401b03811162000c765760a0516200017f91818c01910162000ce0565b60a0516101a001519099906001600160401b03811162000c765760a051620001ab928101910162000ce0565b96620001bd6101c060a0510162000d50565b9d620001cf6101e060a0510162000d50565b9c61020060a05101519e620001ea61022060a0510162000d50565b9d6001600160a01b0381161562000c5e575f80546001600160a01b038381166001600160a01b0319831681178455929116907f8be0079c531659141344cd1fd0a4f28419497f9722a3daafe3b4186f6b6457e09080a360018055336080526200025262000c7a565b82815260208101939093526001600160a01b031660408301524260608301525f60808301528051906001600160401b0382116200066957600354908160011c91600181161562000c53575b6001166020831014620007615781601f84931162000be3575b50602090601f831160011462000b56575f9262000b4a575b50508160011b915f199060031b1c1916176003555b60208101518051906001600160401b0382116200066957600454600181811c9116801562000b3f575b60208210146200076157601f811162000adb575b50602090601f831160011462000a6b5760809392915f918362000a5f575b50508160011b915f199060031b1c1916176004555b60018060a01b0360408201511660018060a01b0319600554161760055560608101516006550151600681101562000a4b5760ff8019600754169116176007558260406200039f62000c9a565b8381526020810185905201526008556009558051906001600160401b0382116200066957600a54600181811c9116801562000a40575b60208210146200076157601f8111620009dc575b50602090601f83116001146200096b5761ff009392915f91836200095f575b50508160011b915f199060031b1c191617600a555b6200042762000c7a565b841515815283151560208201528115156040820152856060820152608087151591015260ff62ff0000600b5492151560101b16941515169062ffffff19161791151560081b161717600b55600c5560ff8019600d54169115151617600d556200048f62000c9a565b828152602081019390935260408301528051906001600160401b0382116200066957600e5490600182811c9216801562000954575b6020831014620007615781601f849311620008f6575b50602090601f83116001146200087b575f926200086f575b50508160011b915f199060031b1c191617600e555b60208101518051906001600160401b0382116200066957600f54600181811c9116801562000864575b60208210146200076157601f8111620007fc575b50602090601f83116001146200078c5760409392915f918362000780575b50508160011b915f199060031b1c191617600f555b01518051906001600160401b038211620006695760105490600182811c9216801562000775575b6020831014620007615781601f84931162000700575b50602090601f831160011462000689575f926200067d575b50508160011b915f199060031b1c1916176010555b60405160808101946001600160401b0386118287101762000669576060956040521515928382521515918260208301528460408301521515948591015260ff61ff006011549260081b1692169061ffff1916171760115560125560ff801960135416911617601355604051612611908162000d5f823960805181818161045d01526112a60152f35b634e487b7160e01b5f52604160045260245ffd5b015190505f80620005cc565b60105f9081525f80516020620033908339815191529350601f198516905b818110620006e75750908460019594939210620006ce575b505050811b01601055620005e1565b01515f1960f88460031b161c191690555f8080620006bf565b92936020600181928786015181550195019301620006a7565b60105f529091505f8051602062003390833981519152601f840160051c8101916020851062000756575b90601f859493920160051c01905b818110620007475750620005b4565b5f815584935060010162000738565b90915081906200072a565b634e487b7160e01b5f52602260045260245ffd5b91607f16916200059e565b015190505f8062000562565b90600f5f5260205f20915f5b601f1985168110620007e3575091839160019360409695601f19811610620007ca575b505050811b01600f5562000577565b01515f1960f88460031b161c191690555f8080620007bb565b9192602060018192868501518155019401920162000798565b600f5f527f8d1108e10bcb7c27dddfc02ed9d693a074039d026cf4ea4240b40f7d581ac802601f840160051c8101916020851062000859575b601f0160051c01905b8181106200084d575062000544565b5f81556001016200083e565b909150819062000835565b90607f169062000530565b015190505f80620004f2565b600e5f90815293505f805160206200337083398151915291905b601f1984168510620008da576001945083601f19811610620008c1575b505050811b01600e5562000507565b01515f1960f88460031b161c191690555f8080620008b2565b8181015183556020948501946001909301929091019062000895565b600e5f529091505f8051602062003370833981519152601f840160051c8101602085106200094c575b90849392915b601f830160051c820181106200093d575050620004da565b5f815585945060010162000925565b50806200091f565b91607f1691620004c4565b015190505f8062000408565b90600a5f5260205f20915f5b601f1985168110620009c3575091839160019361ff009695601f19811610620009aa575b505050811b01600a556200041d565b01515f1960f88460031b161c191690555f80806200099b565b9192602060018192868501518155019401920162000977565b600a5f527fc65a7bb8d6351c1cf70c95a316cc6a92839c986682d98bc35f958f4883f9d2a8601f840160051c81016020851062000a38575b601f830160051c8201811062000a2c575050620003e9565b5f815560010162000a14565b508062000a14565b90607f1690620003d5565b634e487b7160e01b5f52602160045260245ffd5b015190505f806200033e565b9060045f5260205f20915f5b601f198516811062000ac2575091839160019360809695601f1981161062000aa9575b505050811b0160045562000353565b01515f1960f88460031b161c191690555f808062000a9a565b9192602060018192868501518155019401920162000a77565b60045f527f8a35acfbc15ff81a39ae7d344fd709f28e8600b4aa8c65c6b64bfe7fe36bd19b601f840160051c81016020851062000b37575b601f830160051c8201811062000b2b57505062000320565b5f815560010162000b13565b508062000b13565b90607f16906200030c565b015190505f80620002ce565b60035f90815293507fc2575a0e9e593c00f959f8c92f12db2869c3395a3b0502d05e2516446f71f85b91905b601f198416851062000bc7576001945083601f1981161062000bae575b505050811b01600355620002e3565b01515f1960f88460031b161c191690555f808062000b9f565b8181015183556020948501946001909301929091019062000b82565b60035f529091507fc2575a0e9e593c00f959f8c92f12db2869c3395a3b0502d05e2516446f71f85b601f840160051c81016020851062000c4b575b90849392915b601f830160051c8201811062000c3c575050620002b6565b5f815585945060010162000c24565b508062000c1e565b91607f16916200029d565b604051631e4fbdf760e01b81525f6004820152602490fd5b5f80fd5b6040519060a082016001600160401b038111838210176200066957604052565b60405190606082016001600160401b038111838210176200066957604052565b6040519190601f01601f191682016001600160401b038111838210176200066957604052565b919080601f8401121562000c765782516001600160401b038111620006695760209062000d16601f8201601f1916830162000cba565b9281845282828701011162000c76575f5b81811062000d3c5750825f9394955001015290565b858101830151848201840152820162000d27565b5190811515820362000c765756fe6080604081815260049182361015610015575f80fd5b5f905f3560e01c9081631b441c9c14611b40575080632a02721114611b245780632ef9a16014611b0957806333be940d14611a2c5780633f4ba83a146119b757806341ccbec3146118e857806354a5e7d7146117ff5780635b6a2da6146117e15780635ba1022f1461178a5780635c975abb1461176757806370fad9c8146116b1578063715018a61461165a57806372a8f302146112d257806373da71d214610fb3578063809f96a4146109ca5780638456cb59146109515780638b654d17146108df5780638da5cb5b146108b75780639201ea0a1461089a578063a2a5a2fb14610490578063c45a015514610448578063d65c3bf6146103f2578063eceed33914610298578063f2fde38b146101fe578063f6832643146101ae5763f84316f71461013f575f80fd5b346101ab57806003193601126101ab57610157612507565b5060ff6007541692600684101561019857610194836101796005871415612370565b610181611e80565b9051918291602083526020830190612250565b0390f35b634e487b7160e01b825260219052602490fd5b80fd5b50346101ab57806003193601126101ab576101c7612526565b5060ff600754169260068410156101985760a0836101e86005871415612370565b6101fc6101f3611f68565b91518092612277565bf35b50919034610294576020366003190112610294576001600160a01b0382358181169391929084900361029057610232612550565b831561027a5750505f54826bffffffffffffffffffffffff60a01b8216175f55167f8be0079c531659141344cd1fd0a4f28419497f9722a3daafe3b4186f6b6457e05f80a380f35b51631e4fbdf760e01b8152908101849052602490fd5b8480fd5b8280fd5b50346101ab57806003193601126101ab5781516102b481611c4c565b6102bc612444565b81526102c6612507565b60208201526102d3612526565b838201526102df6124e8565b606082015260806102ee6124c4565b91015260ff600754169260068410156101985761038f836103126005871415612370565b80519061031e82611c4c565b610326611cb4565b82526101946103c0610336611e80565b9260208501938452610346611f68565b90808601918252610355611fb1565b606087019081526103af6103a361036a612214565b9760808a0198895284519a8b9a60208c525161018060208d01526101a08c0190611bb9565b9051601f1995868c840301908c0152612250565b93516060890190612277565b5190868303016101008701526122ac565b915180511515610120850152602081015115156101408501526040810151610160850152606001511515610180840152565b50346101ab57806003193601126101ab5761040b6124e8565b5060ff60075416926006841015610198576101948361042d6005871415612370565b610435611fb1565b90519182916020835260208301906122ac565b50903461048c578160031936011261048c57517f00000000000000000000000000000000000000000000000000000000000000006001600160a01b03168152602090f35b5080fd5b50903461048c578060031936011261048c5767ffffffffffffffff928035848111610896576104c290369083016122eb565b60249591958035838111610892576104dd90369086016122eb565b9390916005916104f760018060a01b038454163314612319565b60ff60075416600681101561088057806105168561051c931415612370565b156123c8565b84151580610875575b156108335761138886116107f1578085116107df57600394806105488754611c14565b9b601f9c8d8111610776575b508b908d83116001146106f6578c926106eb575b50508160011b915f1990881b1c19161785555b85116106da575061058c8554611c14565b90888211610681575b5050859683116001146106005795859683949596936105f5575b50508260011b925f19911b1c19161790555b686261736963496e666f60b81b81519160208352600960208401528201525f8051602061257c83398151915260603392a280f35b013591505f806105af565b838652601f198316967f8a35acfbc15ff81a39ae7d344fd709f28e8600b4aa8c65c6b64bfe7fe36bd19b92875b89811061066957508460019697989910610650575b50505050811b0190556105c1565b60f8855f19921b161c199101351690555f808080610642565b9193602060018192878701358155019501920161062d565b8588527f8a35acfbc15ff81a39ae7d344fd709f28e8600b4aa8c65c6b64bfe7fe36bd19b9089808701821c830193602088106106d1575b01901c01905b81811015610595578781556001016106be565b935082936106b8565b634e487b7160e01b88526041865287fd5b013590505f80610568565b888d527fc2575a0e9e593c00f959f8c92f12db2869c3395a3b0502d05e2516446f71f85b925090601f1984168d5b81811061075e5750908460019594939210610747575b505050811b01855561057b565b01355f19838a1b60f8161c191690555f808061073a565b91936020600181928787013581550195019201610724565b909150878c527fc2575a0e9e593c00f959f8c92f12db2869c3395a3b0502d05e2516446f71f85b8d808501881c820192602086106107d6575b90859493929101881c01905b8181106107c85750610554565b8d81558493506001016107bb565b925081926107af565b50634e487b7160e01b88526041865287fd5b875162461bcd60e51b8152602081890152601e818401527f456c656374696f6e3a204465736372697074696f6e20746f6f206c6f6e6700006044820152606490fd5b875162461bcd60e51b8152602081890152601e818401527f456c656374696f6e3a20496e76616c6964207469746c65206c656e67746800006044820152606490fd5b5060c8851115610525565b634e487b7160e01b8a5260218852828afd5b8680fd5b8380fd5b50903461048c578160031936011261048c57602090516113888152f35b50903461048c578160031936011261048c57905490516001600160a01b039091168152602090f35b50346101ab57806003193601126101ab576108f86124c4565b5060ff60075416926006841015610198576080836109196005871415612370565b6101fc610924612214565b91518092606080918051151584526020810151151560208501526040810151604085015201511515910152565b50913461029457826003193601126102945761097860018060a01b03600554163314612319565b6002549060ff82166109bc575060ff1916600117600255513381527f62e78cea01bee320cd4e420270b5ea74000d11b0c9f74754ebdbfc544b05a25890602090a180f35b825163d93c066560e01b8152fd5b50903461048c5760209060031993828536011261089657803567ffffffffffffffff95868211610faf576060828401918336030112610faf57600590610a1a60018060a01b038354163314612319565b60ff600754166006811015610f9c578061051684610a39931415612370565b610a438180612491565b90506107d0809111610f4b576024918285019482610a618784612491565b905011610efe5760440191610a768383612491565b905011610eaa57610a878180612491565b958b8711610d9e57610a9a600e54611c14565b968a601f988d8a8211610e45575b915050928c898311600114610dbb57610ade94909183610db0575b50508160011b915f199060031b1c191617600e555b82612491565b908b8211610d9e57610af1600f54611c14565b878111610d41575b508a90878311600114610cba57610b2e949392918c9183610caf575b50508160011b915f199060031b1c191617600f55612491565b9490988511610c9e575050610b44601054611c14565b90828211610c45575b505084908211600114610bb65781908596676d6573736167657360c01b959692610bab575b50508160011b915f199060031b1c1916176010555b60088151938085528401528201525f8051602061257c83398151915260603392a280f35b013590505f80610b72565b601085527f1b6847dc741a1b0cd08d278845f9d819d87b734759afb55fe2de5cb82a9ae67290601f198316865b818110610c2e575096839291600194676d6573736167657360c01b97989910610c15575b505050811b01601055610b87565b01355f19600384901b60f8161c191690555f8080610c07565b91928660018192868c013581550194019201610be3565b601087527f1b6847dc741a1b0cd08d278845f9d819d87b734759afb55fe2de5cb82a9ae6729083808601821c830193888710610c95575b01901c01905b81811015610b4d57868155600101610c82565b93508293610c7c565b634e487b7160e01b88526041905286fd5b013590505f80610b15565b600f8c527f8d1108e10bcb7c27dddfc02ed9d693a074039d026cf4ea4240b40f7d581ac80291601f1984168d5b8d828210610d2b575050916001939185610b2e9897969410610d12575b505050811b01600f55612491565b01355f19600384901b60f8161c191690555f8080610d04565b6001849682939587013581550195019201610ce7565b600f8c527f8d1108e10bcb7c27dddfc02ed9d693a074039d026cf4ea4240b40f7d581ac80288808501891c8201928d8610610d95575b01881c01905b818110610d8a5750610af9565b8c8155600101610d7d565b92508192610d77565b634e487b7160e01b8b5260418852848bfd5b013590505f80610ac3565b919293601f198416600e84528d7fbb7b4a454dc3493923482f07822329ed19e8244eff582cc204f8554c3620c3fd94905b828210610e2e575050916001939185610ade97969410610e15575b505050811b01600e55610ad8565b01355f19600384901b60f8161c191690555f8080610e07565b60018496829395870135815501950192018e610dec565b600e9052897fbb7b4a454dc3493923482f07822329ed19e8244eff582cc204f8554c3620c3fd918185018b1c8301938510610ea1575b01891c01908d905b828110610e9457508c915080610aa8565b6001918155018d90610e83565b92508192610e7b565b865162461bcd60e51b81528087018990526029818501527f456c656374696f6e3a20416674657220656c656374696f6e206d65737361676560448201526820746f6f206c6f6e6760b81b6064820152608490fd5b608487858b8b519262461bcd60e51b8452830152808201527f456c656374696f6e3a20566f746520636f6e6669726d6174696f6e20746f6f206044820152636c6f6e6760e01b6064820152fd5b855162461bcd60e51b8152808601889052602560248201527f456c656374696f6e3a204c6f67696e20696e737472756374696f6e7320746f6f604482015264206c6f6e6760d81b6064820152608490fd5b634e487b7160e01b885260218552602488fd5b8580fd5b5090346112ce57602092836003193601126112ce57803560068110156112ce57600554336001600160a01b03918216149081156112a2575b50156112605760075460ff811692600684101561124d5761100f6005851415612370565b82841461120a57836110cf57856110bc576001831480156110b3575b1561106c5750905f8051602061259c8339815191529495611068925b60ff83169060ff19161760075561106085518095611b98565b830190611b98565ba180f35b845162461bcd60e51b8152908101879052602e60248201525f805160206125bc83398151915260448201526d1a5bdb88199c9bdb48111490519560921b6064820152608490fd5b5080831461102b565b634e487b7160e01b865260219052602485fd5b946001840361115a57505f94600283148015611151575b156111065750905f8051602061259c833981519152949561106892611047565b845162461bcd60e51b8152908101879052603260248201525f805160206125bc8339815191526044820152711a5bdb88199c9bdb4814d0d211511553115160721b6064820152608490fd5b508083146110e6565b94600284036111ce57600383036111865750905f8051602061259c833981519152949561106892611047565b845162461bcd60e51b8152908101879052602f60248201525f805160206125bc83398151915260448201526e696f6e2066726f6d2041435449564560881b6064820152608490fd5b845162461bcd60e51b8152908101879052602360248201525f805160206125bc83398151915260448201526234b7b760e91b6064820152608490fd5b845162461bcd60e51b8152908101879052601a60248201527f456c656374696f6e3a2053746174757320756e6368616e6765640000000000006044820152606490fd5b602190634e487b7160e01b5f525260245ffd5b5083606492519162461bcd60e51b8352820152601860248201527f456c656374696f6e3a204e6f7420617574686f72697a656400000000000000006044820152fd5b90507f00000000000000000000000000000000000000000000000000000000000000001633145f610feb565b5f80fd5b5050346112ce5760603660031901126112ce57813591602480359167ffffffffffffffff6044358181116112ce5761130d90369084016122eb565b94909661132560018060a01b03600554163314612319565b60ff600754166006811015611648576113416005821415612370565b428211156115f3578183111561159d57610e1061135e8385612470565b1061154d576301e133806113728385612470565b116114fe5761138190156123c8565b60085560095583116114ed57505061139a600a54611c14565b601f811161148a575b505f601f821160011461140a578192935f926113ff575b50508160011b915f199060031b1c191617600a555b6574696d696e6760d01b81519160208352600660208401528201525f8051602061257c83398151915260603392a2005b013590505f806113ba565b601f19821693600a5f527fc65a7bb8d6351c1cf70c95a316cc6a92839c986682d98bc35f958f4883f9d2a8915f5b8681106114725750836001959610611459575b505050811b01600a556113cf565b01355f19600384901b60f8161c191690555f808061144b565b90926020600181928686013581550194019101611438565b600a5f527fc65a7bb8d6351c1cf70c95a316cc6a92839c986682d98bc35f958f4883f9d2a8601f830160051c810191602084106114e3575b601f0160051c01905b8181106114d857506113a3565b5f81556001016114cb565b90915081906114c2565b604190634e487b7160e01b5f52525ffd5b875162461bcd60e51b81526020818701528087018790527f456c656374696f6e3a20456c656374696f6e206475726174696f6e20746f6f206044820152636c6f6e6760e01b6064820152608490fd5b875162461bcd60e51b81526020818701526025818801527f456c656374696f6e3a20456c656374696f6e206475726174696f6e20746f6f206044820152641cda1bdc9d60da1b6064820152608490fd5b875162461bcd60e51b8152602081870152602b818801527f456c656374696f6e3a20456e642074696d65206d75737420626520616674657260448201526a2073746172742074696d6560a81b6064820152608490fd5b875162461bcd60e51b8152602081870152602a818801527f456c656374696f6e3a2053746172742074696d65206d75737420626520696e206044820152697468652066757475726560b01b6064820152608490fd5b85602186634e487b7160e01b5f52525ffd5b346112ce575f3660031901126112ce57611672612550565b5f80546001600160a01b0319811682556001600160a01b03167f8be0079c531659141344cd1fd0a4f28419497f9722a3daafe3b4186f6b6457e08280a3005b82346112ce575f3660031901126112ce57611711906116ce611cb4565b906101946117356116dd611e80565b926116e6611f68565b6117286116f1611fb1565b9161171f6116fd612214565b9785519a8b9a610180808d528c0190611bb9565b908a820360208c0152612250565b93880190612277565b85820360e08701526122ac565b825115156101008501526020830151151561012085015260408301516101408501526060909201511515610160840152565b82346112ce575f3660031901126112ce5760209060ff6002541690519015158152f35b5050346112ce575f3660031901126112ce576117a4612444565b5060ff6007541691600683101561124d57506117c66005610194931415612370565b6117ce611cb4565b9051918291602083526020830190611bb9565b82346112ce575f3660031901126112ce57602090516301e133808152f35b8284346112ce5760a03660031901126112ce5761182760018060a01b03600554163314612319565b60ff6007541690600682101561124d5750806105166005611849931415612370565b611851612426565b1515600b5461ff00611861612435565b151560081b16906044358015158091036112ce5762ff000060ff9160101b1693169062ffffff1916171717600b55606435600c556084358015158091036112ce5760ff8019600d5416911617600d556d766f74696e6753657474696e677360901b81519160208352600e60208401528201525f8051602061257c83398151915260603392a2005b8284346112ce5760803660031901126112ce5761191060018060a01b03600554163314612319565b60ff6007541690600682101561124d5750806105166005611932931415612370565b61193a612426565b151560115460ff61ff0061194c612435565b151560081b1692169061ffff191617176011556044356012556064358015158091036112ce5760ff8019601354169116176013556c726573756c7473436f6e66696760981b81519160208352600d60208401528201525f8051602061257c83398151915260603392a2005b5050346112ce575f3660031901126112ce576119de60018060a01b03600554163314612319565b6002549160ff831615611a1e577f5db9ee0a495bf2e6ff9c91a7834c1ba4fdd244a5e8aa4e537bd38aeae4b073aa6020838560ff191660025551338152a1005b9051638dfc202b60e01b8152fd5b8284346112ce575f3660031901126112ce57611a5360018060a01b03600554163314612319565b6007549060ff82166006811015611af65780611a7460056002931415612370565b14611aa3575f8051602061259c8339815191528360058460ff19161760075580516005815260056020820152a1005b608490602084519162461bcd60e51b8352820152602760248201527f456c656374696f6e3a2043616e6e6f742064656c6574652061637469766520656044820152663632b1ba34b7b760c91b6064820152fd5b602182634e487b7160e01b5f525260245ffd5b82346112ce575f3660031901126112ce576020905160c88152f35b82346112ce575f3660031901126112ce57602090516107d08152f35b346112ce575f3660031901126112ce5780610e1060209252f35b91908251928382525f5b848110611b84575050825f602080949584010152601f8019910116010190565b602081830181015184830182015201611b64565b906006821015611ba55752565b634e487b7160e01b5f52602160045260245ffd5b90611c1190608080611be9611bd7865160a0865260a0860190611b5a565b60208701518582036020870152611b5a565b6040808701516001600160a01b03169085015260608087015190850152940151910190611b98565b90565b90600182811c92168015611c42575b6020831014611c2e57565b634e487b7160e01b5f52602260045260245ffd5b91607f1691611c23565b60a0810190811067ffffffffffffffff821117611c6857604052565b634e487b7160e01b5f52604160045260245ffd5b6060810190811067ffffffffffffffff821117611c6857604052565b6080810190811067ffffffffffffffff821117611c6857604052565b6040908151611cc281611c4c565b809280515f6003549180611cd584611c14565b92838252602093600195856001821691825f14611e66575050600114611e0d575b5067ffffffffffffffff92601f1992909103601f018216810183811182821017611c685786528652845193845f60045492611d3084611c14565b93848452876001821691825f14611dee575050600114611d94575b50601f925003011683019083821090821117611c685783528301526005546001600160a01b03169082015260068054606083015260075460ff169190821015611ba55760800152565b86915060045f527f8a35acfbc15ff81a39ae7d344fd709f28e8600b4aa8c65c6b64bfe7fe36bd19b905f915b858310611dd6575050601f93508201015f611d4b565b8054838b018501528994508893909201918101611dc0565b60ff191685820152601f95151560051b85010192505f9150611d4b9050565b84915060035f527fc2575a0e9e593c00f959f8c92f12db2869c3395a3b0502d05e2516446f71f85b90865f925b828410611e4d575050508201015f611cf6565b8054848801860152869550879490930192889101611e3a565b9150925060ff191682840152151560051b8201015f611cf6565b60405190611e8d82611c7c565b8160085481526009549060209182820152604051915f90600a54611eb081611c14565b80865290600190818116908115611f4c5750600114611ef6575b505050829003601f01601f191682019067ffffffffffffffff821183831017611c685760409182520152565b600a5f908152929350837fc65a7bb8d6351c1cf70c95a316cc6a92839c986682d98bc35f958f4883f9d2a85b838510611f3857505050508301015f8080611eca565b805488860183015293019284908201611f22565b60ff1916878501525050151560051b84010190505f8080611eca565b60405190611f7582611c4c565b8160ff600b5481811615158352818160081c161515602084015260101c1615156040820152600c546060820152608060ff600d54161515910152565b6040908151611fbf81611c7c565b80928051915f9280600e5494611fd486611c14565b908183526020916001978389821691825f146121fa5750506001146121a4575b5067ffffffffffffffff93601f1993909103601f018316810184811182821017611c6857865284528451600f5483825f61202d84611c14565b93848352868c821691825f14612186575050600114612125575b03601f01168201905084811182821017611c6857865281850152845180965f906010549061207482611c14565b8085529181811690811561210657506001146120a8575b5050601f925003011684019084821090821117611c685782520152565b9093915060105f527f1b6847dc741a1b0cd08d278845f9d819d87b734759afb55fe2de5cb82a9ae672935f915b8183106120ec575050601f93508201015f8061208b565b8554948301840194909452938301938993918301916120d5565b915050601f94925060ff191682840152151560051b8201015f8061208b565b505050600f5f528382847f8d1108e10bcb7c27dddfc02ed9d693a074039d026cf4ea4240b40f7d581ac8028b5f915b86831061216a5750939450849350820101612047565b91945091925080548385880101520191018484918b8894612154565b60ff1916848201529394859490151560051b84010191506120479050565b600e5f9081529150877fbb7b4a454dc3493923482f07822329ed19e8244eff582cc204f8554c3620c3fd5b8284106121e357505050820181015f611ff4565b8054878501860152869550928401928991016121cf565b9150925060ff191682850152151560051b8301015f611ff4565b6040519061222182611c98565b8160ff6011548181161515835260081c16151560208201526012546040820152606060ff601354161515910152565b9060606040611c119380518452602081015160208501520151918160408201520190611b5a565b608080918051151584526020810151151560208501526040810151151560408501526060810151606085015201511515910152565b611c119160406122da6122c88451606085526060850190611b5a565b60208501518482036020860152611b5a565b920151906040818403910152611b5a565b9181601f840112156112ce5782359167ffffffffffffffff83116112ce57602083818601950101116112ce57565b1561232057565b60405162461bcd60e51b815260206004820152602260248201527f456c656374696f6e3a204e6f742074686520656c656374696f6e20637265617460448201526137b960f11b6064820152608490fd5b1561237757565b60405162461bcd60e51b815260206004820152602360248201527f456c656374696f6e3a20456c656374696f6e20686173206265656e2064656c656044820152621d195960ea1b6064820152608490fd5b156123cf57565b60405162461bcd60e51b815260206004820152602960248201527f456c656374696f6e3a2043616e206f6e6c792075706461746520647261667420604482015268656c656374696f6e7360b81b6064820152608490fd5b60043580151581036112ce5790565b60243580151581036112ce5790565b6040519061245182611c4c565b5f60808360608152606060208201528260408201528260608201520152565b9190820391821161247d57565b634e487b7160e01b5f52601160045260245ffd5b903590601e19813603018212156112ce570180359067ffffffffffffffff82116112ce576020019181360383136112ce57565b604051906124d182611c98565b5f6060838281528260208201528260408201520152565b604051906124f582611c7c565b60606040838281528260208201520152565b6040519061251482611c7c565b60606040835f81525f60208201520152565b6040519061253382611c4c565b5f6080838281528260208201528260408201528260608201520152565b5f546001600160a01b0316330361256357565b60405163118cdaa760e01b8152336004820152602490fdfe8cfcd2db34f1dff07e39e688dd39a0a2e86a9efdddf6c5a467b1b38f104da93e54acea47b4dce95a26d5693884e87e30a7d7d2b0fe576ca2d8a5ffe7ef510400456c656374696f6e3a20496e76616c696420737461747573207472616e736974a2646970667358221220d7b355054f92498ff374c599ac4efcf3e5ecdfda8cb8e93496adc5c07089e8e964736f6c63430008170033bb7b4a454dc3493923482f07822329ed19e8244eff582cc204f8554c3620c3fd1b6847dc741a1b0cd08d278845f9d819d87b734759afb55fe2de5cb82a9ae672","linkReferences":{}},"methodIdentifiers":{"MAX_DESCRIPTION_LENGTH()":"9201ea0a","MAX_ELECTION_DURATION()":"5b6a2da6","MAX_MESSAGE_LENGTH()":"2a027211","MAX_TITLE_LENGTH()":"2ef9a160","MIN_ELECTION_DURATION()":"1b441c9c","changeElectionStatus(uint8)":"73da71d2","deleteElection()":"33be940d","electionConfig()":"70fad9c8","factory()":"c45a0155","getElection()":"eceed339","getElectionBasicInfo()":"5ba1022f","getElectionMessages()":"d65c3bf6","getElectionTiming()":"f84316f7","getResultsConfig()":"8b654d17","getVotingSettings()":"f6832643","owner()":"8da5cb5b","pause()":"8456cb59","paused()":"5c975abb","renounceOwnership()":"715018a6","transferOwnership(address)":"f2fde38b","unpause()":"3f4ba83a","updateElectionBasicInfo(string,string)":"a2a5a2fb","updateElectionMessages((string,string,string))":"809f96a4","updateElectionTiming(uint256,uint256,string)":"72a8f302","updateResultsConfig((bool,bool,uint256,bool))":"41ccbec3","updateVotingSettings((bool,bool,bool,uint256,bool))":"54a5e7d7"},"id":4}