{"abi":[{"type":"constructor","inputs":[{"name":"_electionCreationFee","type":"uint256","internalType":"uint256"}],"stateMutability":"nonpayable"},{"type":"function","name":"MAX_DESCRIPTION_LENGTH","inputs":[],"outputs":[{"name":"","type":"uint256","internalType":"uint256"}],"stateMutability":"view"},{"type":"function","name":"MAX_ELECTION_DURATION","inputs":[],"outputs":[{"name":"","type":"uint256","internalType":"uint256"}],"stateMutability":"view"},{"type":"function","name":"MAX_MESSAGE_LENGTH","inputs":[],"outputs":[{"name":"","type":"uint256","internalType":"uint256"}],"stateMutability":"view"},{"type":"function","name":"MAX_TITLE_LENGTH","inputs":[],"outputs":[{"name":"","type":"uint256","internalType":"uint256"}],"stateMutability":"view"},{"type":"function","name":"MIN_ELECTION_DURATION","inputs":[],"outputs":[{"name":"","type":"uint256","internalType":"uint256"}],"stateMutability":"view"},{"type":"function","name":"changeElectionStatus","inputs":[{"name":"_electionId","type":"uint256","internalType":"uint256"},{"name":"_newStatus","type":"uint8","internalType":"enum ElectionFactory.ElectionStatus"}],"outputs":[],"stateMutability":"nonpayable"},{"type":"function","name":"createElection","inputs":[{"name":"input","type":"tuple","internalType":"struct ElectionFactory.CreateElectionInput","components":[{"name":"title","type":"string","internalType":"string"},{"name":"description","type":"string","internalType":"string"},{"name":"startTime","type":"uint256","internalType":"uint256"},{"name":"endTime","type":"uint256","internalType":"uint256"},{"name":"timezone","type":"string","internalType":"string"},{"name":"weightedVoting","type":"bool","internalType":"bool"},{"name":"ballotReceipt","type":"bool","internalType":"bool"},{"name":"submitConfirmation","type":"bool","internalType":"bool"},{"name":"maxVotersCount","type":"uint256","internalType":"uint256"},{"name":"allowVoterRegistration","type":"bool","internalType":"bool"},{"name":"loginInstructions","type":"string","internalType":"string"},{"name":"voteConfirmation","type":"string","internalType":"string"},{"name":"afterElectionMessage","type":"string","internalType":"string"},{"name":"publicResults","type":"bool","internalType":"bool"},{"name":"realTimeResults","type":"bool","internalType":"bool"},{"name":"resultsReleaseTime","type":"uint256","internalType":"uint256"},{"name":"allowResultsDownload","type":"bool","internalType":"bool"}]}],"outputs":[{"name":"electionId","type":"uint256","internalType":"uint256"}],"stateMutability":"payable"},{"type":"function","name":"creatorElections","inputs":[{"name":"","type":"address","internalType":"address"},{"name":"","type":"uint256","internalType":"uint256"}],"outputs":[{"name":"","type":"uint256","internalType":"uint256"}],"stateMutability":"view"},{"type":"function","name":"deleteElection","inputs":[{"name":"_electionId","type":"uint256","internalType":"uint256"}],"outputs":[],"stateMutability":"nonpayable"},{"type":"function","name":"electionCreationFee","inputs":[],"outputs":[{"name":"","type":"uint256","internalType":"uint256"}],"stateMutability":"view"},{"type":"function","name":"electionExists","inputs":[{"name":"","type":"uint256","internalType":"uint256"}],"outputs":[{"name":"","type":"bool","internalType":"bool"}],"stateMutability":"view"},{"type":"function","name":"elections","inputs":[{"name":"","type":"uint256","internalType":"uint256"}],"outputs":[{"name":"basicInfo","type":"tuple","internalType":"struct ElectionFactory.ElectionBasicInfo","components":[{"name":"title","type":"string","internalType":"string"},{"name":"description","type":"string","internalType":"string"},{"name":"creator","type":"address","internalType":"address"},{"name":"createdAt","type":"uint256","internalType":"uint256"},{"name":"status","type":"uint8","internalType":"enum ElectionFactory.ElectionStatus"}]},{"name":"timing","type":"tuple","internalType":"struct ElectionFactory.ElectionTiming","components":[{"name":"startTime","type":"uint256","internalType":"uint256"},{"name":"endTime","type":"uint256","internalType":"uint256"},{"name":"timezone","type":"string","internalType":"string"}]},{"name":"votingSettings","type":"tuple","internalType":"struct ElectionFactory.VotingSettings","components":[{"name":"weightedVoting","type":"bool","internalType":"bool"},{"name":"ballotReceipt","type":"bool","internalType":"bool"},{"name":"submitConfirmation","type":"bool","internalType":"bool"},{"name":"maxVotersCount","type":"uint256","internalType":"uint256"},{"name":"allowVoterRegistration","type":"bool","internalType":"bool"}]},{"name":"messages","type":"tuple","internalType":"struct ElectionFactory.ElectionMessages","components":[{"name":"loginInstructions","type":"string","internalType":"string"},{"name":"voteConfirmation","type":"string","internalType":"string"},{"name":"afterElectionMessage","type":"string","internalType":"string"}]},{"name":"resultsConfig","type":"tuple","internalType":"struct ElectionFactory.ResultsConfig","components":[{"name":"publicResults","type":"bool","internalType":"bool"},{"name":"realTimeResults","type":"bool","internalType":"bool"},{"name":"resultsReleaseTime","type":"uint256","internalType":"uint256"},{"name":"allowResultsDownload","type":"bool","internalType":"bool"}]}],"stateMutability":"view"},{"type":"function","name":"getCurrentElectionId","inputs":[],"outputs":[{"name":"","type":"uint256","internalType":"uint256"}],"stateMutability":"view"},{"type":"function","name":"getElection","inputs":[{"name":"_electionId","type":"uint256","internalType":"uint256"}],"outputs":[{"name":"","type":"tuple","internalType":"struct ElectionFactory.ElectionConfig","components":[{"name":"basicInfo","type":"tuple","internalType":"struct ElectionFactory.ElectionBasicInfo","components":[{"name":"title","type":"string","internalType":"string"},{"name":"description","type":"string","internalType":"string"},{"name":"creator","type":"address","internalType":"address"},{"name":"createdAt","type":"uint256","internalType":"uint256"},{"name":"status","type":"uint8","internalType":"enum ElectionFactory.ElectionStatus"}]},{"name":"timing","type":"tuple","internalType":"struct ElectionFactory.ElectionTiming","components":[{"name":"startTime","type":"uint256","internalType":"uint256"},{"name":"endTime","type":"uint256","internalType":"uint256"},{"name":"timezone","type":"string","internalType":"string"}]},{"name":"votingSettings","type":"tuple","internalType":"struct ElectionFactory.VotingSettings","components":[{"name":"weightedVoting","type":"bool","internalType":"bool"},{"name":"ballotReceipt","type":"bool","internalType":"bool"},{"name":"submitConfirmation","type":"bool","internalType":"bool"},{"name":"maxVotersCount","type":"uint256","internalType":"uint256"},{"name":"allowVoterRegistration","type":"bool","internalType":"bool"}]},{"name":"messages","type":"tuple","internalType":"struct ElectionFactory.ElectionMessages","components":[{"name":"loginInstructions","type":"string","internalType":"string"},{"name":"voteConfirmation","type":"string","internalType":"string"},{"name":"afterElectionMessage","type":"string","internalType":"string"}]},{"name":"resultsConfig","type":"tuple","internalType":"struct ElectionFactory.ResultsConfig","components":[{"name":"publicResults","type":"bool","internalType":"bool"},{"name":"realTimeResults","type":"bool","internalType":"bool"},{"name":"resultsReleaseTime","type":"uint256","internalType":"uint256"},{"name":"allowResultsDownload","type":"bool","internalType":"bool"}]}]}],"stateMutability":"view"},{"type":"function","name":"getElectionBasicInfo","inputs":[{"name":"_electionId","type":"uint256","internalType":"uint256"}],"outputs":[{"name":"","type":"tuple","internalType":"struct ElectionFactory.ElectionBasicInfo","components":[{"name":"title","type":"string","internalType":"string"},{"name":"description","type":"string","internalType":"string"},{"name":"creator","type":"address","internalType":"address"},{"name":"createdAt","type":"uint256","internalType":"uint256"},{"name":"status","type":"uint8","internalType":"enum ElectionFactory.ElectionStatus"}]}],"stateMutability":"view"},{"type":"function","name":"getElectionsByCreator","inputs":[{"name":"_creator","type":"address","internalType":"address"}],"outputs":[{"name":"","type":"uint256[]","internalType":"uint256[]"}],"stateMutability":"view"},{"type":"function","name":"owner","inputs":[],"outputs":[{"name":"","type":"address","internalType":"address"}],"stateMutability":"view"},{"type":"function","name":"pause","inputs":[],"outputs":[],"stateMutability":"nonpayable"},{"type":"function","name":"paused","inputs":[],"outputs":[{"name":"","type":"bool","internalType":"bool"}],"stateMutability":"view"},{"type":"function","name":"renounceOwnership","inputs":[],"outputs":[],"stateMutability":"nonpayable"},{"type":"function","name":"transferOwnership","inputs":[{"name":"newOwner","type":"address","internalType":"address"}],"outputs":[],"stateMutability":"nonpayable"},{"type":"function","name":"unpause","inputs":[],"outputs":[],"stateMutability":"nonpayable"},{"type":"function","name":"updateElectionBasicInfo","inputs":[{"name":"_electionId","type":"uint256","internalType":"uint256"},{"name":"_title","type":"string","internalType":"string"},{"name":"_description","type":"string","internalType":"string"}],"outputs":[],"stateMutability":"nonpayable"},{"type":"function","name":"updateElectionFee","inputs":[{"name":"_newFee","type":"uint256","internalType":"uint256"}],"outputs":[],"stateMutability":"nonpayable"},{"type":"function","name":"updateElectionMessages","inputs":[{"name":"_electionId","type":"uint256","internalType":"uint256"},{"name":"_messages","type":"tuple","internalType":"struct ElectionFactory.ElectionMessages","components":[{"name":"loginInstructions","type":"string","internalType":"string"},{"name":"voteConfirmation","type":"string","internalType":"string"},{"name":"afterElectionMessage","type":"string","internalType":"string"}]}],"outputs":[],"stateMutability":"nonpayable"},{"type":"function","name":"updateElectionTiming","inputs":[{"name":"_electionId","type":"uint256","internalType":"uint256"},{"name":"_startTime","type":"uint256","internalType":"uint256"},{"name":"_endTime","type":"uint256","internalType":"uint256"},{"name":"_timezone","type":"string","internalType":"string"}],"outputs":[],"stateMutability":"nonpayable"},{"type":"function","name":"updateResultsConfig","inputs":[{"name":"_electionId","type":"uint256","internalType":"uint256"},{"name":"_resultsConfig","type":"tuple","internalType":"struct ElectionFactory.ResultsConfig","components":[{"name":"publicResults","type":"bool","internalType":"bool"},{"name":"realTimeResults","type":"bool","internalType":"bool"},{"name":"resultsReleaseTime","type":"uint256","internalType":"uint256"},{"name":"allowResultsDownload","type":"bool","internalType":"bool"}]}],"outputs":[],"stateMutability":"nonpayable"},{"type":"function","name":"updateVotingSettings","inputs":[{"name":"_electionId","type":"uint256","internalType":"uint256"},{"name":"_settings","type":"tuple","internalType":"struct ElectionFactory.VotingSettings","components":[{"name":"weightedVoting","type":"bool","internalType":"bool"},{"name":"ballotReceipt","type":"bool","internalType":"bool"},{"name":"submitConfirmation","type":"bool","internalType":"bool"},{"name":"maxVotersCount","type":"uint256","internalType":"uint256"},{"name":"allowVoterRegistration","type":"bool","internalType":"bool"}]}],"outputs":[],"stateMutability":"nonpayable"},{"type":"function","name":"withdrawFees","inputs":[{"name":"_to","type":"address","internalType":"address payable"}],"outputs":[],"stateMutability":"nonpayable"},{"type":"event","name":"ElectionCreated","inputs":[{"name":"electionId","type":"uint256","indexed":true,"internalType":"uint256"},{"name":"creator","type":"address","indexed":true,"internalType":"address"},{"name":"title","type":"string","indexed":false,"internalType":"string"},{"name":"startTime","type":"uint256","indexed":false,"internalType":"uint256"},{"name":"endTime","type":"uint256","indexed":false,"internalType":"uint256"}],"anonymous":false},{"type":"event","name":"ElectionDeleted","inputs":[{"name":"electionId","type":"uint256","indexed":true,"internalType":"uint256"},{"name":"deleter","type":"address","indexed":true,"internalType":"address"}],"anonymous":false},{"type":"event","name":"ElectionFeeUpdated","inputs":[{"name":"oldFee","type":"uint256","indexed":false,"internalType":"uint256"},{"name":"newFee","type":"uint256","indexed":false,"internalType":"uint256"}],"anonymous":false},{"type":"event","name":"ElectionStatusChanged","inputs":[{"name":"electionId","type":"uint256","indexed":true,"internalType":"uint256"},{"name":"oldStatus","type":"uint8","indexed":false,"internalType":"enum ElectionFactory.ElectionStatus"},{"name":"newStatus","type":"uint8","indexed":false,"internalType":"enum ElectionFactory.ElectionStatus"}],"anonymous":false},{"type":"event","name":"ElectionUpdated","inputs":[{"name":"electionId","type":"uint256","indexed":true,"internalType":"uint256"},{"name":"updater","type":"address","indexed":true,"internalType":"address"},{"name":"field","type":"string","indexed":false,"internalType":"string"}],"anonymous":false},{"type":"event","name":"OwnershipTransferred","inputs":[{"name":"previousOwner","type":"address","indexed":true,"internalType":"address"},{"name":"newOwner","type":"address","indexed":true,"internalType":"address"}],"anonymous":false},{"type":"event","name":"Paused","inputs":[{"name":"account","type":"address","indexed":false,"internalType":"address"}],"anonymous":false},{"type":"event","name":"Unpaused","inputs":[{"name":"account","type":"address","indexed":false,"internalType":"address"}],"anonymous":false},{"type":"error","name":"EnforcedPause","inputs":[]},{"type":"error","name":"ExpectedPause","inputs":[]},{"type":"error","name":"OwnableInvalidOwner","inputs":[{"name":"owner","type":"address","internalType":"address"}]},{"type":"error","name":"OwnableUnauthorizedAccount","inputs":[{"name":"account","type":"address","internalType":"address"}]},{"type":"error","name":"ReentrancyGuardReentrantCall","inputs":[]}],"bytecode":{"object":"0x6080346100ba57601f620032a538819003918201601f19168301916001600160401b038311848410176100be578084926020946040528339810103126100ba575133156100a2575f8054336001600160a01b0319821681178355604051939290916001600160a01b0316907f8be0079c531659141344cd1fd0a4f28419497f9722a3daafe3b4186f6b6457e09080a3600180556004556131d29081620000d38239f35b604051631e4fbdf760e01b81525f6004820152602490fd5b5f80fd5b634e487b7160e01b5f52604160045260245ffdfe60806040526004361015610011575f80fd5b5f803560e01c80631396aa9f1461251b578063164e68de146124305780631b441c9c146124145780632a027211146123f85780632ef9a160146123dd578063354fc7c01461209a5780633c316221146120435780633f4ba83a14611fda5780634a841a8714611e8057806352ba6e4b14611b0c5780635b6a2da614611aed5780635c975abb14611aca5780635e6fef01146119c257806362405052146119a4578063715018a61461194b57806373e29f0b14611578578063740c47d414611431578063773e078e146114025780638456cb59146113a75780638da5cb5b146113805780639201ea0a146113635780639d7107771461113a5780639d7a6180146105425780639d8fa447146104a3578063b7ca99cd1461030e578063bce589351461025c578063dd533fb214610206578063f2fde38b146101795763fe2b536b14610159575f80fd5b346101765780600319360112610176576020600354604051908152f35b80fd5b50346101765760203660031901126101765761019361274a565b61019b613113565b6001600160a01b039081169081156101ed575f54826bffffffffffffffffffffffff60a01b8216175f55167f8be0079c531659141344cd1fd0a4f28419497f9722a3daafe3b4186f6b6457e05f80a380f35b604051631e4fbdf760e01b815260048101849052602490fd5b5034610176576020366003190112610176577f468f986b109f03ea886bd59abed2474d2cb8760e523e1e7c4139074ec5778d226040600435610246613113565b600454908060045582519182526020820152a180f35b50346101765760208060031936011261030a576001600160a01b0361027f61274a565b168252600681526040822060405192838383549182815201908193835284832090835b8181106102f657505050846102b8910385612812565b60405193838594850191818652518092526040850193925b8281106102df57505050500390f35b8351855286955093810193928101926001016102d0565b8254845292860192600192830192016102a2565b5080fd5b50346101765760c03660031901126101765760043560a036602319011261030a578082526020906005825261035360018060a01b036002604086200154163314612b30565b8083526007825261036a60ff604085205416612b8e565b8083526005825260ff600460408520015416600681101561048f576005610392911415612beb565b8083526005825260ff600460408520015416600681101561048f576103b79015612df9565b8083526005825260408320600881016103e36103d1612f07565b829060ff801983541691151516179055565b6104046103ee612f16565b825461ff00191690151560081b61ff0016178255565b606435801515810361048b57815462ff0000191690151560101b62ff000016179055608435600982015560a435801515810361048b57600a61045292019060ff801983541691151516179055565b600e604051928084528301526d766f74696e6753657474696e677360901b60408301525f8051602061317d83398151915260603393a380f35b5f80fd5b634e487b7160e01b84526021600452602484fd5b50346101765760209081600319360112610176576004356104c26130a2565b50808252600783526104da60ff604084205416612b8e565b8082526005835260ff600460408420015416600681101561052e57916040916105096005610515951415612beb565b815260058452206128d5565b9061052a604051928284938452830190612a6f565b0390f35b634e487b7160e01b83526021600452602483fd5b5060031960203682011261030a576001600160401b036004351161030a5761022090600435360301126101765760026001541461112857600260015561058661313e565b610597426044600435013511612c4a565b6105ae604460043501356064600435013511612cb0565b6105d1610e106105ca6044600435013560646004350135612d17565b1015612d38565b6105f66301e133806105ef6044600435013560646004350135612d17565b1115612d99565b60045434106110d95761060d600480350180612f4a565b9050156110855760c8610624600480350180612f4a565b9050116110405761064e611388610645602460043501600435600401612f4a565b90501115612ead565b6106b761066661014460043501600435600401612f4a565b90506106776107d080921115612f7c565b6106998161069061016460043501600435600401612f4a565b90501115612fdd565b6106ae61018460043501600435600401612f4a565b9050111561303d565b600354905f19821461102c576001820160038190558152600560205260408120916107226106e9600480350180612f4a565b9190610719610702602460043501600435600401612f4a565b91909260405195610712876127c1565b36916130ce565b845236916130ce565b602082015233604082015242606082015282608082015280518051906001600160401b038211610de5576107608261075a8854612789565b88612e5e565b602090601f8311600114610fc45761078f9291869183610d66575b50508160011b915f199060031b1c19161790565b84555b60208101518051906001600160401b038211610de5576107c2826107b96001890154612789565b60018901612e5e565b602090601f8311600114610f555791806107f492608095948892610d665750508160011b915f199060031b1c19161790565b60018601555b6002850160018060a01b036040830151166bffffffffffffffffffffffff60a01b825416179055606081015160038601550151600681101561052e576108439060048501612f32565b610857608460043501600435600401612f4a565b604051949161088790610869876127dc565b604460043501358752602087019260646004350135845236916130ce565b9485604082015251600583015551600682015583516001600160401b038111610d52576108c4816108bb6007850154612789565b60078501612e5e565b6020601f8211600114610eea57819085966108f494959692610d665750508160011b915f199060031b1c19161790565b60078201555b6109ca608061090d60a460043501612f25565b6109b061091e60c460043501612f25565b9161092d60e460043501612f25565b9261099661010460043501359461094961012460043501612f25565b9360405190610957826127c1565b151593848252151591826020830152151594856040830152876060830152151597889101526103ee60088a0193849060ff801983541691151516179055565b9062ff0000825491151560101b169062ff00001916179055565b6009840155600a83019060ff801983541691151516179055565b610a396109e261014460043501600435600401612f4a565b9190610a24610a2d6109ff61016460043501600435600401612f4a565b610a1461018460043501600435600401612f4a565b949095604051986107128a6127dc565b875236916130ce565b602085015236916130ce565b604082015280518051906001600160401b038211610e6857610a6b82610a62600b870154612789565b600b8701612e5e565b602090601f8311600114610e7c57610a999291879183610d665750508160011b915f199060031b1c19161790565b600b8301555b60208101518051906001600160401b038211610e6857610acf82610ac6600c870154612789565b600c8701612e5e565b602090601f8311600114610df9579180610b0192604095948992610d665750508160011b915f199060031b1c19161790565b600c8401555b01518051906001600160401b038211610de557610b3482610b2b600d860154612789565b600d8601612e5e565b602090601f8311600114610d715792610b6b83606094601094610c1e978a92610d665750508160011b915f199060031b1c19161790565b600d8201555b610b806101a460043501612f25565b610c07610b926101c460043501612f25565b916101e4600435013592610bab61020460043501612f25565b9160405190610bb9826127f7565b15159182825215159283602083015285604083015215159788910152610bef600e860191829060ff801983541691151516179055565b9061ff00825491151560081b169061ff001916179055565b600f820155019060ff801983541691151516179055565b600181018252600760205260408220600160ff1982541617905533825260066020526040822080549068010000000000000000821015610d525790610c6891600182018155612760565b81545f1960039290921b91821b19166001840190911b179055610c8f600480350180612f4a565b806040519260608452816060850152608084013783608082840101526044600435013560208301526064600435013560408301527fb7e3ddf74a01983ed95ee8d25463572052b3548f0e02733018c5703ecdcbd71f33926080816001870194601f80199101168101030190a3600454803411610d18575b60208260018055600160405191018152f35b828080610d26819434612d17565b818115610d49575b3390f115610d3c5781610d06565b50604051903d90823e3d90fd5b506108fc610d2e565b634e487b7160e01b84526041600452602484fd5b015190505f8061077b565b90600d840186526020862091865b601f1985168110610dcd575083601093610c1e9693600193606097601f19811610610db5575b505050811b01600d820155610b71565b01515f1960f88460031b161c191690555f8080610da5565b91926020600181928685015181550194019201610d7f565b634e487b7160e01b85526041600452602485fd5b90600c850187526020872091875b601f1985168110610e50575091839160019360409695601f19811610610e38575b505050811b01600c840155610b07565b01515f1960f88460031b161c191690555f8080610e28565b91926020600181928685015181550194019201610e07565b634e487b7160e01b86526041600452602486fd5b9190600b85018752602087209087935b601f1984168510610ecf576001945083601f19811610610eb7575b505050811b01600b830155610a9f565b01515f1960f88460031b161c191690555f8080610ea7565b81810151835560209485019460019093019290910190610e8c565b6007830185526020852090855b601f1984168110610f3d575060019394959683601f19811610610f25575b505050811b0160078201556108fa565b01515f1960f88460031b161c191690555f8080610f15565b9091602060018192858b015181550193019101610ef7565b906001870186526020862091865b601f1985168110610fac575091839160019360809695601f19811610610f94575b505050811b0160018601556107fa565b01515f1960f88460031b161c191690555f8080610f84565b91926020600181928685015181550194019201610f63565b9190868652602086209086935b601f1984168510611011576001945083601f19811610610ff9575b505050811b018455610792565b01515f1960f88460031b161c191690555f8080610fec565b81810151835560209485019460019093019290910190610fd1565b634e487b7160e01b81526011600452602490fd5b60405162461bcd60e51b815260206004820152601f60248201527f456c656374696f6e466163746f72793a205469746c6520746f6f206c6f6e67006044820152606490fd5b60405162461bcd60e51b815260206004820152602660248201527f456c656374696f6e466163746f72793a205469746c652063616e6e6f7420626560448201526520656d70747960d01b6064820152608490fd5b60405162461bcd60e51b815260206004820152602160248201527f456c656374696f6e466163746f72793a20496e73756666696369656e742066656044820152606560f81b6064820152608490fd5b604051633ee5aeb560e01b8152600490fd5b50346101765760208060031936011261030a576040519160043561115d846127c1565b6111656130a2565b845260405193611174856127dc565b828552828486015260609485604082015284820152604051611195816127c1565b8381528385820152836040820152838682015283608082015260408201526040516111bf816127dc565b8581528585820152856040820152858201526080604051916111e0836127f7565b8483528486840152846040840152848784015201528082526007835261120c60ff604084205416612b8e565b8082526005835260ff600460408420015416600681101561052e57906112386005604094931415612beb565b815260058352209161052a61133160405194611253866127c1565b61125c816128d5565b865261126a60058201612934565b85870190815261127c60088301612963565b91604088019283526113206112a5600e611298600b85016129ae565b93898c01948552016129e6565b9660808a019788526112e56112cf8a6101806040519d8e9d8e5251918d01526101a08c0190612a6f565b945194601f1995868c83030160408d0152612aca565b945190890190608080918051151584526020810151151560208501526040810151151560408501526060810151606085015201511515910152565b519086830301610100870152612af1565b915180511515610120850152602081015115156101408501526040810151610160850152606001511515610180840152565b503461017657806003193601126101765760206040516113888152f35b5034610176578060031936011261017657546040516001600160a01b039091168152602090f35b50346101765780600319360112610176576113c0613113565b6113c861313e565b600160ff1960025416176002557f62e78cea01bee320cd4e420270b5ea74000d11b0c9f74754ebdbfc544b05a2586020604051338152a180f35b50346101765760203660031901126101765760ff60406020926004358152600784522054166040519015158152f35b50346101765760208060031936011261030a576004359081835260059081815261146b60018060a01b036002604087200154163314612b30565b8284526007815261148260ff604086205416612b8e565b82845281815260ff600460408620015416600681101561156457826114a8911415612beb565b82845281815260ff60046040862001541660068110156115645760021461150957819083855252600460408420019060ff1982541617905533907f21f72aed44435a201425e9c07e390d6db89332dce747f47756c1df08e44c5de48380a380f35b6084906040519062461bcd60e51b82526004820152602e60248201527f456c656374696f6e466163746f72793a2043616e6e6f742064656c657465206160448201526d31ba34bb329032b632b1ba34b7b760911b6064820152fd5b634e487b7160e01b85526021600452602485fd5b50346101765760031960403682011261030a576004356024918235926001600160401b038085116119475760608560040193863603011261194757838652602094600586526115d760018060a01b03600260408a200154163314612b30565b848752600786526115ee60ff604089205416612b8e565b8487526005865260ff6004604089200154166006811015611934576005611616911415612beb565b8487526005865260ff60046040892001541660068110156119345761163b9015612df9565b6116458480612f4a565b9190506116576107d080931115612f7c565b61167a60448583019261166e85610690868b612f4a565b01926106ae8488612f4a565b858852600587526040882090600b82016116948780612f4a565b868111611921576116af816116a98554612789565b85612e5e565b8b918c601f83116001146118bc576116dc939091836117bf5750508160011b915f199060031b1c19161790565b90555b6116ed600c83019187612f4a565b908582116118a957611703826116a98554612789565b8a908b601f841160011461183e579280600d959361173a93611744999896926117bf5750508160011b915f199060031b1c19161790565b90555b0194612f4a565b929091831161182c575061175c826116a98554612789565b8590601f83116001146117ca5761178992918791836117bf5750508160011b915f199060031b1c19161790565b90555b600860405192808452830152676d6573736167657360c01b60408301525f8051602061317d83398151915260603393a380f35b013590505f8061077b565b83875285872091601f198416885b888282106118165750509084600195949392106117fd575b505050811b01905561178c565b01355f19600384901b60f8161c191690555f80806117f0565b60018496829395870135815501950192016117d8565b634e487b7160e01b8752604160045286fd5b50838c528a8c2091601f1984168d5b8d828210611893575050926001928592611744999896600d98961061187a575b505050811b01905561173d565b01355f19600384901b60f8161c191690555f808061186d565b600184968293958701358155019501920161184d565b634e487b7160e01b8b526041600452868bfd5b8481528c8120929390601f198516908e5b82821061190a5750509084600195949392106118f1575b505050811b0190556116df565b01355f19600384901b60f8161c191690555f80806118e4565b60018496829395870135815501950192018e6118cd565b634e487b7160e01b8c526041600452878cfd5b634e487b7160e01b885260216004528388fd5b8580fd5b5034610176578060031936011261017657611964613113565b5f80546001600160a01b0319811682556001600160a01b03167f8be0079c531659141344cd1fd0a4f28419497f9722a3daafe3b4186f6b6457e08280a380f35b50346101765780600319360112610176576020600454604051908152f35b5034610176576020366003190112610176576040611a429160043581526005602052206119ee816128d5565b9061052a611a98611a0160058401612934565b92611a0e60088201612963565b90611a8b611a50611a2d600e611a26600b86016129ae565b94016129e6565b96604051998a99610180808c528b0190612a6f565b9089820360208b0152612aca565b926040880190608080918051151584526020810151151560208501526040810151151560408501526060810151606085015201511515910152565b85820360e0870152612af1565b825115156101008501526020830151151561012085015260408301516101408501526060909201511515610160840152565b5034610176578060031936011261017657602060ff600254166040519015158152f35b503461017657806003193601126101765760206040516301e133808152f35b503461048b57604036600319011261048b5760043560248035600681101561048b57825f52602060058152611b5160018060a01b03600260405f200154163314612b30565b835f5260078152611b6860ff60405f205416612b8e565b835f526005815260ff600460405f200154166006811015611e6d576005611b90911415612beb565b835f526005815260ff600460405f20015416926006841015611e5a57828414611e0d5783611c905785611c7e57600183148015611c74575b15611c26575091611c226040927f12b37df6c3e196249962cd4347a3d9d9e6444d63d7f1bd286129f93ca919fb3d945b86885260058152611c0e826004878b2001612f32565b611c1a85518095612a62565b830190612a62565ba280f35b9060356084926040519262461bcd60e51b845260048401528201525f8051602061315d8339815191526044820152741d1c985b9cda5d1a5bdb88199c9bdb481114905195605a1b6064820152fd5b5060048314611bc8565b634e487b7160e01b8652602160045285fd5b9460018403611d3b57505f94600283148015611d31575b15611cdb575091611c226040927f12b37df6c3e196249962cd4347a3d9d9e6444d63d7f1bd286129f93ca919fb3d94611bf8565b9060396084926040519262461bcd60e51b845260048401528201525f8051602061315d83398151915260448201527f7472616e736974696f6e2066726f6d205343484544554c4544000000000000006064820152fd5b5060048314611ca7565b9460028403611dca5760038303611d7b575091611c226040927f12b37df6c3e196249962cd4347a3d9d9e6444d63d7f1bd286129f93ca919fb3d94611bf8565b9060366084926040519262461bcd60e51b845260048401528201525f8051602061315d8339815191526044820152757472616e736974696f6e2066726f6d2041435449564560501b6064820152fd5b90602a6084926040519262461bcd60e51b845260048401528201525f8051602061315d8339815191526044820152693a3930b739b4ba34b7b760b11b6064820152fd5b9060216084926040519262461bcd60e51b845260048401528201527f456c656374696f6e466163746f72793a2053746174757320756e6368616e67656044820152601960fa1b6064820152fd5b634e487b7160e01b5f9081526021600452fd5b83634e487b7160e01b5f5260216004525ffd5b3461048b5760a036600319011261048b57600435608036602319011261048b57805f5260209060058252611ec460018060a01b03600260405f200154163314612b30565b805f5260078252611edb60ff60405f205416612b8e565b805f526005825260ff600460405f200154166006811015611fc6576005611f03911415612beb565b805f526005825260ff600460405f200154166006811015611fc657611f289015612df9565b805f526005825260405f20611f63600e8201611f456103d1612f07565b611f4d612f16565b815461ff00191690151560081b61ff0016179055565b606435600f820155608435801515810361048b576010611f8f92019060ff801983541691151516179055565b600d604051928084528301526c726573756c7473436f6e66696760981b60408301525f8051602061317d83398151915260603393a3005b634e487b7160e01b5f52602160045260245ffd5b3461048b575f36600319011261048b57611ff2613113565b60025460ff8116156120315760ff19166002557f5db9ee0a495bf2e6ff9c91a7834c1ba4fdd244a5e8aa4e537bd38aeae4b073aa6020604051338152a1005b604051638dfc202b60e01b8152600490fd5b3461048b57604036600319011261048b5761205c61274a565b6001600160a01b03165f9081526006602052604090208054602435919082101561048b5760209161208c91612760565b90546040519160031b1c8152f35b3461048b57606036600319011261048b576001600160401b036024600435813583811161048b576120cf90369060040161271d565b939060443582811161048b576120e990369060040161271d565b91845f5260059060209782895261211060018060a01b03600260405f200154163314612b30565b865f526007895261212760ff60405f205416612b8e565b865f5282895260ff600460405f2001541660068110156123ca578361214d911415612beb565b865f5282895260ff600460405f2001541660068110156123ca576121719015612df9565b801515806123bf575b1561236d5761218d611388861115612ead565b865f5282895260405f209186821161235a576121ad826116a98554612789565b5f90601f83116001146122f7576121da92915f91836122ec5750508160011b915f199060031b1c19161790565b90555b845f528652600194600160405f20019383116122d95750612202826116a98554612789565b5f94601f8311600114612273575061223292939482915f926122685750508160011b915f199060031b1c19161790565b90555b600960405192808452830152686261736963496e666f60b81b60408301525f8051602061317d83398151915260603393a3005b01359050868061077b565b90601f19831695845f52875f20925f905b898983106122c157505050836001959697106122a8575b505050811b019055612235565b01355f19600384901b60f8161c1916905585808061229b565b84840135865594810194928301929190910190612284565b634e487b7160e01b5f9081526041600452fd5b013590508b8061077b565b601f19831691845f528b5f20925f5b8d82821061234457505090846001959493921061232b575b505050811b0190556121dd565b01355f19600384901b60f8161c191690558a808061231e565b6001849682939587013581550195019201612306565b88634e487b7160e01b5f5260416004525ffd5b60405162461bcd60e51b8152600481018a90526025818a01527f456c656374696f6e466163746f72793a20496e76616c6964207469746c65206c6044820152640cadccee8d60db1b6064820152608490fd5b5060c881111561217a565b88634e487b7160e01b5f5260216004525ffd5b3461048b575f36600319011261048b57602060405160c88152f35b3461048b575f36600319011261048b5760206040516107d08152f35b3461048b575f36600319011261048b576020604051610e108152f35b3461048b57602036600319011261048b576004356001600160a01b0381169081900361048b5761245e613113565b80156124d75747908115612486575f808093819382f11561247b57005b6040513d5f823e3d90fd5b60405162461bcd60e51b8152602060048201526024808201527f456c656374696f6e466163746f72793a204e6f206665657320746f20776974686044820152636472617760e01b6064820152608490fd5b606460405162461bcd60e51b815260206004820152602060248201527f456c656374696f6e466163746f72793a20496e76616c696420616464726573736044820152fd5b3461048b57608036600319011261048b576044356024356004356001600160401b0360643581811161048b5761255590369060040161271d565b9093835f52600560209681885261257c60018060a01b03600260405f200154163314612b30565b855f526007885261259360ff60405f205416612b8e565b855f5281885260ff600460405f200154166006811015611fc657826125b9911415612beb565b6125c4428411612c4a565b6125cf838211612cb0565b6125df610e106105ca8584612d17565b6125f16301e133806105ef8584612d17565b855f5281885260ff600460405f20015416926006841015611fc65761261860079415612df9565b865f5282895260405f209283015560068201550191811161270957612647816126418454612789565b84612e5e565b5f601f82116001146126a85781906126759394955f926122685750508160011b915f199060031b1c19161790565b90555b6006604051928084528301526574696d696e6760d01b60408301525f8051602061317d83398151915260603393a3005b601f19821694835f52865f20915f5b888882106126f3575050836001959697106126da575b505050811b019055612678565b01355f19600384901b60f8161c191690558580806126cd565b60018395829394860135815501940191016126b7565b634e487b7160e01b5f52604160045260245ffd5b9181601f8401121561048b578235916001600160401b03831161048b576020838186019501011161048b57565b600435906001600160a01b038216820361048b57565b8054821015612775575f5260205f2001905f90565b634e487b7160e01b5f52603260045260245ffd5b90600182811c921680156127b7575b60208310146127a357565b634e487b7160e01b5f52602260045260245ffd5b91607f1691612798565b60a081019081106001600160401b0382111761270957604052565b606081019081106001600160401b0382111761270957604052565b608081019081106001600160401b0382111761270957604052565b90601f801991011681019081106001600160401b0382111761270957604052565b9060405191825f825461284581612789565b908184526020946001916001811690815f146128b35750600114612875575b50505061287392500383612812565b565b5f90815285812095935091905b81831061289b57505061287393508201015f8080612864565b85548884018501529485019487945091830191612882565b9250505061287394925060ff191682840152151560051b8201015f8080612864565b906040516128e2816127c1565b60ff600482946128f181612833565b84526128ff60018201612833565b602085015260028101546001600160a01b0316604085015260038101546060850152015416906006821015611fc65760800152565b90604051612941816127dc565b604061295e60028395805485526001810154602086015201612833565b910152565b90604051612970816127c1565b608060ff6002839582815481811615158752818160081c161515602088015260101c1615156040860152600181015460608601520154161515910152565b906040516129bb816127dc565b604061295e600283956129cd81612833565b85526129db60018201612833565b602086015201612833565b906040516129f3816127f7565b606060ff600283958281548181161515875260081c1615156020860152600181015460408601520154161515910152565b91908251928382525f5b848110612a4e575050825f602080949584010152601f8019910116010190565b602081830181015184830182015201612a2e565b906006821015611fc65752565b90612ac790608080612a9f612a8d865160a0865260a0860190612a24565b60208701518582036020870152612a24565b6040808701516001600160a01b03169085015260608087015190850152940151910190612a62565b90565b9060606040612ac79380518452602081015160208501520151918160408201520190612a24565b612ac7916040612b1f612b0d8451606085526060850190612a24565b60208501518482036020860152612a24565b920151906040818403910152612a24565b15612b3757565b60405162461bcd60e51b815260206004820152602960248201527f456c656374696f6e466163746f72793a204e6f742074686520656c656374696f604482015268371031b932b0ba37b960b91b6064820152608490fd5b15612b9557565b60405162461bcd60e51b815260206004820152602860248201527f456c656374696f6e466163746f72793a20456c656374696f6e20646f6573206e6044820152671bdd08195e1a5cdd60c21b6064820152608490fd5b15612bf257565b60405162461bcd60e51b815260206004820152602a60248201527f456c656374696f6e466163746f72793a20456c656374696f6e20686173206265604482015269195b8819195b195d195960b21b6064820152608490fd5b15612c5157565b60405162461bcd60e51b815260206004820152603160248201527f456c656374696f6e466163746f72793a2053746172742074696d65206d75737460448201527020626520696e207468652066757475726560781b6064820152608490fd5b15612cb757565b60405162461bcd60e51b815260206004820152603260248201527f456c656374696f6e466163746f72793a20456e642074696d65206d7573742062604482015271652061667465722073746172742074696d6560701b6064820152608490fd5b91908203918211612d2457565b634e487b7160e01b5f52601160045260245ffd5b15612d3f57565b60405162461bcd60e51b815260206004820152602c60248201527f456c656374696f6e466163746f72793a20456c656374696f6e2064757261746960448201526b1bdb881d1bdbc81cda1bdc9d60a21b6064820152608490fd5b15612da057565b60405162461bcd60e51b815260206004820152602b60248201527f456c656374696f6e466163746f72793a20456c656374696f6e2064757261746960448201526a6f6e20746f6f206c6f6e6760a81b6064820152608490fd5b15612e0057565b60405162461bcd60e51b815260206004820152603060248201527f456c656374696f6e466163746f72793a2043616e206f6e6c792075706461746560448201526f20647261667420656c656374696f6e7360801b6064820152608490fd5b601f8211612e6b57505050565b5f5260205f20906020601f840160051c83019310612ea3575b601f0160051c01905b818110612e98575050565b5f8155600101612e8d565b9091508190612e84565b15612eb457565b60405162461bcd60e51b815260206004820152602560248201527f456c656374696f6e466163746f72793a204465736372697074696f6e20746f6f604482015264206c6f6e6760d81b6064820152608490fd5b602435801515810361048b5790565b604435801515810361048b5790565b35801515810361048b5790565b906006811015611fc65760ff80198354169116179055565b903590601e198136030182121561048b57018035906001600160401b03821161048b5760200191813603831361048b57565b15612f8357565b60405162461bcd60e51b815260206004820152602c60248201527f456c656374696f6e466163746f72793a204c6f67696e20696e7374727563746960448201526b6f6e7320746f6f206c6f6e6760a01b6064820152608490fd5b15612fe457565b60405162461bcd60e51b815260206004820152602b60248201527f456c656374696f6e466163746f72793a20566f746520636f6e6669726d61746960448201526a6f6e20746f6f206c6f6e6760a81b6064820152608490fd5b1561304457565b60405162461bcd60e51b815260206004820152603060248201527f456c656374696f6e466163746f72793a20416674657220656c656374696f6e2060448201526f6d65737361676520746f6f206c6f6e6760801b6064820152608490fd5b604051906130af826127c1565b5f60808360608152606060208201528260408201528260608201520152565b9291926001600160401b03821161270957604051916130f7601f8201601f191660200184612812565b82948184528183011161048b578281602093845f960137010152565b5f546001600160a01b0316330361312657565b60405163118cdaa760e01b8152336004820152602490fd5b60ff6002541661314a57565b60405163d93c066560e01b8152600490fdfe456c656374696f6e466163746f72793a20496e76616c696420737461747573201f12ed9b08e34aa171ae1e9b380bddd728c42bbec38a6e74bcf066da66f7a51aa264697066735822122077886230753e4fe829d34352cbd31a6ca4a1ef68450bf54bf450d8020b8a0c6164736f6c63430008170033","linkReferences":{}},"methodIdentifiers":{"MAX_DESCRIPTION_LENGTH()":"9201ea0a","MAX_ELECTION_DURATION()":"5b6a2da6","MAX_MESSAGE_LENGTH()":"2a027211","MAX_TITLE_LENGTH()":"2ef9a160","MIN_ELECTION_DURATION()":"1b441c9c","changeElectionStatus(uint256,uint8)":"52ba6e4b","createElection((string,string,uint256,uint256,string,bool,bool,bool,uint256,bool,string,string,string,bool,bool,uint256,bool))":"9d7a6180","creatorElections(address,uint256)":"3c316221","deleteElection(uint256)":"740c47d4","electionCreationFee()":"62405052","electionExists(uint256)":"773e078e","elections(uint256)":"5e6fef01","getCurrentElectionId()":"fe2b536b","getElection(uint256)":"9d710777","getElectionBasicInfo(uint256)":"9d8fa447","getElectionsByCreator(address)":"bce58935","owner()":"8da5cb5b","pause()":"8456cb59","paused()":"5c975abb","renounceOwnership()":"715018a6","transferOwnership(address)":"f2fde38b","unpause()":"3f4ba83a","updateElectionBasicInfo(uint256,string,string)":"354fc7c0","updateElectionFee(uint256)":"dd533fb2","updateElectionMessages(uint256,(string,string,string))":"73e29f0b","updateElectionTiming(uint256,uint256,uint256,string)":"1396aa9f","updateResultsConfig(uint256,(bool,bool,uint256,bool))":"4a841a87","updateVotingSettings(uint256,(bool,bool,bool,uint256,bool))":"b7ca99cd","withdrawFees(address)":"164e68de"},"id":4}